{
  "src/config/HelloSphinxConfig.sol": {
    "HelloSphinxConfig": {
      "abi": [
        {
          "inputs": [],
          "stateMutability": "nonpayable",
          "type": "constructor"
        },
        {
          "inputs": [
            {
              "internalType": "enum Network",
              "name": "_network",
              "type": "uint8"
            }
          ],
          "name": "deploy",
          "outputs": [],
          "stateMutability": "nonpayable",
          "type": "function"
        },
        {
          "inputs": [
            {
              "internalType": "enum Network",
              "name": "_network",
              "type": "uint8"
            }
          ],
          "name": "setup",
          "outputs": [],
          "stateMutability": "nonpayable",
          "type": "function"
        }
      ],
      "userdoc": {},
      "devdoc": {},
      "storageLayout": {
        "storage": [
          {
            "astId": 149,
            "contract": "src/config/HelloSphinxConfig.sol:HelloSphinxConfig",
            "label": "owners",
            "offset": 0,
            "slot": "0",
            "type": "t_array(t_address)dyn_storage"
          },
          {
            "astId": 151,
            "contract": "src/config/HelloSphinxConfig.sol:HelloSphinxConfig",
            "label": "threshold",
            "offset": 0,
            "slot": "1",
            "type": "t_uint256"
          },
          {
            "astId": 154,
            "contract": "src/config/HelloSphinxConfig.sol:HelloSphinxConfig",
            "label": "proposers",
            "offset": 0,
            "slot": "2",
            "type": "t_array(t_address)dyn_storage"
          },
          {
            "astId": 156,
            "contract": "src/config/HelloSphinxConfig.sol:HelloSphinxConfig",
            "label": "managerVersion",
            "offset": 0,
            "slot": "3",
            "type": "t_string_storage"
          },
          {
            "astId": 160,
            "contract": "src/config/HelloSphinxConfig.sol:HelloSphinxConfig",
            "label": "networks",
            "offset": 0,
            "slot": "4",
            "type": "t_array(t_enum(Network)119)dyn_storage"
          },
          {
            "astId": 168,
            "contract": "src/config/HelloSphinxConfig.sol:HelloSphinxConfig",
            "label": "chainIds",
            "offset": 0,
            "slot": "5",
            "type": "t_mapping(t_enum(Network)119,t_uint256)"
          }
        ],
        "types": {
          "t_address": {
            "encoding": "inplace",
            "label": "address",
            "numberOfBytes": "20"
          },
          "t_array(t_address)dyn_storage": {
            "encoding": "dynamic_array",
            "label": "address[]",
            "numberOfBytes": "32",
            "base": "t_address"
          },
          "t_array(t_enum(Network)119)dyn_storage": {
            "encoding": "dynamic_array",
            "label": "enum Network[]",
            "numberOfBytes": "32",
            "base": "t_enum(Network)119"
          },
          "t_enum(Network)119": {
            "encoding": "inplace",
            "label": "enum Network",
            "numberOfBytes": "1"
          },
          "t_mapping(t_enum(Network)119,t_uint256)": {
            "encoding": "mapping",
            "key": "t_enum(Network)119",
            "label": "mapping(enum Network => uint256)",
            "numberOfBytes": "32",
            "value": "t_uint256"
          },
          "t_string_storage": {
            "encoding": "bytes",
            "label": "string",
            "numberOfBytes": "32"
          },
          "t_uint256": {
            "encoding": "inplace",
            "label": "uint256",
            "numberOfBytes": "32"
          }
        }
      },
      "evm": {
        "bytecode": {
          "object": "60a0604052739fd58bf0f2e6125ffb0cbfa9ae91893dbc1d5c5160805234801561002857600080fd5b5060805160008054600181810183557f290decd9548b62a8d60345a988386fc84ba6bc95484008f6362f93160ef3e56390910180546001600160a01b039094166001600160a01b0319948516811790915560028054808401825593527f405787fa12a823e0f2b7631cc41b3ba8828b3321ca811111fa75cd3aa3bb5ace9092018054909316909117909155805560408051808201909152600681526576302e322e3360d01b60208201526003906100df908261031c565b5060048054600180820183557f8a35acfbc15ff81a39ae7d344fd709f28e8600b4aa8c65c6b64bfe7fe36bd19b602080840482018054601f95861661010090810a60ff908102199092169092558654808601885583810485018054918816840a8084021990921690911790558654808601909755828704909301805496909516900a918202199094166002919091021790915560059091527f05b8ccbb9d4d8fb16ea74ce3c29a41f1b461fbdaff4714a0d9a8eb05499746bc5560387f3eec716f11ba9e820c81ca75eb978ffb45831ef8b7a53e5e422c26008e1ca6d55561a86a7f458b30c2d72bfd2c6317304a4594ecbafe5f729d3111b65fdc3a33bd48e5432d5560897fa9bc9a3a348c357ba16b37005d7e6b3236198c0e939f4af8c5f19b8deeb8ebc05561a4b17f89832631fb3c3307a103ba2c84ab569c64d6182a18893dcd163f0f1c2090733a55600a7f1471eb6eb2c5e789fc3de43f8ce62938c7d1836ec861730447e2ada8fd81017b55600660005260fa7f069400f22b28c6c362558d92f66163cec5671cba50b61abd2eecfcd0eaeac518556103db565b634e487b7160e01b600052604160045260246000fd5b600181811c908216806102a757607f821691505b6020821081036102c757634e487b7160e01b600052602260045260246000fd5b50919050565b601f82111561031757600081815260208120601f850160051c810160208610156102f45750805b601f850160051c820191505b8181101561031357828155600101610300565b5050505b505050565b81516001600160401b038111156103355761033561027d565b610349816103438454610293565b846102cd565b602080601f83116001811461037e57600084156103665750858301515b600019600386901b1c1916600185901b178555610313565b600085815260208120601f198616915b828110156103ad5788860151825594840194600190910190840161038e565b50858210156103cb5787850151600019600388901b60f8161c191681555b5050505050600190811b01905550565b60805161088c6103f36000396000505061088c6000f3fe608060405234801561001057600080fd5b50600436106100365760003560e01c8063506ef1f01461003b578063b17a98fe14610050575b600080fd5b61004e61004936600461021e565b610061565b005b61004e61005e36600461021e565b50565b600154604051600091829182919061007890610211565b610083929190610246565b604051809103906000f08015801561009f573d6000803e3d6000fd5b5090506000816001600160a01b0316630dbd987b600560008760068111156100c9576100c961029f565b60068111156100da576100da61029f565b81526020019081526020016000205460006040518060600160405280888152602001600480548060200260200160405190810160405280929190818152602001828054801561017857602002820191906000526020600020906000905b82829054906101000a900460ff1660068111156101565761015661029f565b8152602060019283018181049485019490930390920291018084116101375790505b505050505081526020016040518060400160405280600b81526020016a090cad8d8dea6e0d0d2dcf60ab1b8152508152506040518463ffffffff1660e01b81526004016101c7939291906102fb565b6020604051808303816000875af11580156101e6573d6000803e3d6000fd5b505050506040513d601f19601f8201168201806040525081019061020a91906103a7565b5050505050565b610486806103d183390190565b60006020828403121561023057600080fd5b81356007811061023f57600080fd5b9392505050565b6000604082016040835280855480835260608501915086600052602092508260002060005b828110156102905781546001600160a01b03168452928401926001918201910161026b565b50505092019290925292915050565b634e487b7160e01b600052602160045260246000fd5b6000815180845260005b818110156102db576020818501810151868301820152016102bf565b506000602082860101526020601f19601f83011685010191505092915050565b8381526000602060018060a01b038516818401526060604084015260c0830184516060850152818501516060608086015281815180845260e087019150848301935060009250825b8181101561037b5784516007811061036957634e487b7160e01b85526021600452602485fd5b83529385019391850191600101610343565b50506040870151868203605f190160a0880152935061039a81856102b5565b9998505050505050505050565b6000602082840312156103b957600080fd5b81516001600160a01b038116811461023f57600080fdfe608060405234801561001057600080fd5b5060405161048638038061048683398101604081905261002f916100f8565b815161004290600090602085019061004c565b50600155506101c4565b8280548282559060005260206000209081019282156100a1579160200282015b828111156100a157825182546001600160a01b0319166001600160a01b0390911617825560209092019160019091019061006c565b506100ad9291506100b1565b5090565b5b808211156100ad57600081556001016100b2565b634e487b7160e01b600052604160045260246000fd5b80516001600160a01b03811681146100f357600080fd5b919050565b6000806040838503121561010b57600080fd5b82516001600160401b038082111561012257600080fd5b818501915085601f83011261013657600080fd5b815160208282111561014a5761014a6100c6565b8160051b604051601f19603f8301168101818110868211171561016f5761016f6100c6565b60405292835281830193508481018201928984111561018d57600080fd5b948201945b838610156101b2576101a3866100dc565b85529482019493820193610192565b97909101519698969750505050505050565b6102b3806101d36000396000f3fe608060405234801561001057600080fd5b506004361061002b5760003560e01c80630dbd987b14610030575b600080fd5b61004761003e366004610143565b60009392505050565b6040516001600160a01b03909116815260200160405180910390f35b634e487b7160e01b600052604160045260246000fd5b6040516060810167ffffffffffffffff8111828210171561009c5761009c610063565b60405290565b604051601f8201601f1916810167ffffffffffffffff811182821017156100cb576100cb610063565b604052919050565b600082601f8301126100e457600080fd5b813567ffffffffffffffff8111156100fe576100fe610063565b610111601f8201601f19166020016100a2565b81815284602083860101111561012657600080fd5b816020850160208301376000918101602001919091529392505050565b60008060006060848603121561015857600080fd5b833592506020808501356001600160a01b038116811461017757600080fd5b9250604085013567ffffffffffffffff8082111561019457600080fd5b90860190606082890312156101a857600080fd5b6101b0610079565b8235815283830135828111156101c557600080fd5b8301601f81018a136101d657600080fd5b8035838111156101e8576101e8610063565b8060051b6101f78782016100a2565b918252828101870191878101908d84111561021157600080fd5b938801935b838510156102405784359250600783106102305760008081fd5b8282529388019390880190610216565b80898701525050505050604083013593508184111561025e57600080fd5b61026a898585016100d3565b604082015280945050505050925092509256fea2646970667358221220e176b4c914d5de334839300eca23f2ff8c5d26480073137a0a4b82e05625cef164736f6c63430008140033a26469706673582212208cf849bb208af55ee77e2abd6d8d48cd5566c8a80b377c2d46422a6556c1731564736f6c63430008140033",
          "opcodes": "PUSH1 0xA0 PUSH1 0x40 MSTORE PUSH20 0x9FD58BF0F2E6125FFB0CBFA9AE91893DBC1D5C51 PUSH1 0x80 MSTORE CALLVALUE DUP1 ISZERO PUSH2 0x28 JUMPI PUSH1 0x0 DUP1 REVERT JUMPDEST POP PUSH1 0x80 MLOAD PUSH1 0x0 DUP1 SLOAD PUSH1 0x1 DUP2 DUP2 ADD DUP4 SSTORE PUSH32 0x290DECD9548B62A8D60345A988386FC84BA6BC95484008F6362F93160EF3E563 SWAP1 SWAP2 ADD DUP1 SLOAD PUSH1 0x1 PUSH1 0x1 PUSH1 0xA0 SHL SUB SWAP1 SWAP5 AND PUSH1 0x1 PUSH1 0x1 PUSH1 0xA0 SHL SUB NOT SWAP5 DUP6 AND DUP2 OR SWAP1 SWAP2 SSTORE PUSH1 0x2 DUP1 SLOAD DUP1 DUP5 ADD DUP3 SSTORE SWAP4 MSTORE PUSH32 0x405787FA12A823E0F2B7631CC41B3BA8828B3321CA811111FA75CD3AA3BB5ACE SWAP1 SWAP3 ADD DUP1 SLOAD SWAP1 SWAP4 AND SWAP1 SWAP2 OR SWAP1 SWAP2 SSTORE DUP1 SSTORE PUSH1 0x40 DUP1 MLOAD DUP1 DUP3 ADD SWAP1 SWAP2 MSTORE PUSH1 0x6 DUP2 MSTORE PUSH6 0x76302E322E33 PUSH1 0xD0 SHL PUSH1 0x20 DUP3 ADD MSTORE PUSH1 0x3 SWAP1 PUSH2 0xDF SWAP1 DUP3 PUSH2 0x31C JUMP JUMPDEST POP PUSH1 0x4 DUP1 SLOAD PUSH1 0x1 DUP1 DUP3 ADD DUP4 SSTORE PUSH32 0x8A35ACFBC15FF81A39AE7D344FD709F28E8600B4AA8C65C6B64BFE7FE36BD19B PUSH1 0x20 DUP1 DUP5 DIV DUP3 ADD DUP1 SLOAD PUSH1 0x1F SWAP6 DUP7 AND PUSH2 0x100 SWAP1 DUP2 EXP PUSH1 0xFF SWAP1 DUP2 MUL NOT SWAP1 SWAP3 AND SWAP1 SWAP3 SSTORE DUP7 SLOAD DUP1 DUP7 ADD DUP9 SSTORE DUP4 DUP2 DIV DUP6 ADD DUP1 SLOAD SWAP2 DUP9 AND DUP5 EXP DUP1 DUP5 MUL NOT SWAP1 SWAP3 AND SWAP1 SWAP2 OR SWAP1 SSTORE DUP7 SLOAD DUP1 DUP7 ADD SWAP1 SWAP8 SSTORE DUP3 DUP8 DIV SWAP1 SWAP4 ADD DUP1 SLOAD SWAP7 SWAP1 SWAP6 AND SWAP1 EXP SWAP2 DUP3 MUL NOT SWAP1 SWAP5 AND PUSH1 0x2 SWAP2 SWAP1 SWAP2 MUL OR SWAP1 SWAP2 SSTORE PUSH1 0x5 SWAP1 SWAP2 MSTORE PUSH32 0x5B8CCBB9D4D8FB16EA74CE3C29A41F1B461FBDAFF4714A0D9A8EB05499746BC SSTORE PUSH1 0x38 PUSH32 0x3EEC716F11BA9E820C81CA75EB978FFB45831EF8B7A53E5E422C26008E1CA6D5 SSTORE PUSH2 0xA86A PUSH32 0x458B30C2D72BFD2C6317304A4594ECBAFE5F729D3111B65FDC3A33BD48E5432D SSTORE PUSH1 0x89 PUSH32 0xA9BC9A3A348C357BA16B37005D7E6B3236198C0E939F4AF8C5F19B8DEEB8EBC0 SSTORE PUSH2 0xA4B1 PUSH32 0x89832631FB3C3307A103BA2C84AB569C64D6182A18893DCD163F0F1C2090733A SSTORE PUSH1 0xA PUSH32 0x1471EB6EB2C5E789FC3DE43F8CE62938C7D1836EC861730447E2ADA8FD81017B SSTORE PUSH1 0x6 PUSH1 0x0 MSTORE PUSH1 0xFA PUSH32 0x69400F22B28C6C362558D92F66163CEC5671CBA50B61ABD2EECFCD0EAEAC518 SSTORE PUSH2 0x3DB JUMP JUMPDEST PUSH4 0x4E487B71 PUSH1 0xE0 SHL PUSH1 0x0 MSTORE PUSH1 0x41 PUSH1 0x4 MSTORE PUSH1 0x24 PUSH1 0x0 REVERT JUMPDEST PUSH1 0x1 DUP2 DUP2 SHR SWAP1 DUP3 AND DUP1 PUSH2 0x2A7 JUMPI PUSH1 0x7F DUP3 AND SWAP2 POP JUMPDEST PUSH1 0x20 DUP3 LT DUP2 SUB PUSH2 0x2C7 JUMPI PUSH4 0x4E487B71 PUSH1 0xE0 SHL PUSH1 0x0 MSTORE PUSH1 0x22 PUSH1 0x4 MSTORE PUSH1 0x24 PUSH1 0x0 REVERT JUMPDEST POP SWAP2 SWAP1 POP JUMP JUMPDEST PUSH1 0x1F DUP3 GT ISZERO PUSH2 0x317 JUMPI PUSH1 0x0 DUP2 DUP2 MSTORE PUSH1 0x20 DUP2 KECCAK256 PUSH1 0x1F DUP6 ADD PUSH1 0x5 SHR DUP2 ADD PUSH1 0x20 DUP7 LT ISZERO PUSH2 0x2F4 JUMPI POP DUP1 JUMPDEST PUSH1 0x1F DUP6 ADD PUSH1 0x5 SHR DUP3 ADD SWAP2 POP JUMPDEST DUP2 DUP2 LT ISZERO PUSH2 0x313 JUMPI DUP3 DUP2 SSTORE PUSH1 0x1 ADD PUSH2 0x300 JUMP JUMPDEST POP POP POP JUMPDEST POP POP POP JUMP JUMPDEST DUP2 MLOAD PUSH1 0x1 PUSH1 0x1 PUSH1 0x40 SHL SUB DUP2 GT ISZERO PUSH2 0x335 JUMPI PUSH2 0x335 PUSH2 0x27D JUMP JUMPDEST PUSH2 0x349 DUP2 PUSH2 0x343 DUP5 SLOAD PUSH2 0x293 JUMP JUMPDEST DUP5 PUSH2 0x2CD JUMP JUMPDEST PUSH1 0x20 DUP1 PUSH1 0x1F DUP4 GT PUSH1 0x1 DUP2 EQ PUSH2 0x37E JUMPI PUSH1 0x0 DUP5 ISZERO PUSH2 0x366 JUMPI POP DUP6 DUP4 ADD MLOAD JUMPDEST PUSH1 0x0 NOT PUSH1 0x3 DUP7 SWAP1 SHL SHR NOT AND PUSH1 0x1 DUP6 SWAP1 SHL OR DUP6 SSTORE PUSH2 0x313 JUMP JUMPDEST PUSH1 0x0 DUP6 DUP2 MSTORE PUSH1 0x20 DUP2 KECCAK256 PUSH1 0x1F NOT DUP7 AND SWAP2 JUMPDEST DUP3 DUP2 LT ISZERO PUSH2 0x3AD JUMPI DUP9 DUP7 ADD MLOAD DUP3 SSTORE SWAP5 DUP5 ADD SWAP5 PUSH1 0x1 SWAP1 SWAP2 ADD SWAP1 DUP5 ADD PUSH2 0x38E JUMP JUMPDEST POP DUP6 DUP3 LT ISZERO PUSH2 0x3CB JUMPI DUP8 DUP6 ADD MLOAD PUSH1 0x0 NOT PUSH1 0x3 DUP9 SWAP1 SHL PUSH1 0xF8 AND SHR NOT AND DUP2 SSTORE JUMPDEST POP POP POP POP POP PUSH1 0x1 SWAP1 DUP2 SHL ADD SWAP1 SSTORE POP JUMP JUMPDEST PUSH1 0x80 MLOAD PUSH2 0x88C PUSH2 0x3F3 PUSH1 0x0 CODECOPY PUSH1 0x0 POP POP PUSH2 0x88C PUSH1 0x0 RETURN INVALID PUSH1 0x80 PUSH1 0x40 MSTORE CALLVALUE DUP1 ISZERO PUSH2 0x10 JUMPI PUSH1 0x0 DUP1 REVERT JUMPDEST POP PUSH1 0x4 CALLDATASIZE LT PUSH2 0x36 JUMPI PUSH1 0x0 CALLDATALOAD PUSH1 0xE0 SHR DUP1 PUSH4 0x506EF1F0 EQ PUSH2 0x3B JUMPI DUP1 PUSH4 0xB17A98FE EQ PUSH2 0x50 JUMPI JUMPDEST PUSH1 0x0 DUP1 REVERT JUMPDEST PUSH2 0x4E PUSH2 0x49 CALLDATASIZE PUSH1 0x4 PUSH2 0x21E JUMP JUMPDEST PUSH2 0x61 JUMP JUMPDEST STOP JUMPDEST PUSH2 0x4E PUSH2 0x5E CALLDATASIZE PUSH1 0x4 PUSH2 0x21E JUMP JUMPDEST POP JUMP JUMPDEST PUSH1 0x1 SLOAD PUSH1 0x40 MLOAD PUSH1 0x0 SWAP2 DUP3 SWAP2 DUP3 SWAP2 SWAP1 PUSH2 0x78 SWAP1 PUSH2 0x211 JUMP JUMPDEST PUSH2 0x83 SWAP3 SWAP2 SWAP1 PUSH2 0x246 JUMP JUMPDEST PUSH1 0x40 MLOAD DUP1 SWAP2 SUB SWAP1 PUSH1 0x0 CREATE DUP1 ISZERO DUP1 ISZERO PUSH2 0x9F JUMPI RETURNDATASIZE PUSH1 0x0 DUP1 RETURNDATACOPY RETURNDATASIZE PUSH1 0x0 REVERT JUMPDEST POP SWAP1 POP PUSH1 0x0 DUP2 PUSH1 0x1 PUSH1 0x1 PUSH1 0xA0 SHL SUB AND PUSH4 0xDBD987B PUSH1 0x5 PUSH1 0x0 DUP8 PUSH1 0x6 DUP2 GT ISZERO PUSH2 0xC9 JUMPI PUSH2 0xC9 PUSH2 0x29F JUMP JUMPDEST PUSH1 0x6 DUP2 GT ISZERO PUSH2 0xDA JUMPI PUSH2 0xDA PUSH2 0x29F JUMP JUMPDEST DUP2 MSTORE PUSH1 0x20 ADD SWAP1 DUP2 MSTORE PUSH1 0x20 ADD PUSH1 0x0 KECCAK256 SLOAD PUSH1 0x0 PUSH1 0x40 MLOAD DUP1 PUSH1 0x60 ADD PUSH1 0x40 MSTORE DUP1 DUP9 DUP2 MSTORE PUSH1 0x20 ADD PUSH1 0x4 DUP1 SLOAD DUP1 PUSH1 0x20 MUL PUSH1 0x20 ADD PUSH1 0x40 MLOAD SWAP1 DUP2 ADD PUSH1 0x40 MSTORE DUP1 SWAP3 SWAP2 SWAP1 DUP2 DUP2 MSTORE PUSH1 0x20 ADD DUP3 DUP1 SLOAD DUP1 ISZERO PUSH2 0x178 JUMPI PUSH1 0x20 MUL DUP3 ADD SWAP2 SWAP1 PUSH1 0x0 MSTORE PUSH1 0x20 PUSH1 0x0 KECCAK256 SWAP1 PUSH1 0x0 SWAP1 JUMPDEST DUP3 DUP3 SWAP1 SLOAD SWAP1 PUSH2 0x100 EXP SWAP1 DIV PUSH1 0xFF AND PUSH1 0x6 DUP2 GT ISZERO PUSH2 0x156 JUMPI PUSH2 0x156 PUSH2 0x29F JUMP JUMPDEST DUP2 MSTORE PUSH1 0x20 PUSH1 0x1 SWAP3 DUP4 ADD DUP2 DUP2 DIV SWAP5 DUP6 ADD SWAP5 SWAP1 SWAP4 SUB SWAP1 SWAP3 MUL SWAP2 ADD DUP1 DUP5 GT PUSH2 0x137 JUMPI SWAP1 POP JUMPDEST POP POP POP POP POP DUP2 MSTORE PUSH1 0x20 ADD PUSH1 0x40 MLOAD DUP1 PUSH1 0x40 ADD PUSH1 0x40 MSTORE DUP1 PUSH1 0xB DUP2 MSTORE PUSH1 0x20 ADD PUSH11 0x90CAD8D8DEA6E0D0D2DCF PUSH1 0xAB SHL DUP2 MSTORE POP DUP2 MSTORE POP PUSH1 0x40 MLOAD DUP5 PUSH4 0xFFFFFFFF AND PUSH1 0xE0 SHL DUP2 MSTORE PUSH1 0x4 ADD PUSH2 0x1C7 SWAP4 SWAP3 SWAP2 SWAP1 PUSH2 0x2FB JUMP JUMPDEST PUSH1 0x20 PUSH1 0x40 MLOAD DUP1 DUP4 SUB DUP2 PUSH1 0x0 DUP8 GAS CALL ISZERO DUP1 ISZERO PUSH2 0x1E6 JUMPI RETURNDATASIZE PUSH1 0x0 DUP1 RETURNDATACOPY RETURNDATASIZE PUSH1 0x0 REVERT JUMPDEST POP POP POP POP PUSH1 0x40 MLOAD RETURNDATASIZE PUSH1 0x1F NOT PUSH1 0x1F DUP3 ADD AND DUP3 ADD DUP1 PUSH1 0x40 MSTORE POP DUP2 ADD SWAP1 PUSH2 0x20A SWAP2 SWAP1 PUSH2 0x3A7 JUMP JUMPDEST POP POP POP POP POP JUMP JUMPDEST PUSH2 0x486 DUP1 PUSH2 0x3D1 DUP4 CODECOPY ADD SWAP1 JUMP JUMPDEST PUSH1 0x0 PUSH1 0x20 DUP3 DUP5 SUB SLT ISZERO PUSH2 0x230 JUMPI PUSH1 0x0 DUP1 REVERT JUMPDEST DUP2 CALLDATALOAD PUSH1 0x7 DUP2 LT PUSH2 0x23F JUMPI PUSH1 0x0 DUP1 REVERT JUMPDEST SWAP4 SWAP3 POP POP POP JUMP JUMPDEST PUSH1 0x0 PUSH1 0x40 DUP3 ADD PUSH1 0x40 DUP4 MSTORE DUP1 DUP6 SLOAD DUP1 DUP4 MSTORE PUSH1 0x60 DUP6 ADD SWAP2 POP DUP7 PUSH1 0x0 MSTORE PUSH1 0x20 SWAP3 POP DUP3 PUSH1 0x0 KECCAK256 PUSH1 0x0 JUMPDEST DUP3 DUP2 LT ISZERO PUSH2 0x290 JUMPI DUP2 SLOAD PUSH1 0x1 PUSH1 0x1 PUSH1 0xA0 SHL SUB AND DUP5 MSTORE SWAP3 DUP5 ADD SWAP3 PUSH1 0x1 SWAP2 DUP3 ADD SWAP2 ADD PUSH2 0x26B JUMP JUMPDEST POP POP POP SWAP3 ADD SWAP3 SWAP1 SWAP3 MSTORE SWAP3 SWAP2 POP POP JUMP JUMPDEST PUSH4 0x4E487B71 PUSH1 0xE0 SHL PUSH1 0x0 MSTORE PUSH1 0x21 PUSH1 0x4 MSTORE PUSH1 0x24 PUSH1 0x0 REVERT JUMPDEST PUSH1 0x0 DUP2 MLOAD DUP1 DUP5 MSTORE PUSH1 0x0 JUMPDEST DUP2 DUP2 LT ISZERO PUSH2 0x2DB JUMPI PUSH1 0x20 DUP2 DUP6 ADD DUP2 ADD MLOAD DUP7 DUP4 ADD DUP3 ADD MSTORE ADD PUSH2 0x2BF JUMP JUMPDEST POP PUSH1 0x0 PUSH1 0x20 DUP3 DUP7 ADD ADD MSTORE PUSH1 0x20 PUSH1 0x1F NOT PUSH1 0x1F DUP4 ADD AND DUP6 ADD ADD SWAP2 POP POP SWAP3 SWAP2 POP POP JUMP JUMPDEST DUP4 DUP2 MSTORE PUSH1 0x0 PUSH1 0x20 PUSH1 0x1 DUP1 PUSH1 0xA0 SHL SUB DUP6 AND DUP2 DUP5 ADD MSTORE PUSH1 0x60 PUSH1 0x40 DUP5 ADD MSTORE PUSH1 0xC0 DUP4 ADD DUP5 MLOAD PUSH1 0x60 DUP6 ADD MSTORE DUP2 DUP6 ADD MLOAD PUSH1 0x60 PUSH1 0x80 DUP7 ADD MSTORE DUP2 DUP2 MLOAD DUP1 DUP5 MSTORE PUSH1 0xE0 DUP8 ADD SWAP2 POP DUP5 DUP4 ADD SWAP4 POP PUSH1 0x0 SWAP3 POP DUP3 JUMPDEST DUP2 DUP2 LT ISZERO PUSH2 0x37B JUMPI DUP5 MLOAD PUSH1 0x7 DUP2 LT PUSH2 0x369 JUMPI PUSH4 0x4E487B71 PUSH1 0xE0 SHL DUP6 MSTORE PUSH1 0x21 PUSH1 0x4 MSTORE PUSH1 0x24 DUP6 REVERT JUMPDEST DUP4 MSTORE SWAP4 DUP6 ADD SWAP4 SWAP2 DUP6 ADD SWAP2 PUSH1 0x1 ADD PUSH2 0x343 JUMP JUMPDEST POP POP PUSH1 0x40 DUP8 ADD MLOAD DUP7 DUP3 SUB PUSH1 0x5F NOT ADD PUSH1 0xA0 DUP9 ADD MSTORE SWAP4 POP PUSH2 0x39A DUP2 DUP6 PUSH2 0x2B5 JUMP JUMPDEST SWAP10 SWAP9 POP POP POP POP POP POP POP POP POP JUMP JUMPDEST PUSH1 0x0 PUSH1 0x20 DUP3 DUP5 SUB SLT ISZERO PUSH2 0x3B9 JUMPI PUSH1 0x0 DUP1 REVERT JUMPDEST DUP2 MLOAD PUSH1 0x1 PUSH1 0x1 PUSH1 0xA0 SHL SUB DUP2 AND DUP2 EQ PUSH2 0x23F JUMPI PUSH1 0x0 DUP1 REVERT INVALID PUSH1 0x80 PUSH1 0x40 MSTORE CALLVALUE DUP1 ISZERO PUSH2 0x10 JUMPI PUSH1 0x0 DUP1 REVERT JUMPDEST POP PUSH1 0x40 MLOAD PUSH2 0x486 CODESIZE SUB DUP1 PUSH2 0x486 DUP4 CODECOPY DUP2 ADD PUSH1 0x40 DUP2 SWAP1 MSTORE PUSH2 0x2F SWAP2 PUSH2 0xF8 JUMP JUMPDEST DUP2 MLOAD PUSH2 0x42 SWAP1 PUSH1 0x0 SWAP1 PUSH1 0x20 DUP6 ADD SWAP1 PUSH2 0x4C JUMP JUMPDEST POP PUSH1 0x1 SSTORE POP PUSH2 0x1C4 JUMP JUMPDEST DUP3 DUP1 SLOAD DUP3 DUP3 SSTORE SWAP1 PUSH1 0x0 MSTORE PUSH1 0x20 PUSH1 0x0 KECCAK256 SWAP1 DUP2 ADD SWAP3 DUP3 ISZERO PUSH2 0xA1 JUMPI SWAP2 PUSH1 0x20 MUL DUP3 ADD JUMPDEST DUP3 DUP2 GT ISZERO PUSH2 0xA1 JUMPI DUP3 MLOAD DUP3 SLOAD PUSH1 0x1 PUSH1 0x1 PUSH1 0xA0 SHL SUB NOT AND PUSH1 0x1 PUSH1 0x1 PUSH1 0xA0 SHL SUB SWAP1 SWAP2 AND OR DUP3 SSTORE PUSH1 0x20 SWAP1 SWAP3 ADD SWAP2 PUSH1 0x1 SWAP1 SWAP2 ADD SWAP1 PUSH2 0x6C JUMP JUMPDEST POP PUSH2 0xAD SWAP3 SWAP2 POP PUSH2 0xB1 JUMP JUMPDEST POP SWAP1 JUMP JUMPDEST JUMPDEST DUP1 DUP3 GT ISZERO PUSH2 0xAD JUMPI PUSH1 0x0 DUP2 SSTORE PUSH1 0x1 ADD PUSH2 0xB2 JUMP JUMPDEST PUSH4 0x4E487B71 PUSH1 0xE0 SHL PUSH1 0x0 MSTORE PUSH1 0x41 PUSH1 0x4 MSTORE PUSH1 0x24 PUSH1 0x0 REVERT JUMPDEST DUP1 MLOAD PUSH1 0x1 PUSH1 0x1 PUSH1 0xA0 SHL SUB DUP2 AND DUP2 EQ PUSH2 0xF3 JUMPI PUSH1 0x0 DUP1 REVERT JUMPDEST SWAP2 SWAP1 POP JUMP JUMPDEST PUSH1 0x0 DUP1 PUSH1 0x40 DUP4 DUP6 SUB SLT ISZERO PUSH2 0x10B JUMPI PUSH1 0x0 DUP1 REVERT JUMPDEST DUP3 MLOAD PUSH1 0x1 PUSH1 0x1 PUSH1 0x40 SHL SUB DUP1 DUP3 GT ISZERO PUSH2 0x122 JUMPI PUSH1 0x0 DUP1 REVERT JUMPDEST DUP2 DUP6 ADD SWAP2 POP DUP6 PUSH1 0x1F DUP4 ADD SLT PUSH2 0x136 JUMPI PUSH1 0x0 DUP1 REVERT JUMPDEST DUP2 MLOAD PUSH1 0x20 DUP3 DUP3 GT ISZERO PUSH2 0x14A JUMPI PUSH2 0x14A PUSH2 0xC6 JUMP JUMPDEST DUP2 PUSH1 0x5 SHL PUSH1 0x40 MLOAD PUSH1 0x1F NOT PUSH1 0x3F DUP4 ADD AND DUP2 ADD DUP2 DUP2 LT DUP7 DUP3 GT OR ISZERO PUSH2 0x16F JUMPI PUSH2 0x16F PUSH2 0xC6 JUMP JUMPDEST PUSH1 0x40 MSTORE SWAP3 DUP4 MSTORE DUP2 DUP4 ADD SWAP4 POP DUP5 DUP2 ADD DUP3 ADD SWAP3 DUP10 DUP5 GT ISZERO PUSH2 0x18D JUMPI PUSH1 0x0 DUP1 REVERT JUMPDEST SWAP5 DUP3 ADD SWAP5 JUMPDEST DUP4 DUP7 LT ISZERO PUSH2 0x1B2 JUMPI PUSH2 0x1A3 DUP7 PUSH2 0xDC JUMP JUMPDEST DUP6 MSTORE SWAP5 DUP3 ADD SWAP5 SWAP4 DUP3 ADD SWAP4 PUSH2 0x192 JUMP JUMPDEST SWAP8 SWAP1 SWAP2 ADD MLOAD SWAP7 SWAP9 SWAP7 SWAP8 POP POP POP POP POP POP POP JUMP JUMPDEST PUSH2 0x2B3 DUP1 PUSH2 0x1D3 PUSH1 0x0 CODECOPY PUSH1 0x0 RETURN INVALID PUSH1 0x80 PUSH1 0x40 MSTORE CALLVALUE DUP1 ISZERO PUSH2 0x10 JUMPI PUSH1 0x0 DUP1 REVERT JUMPDEST POP PUSH1 0x4 CALLDATASIZE LT PUSH2 0x2B JUMPI PUSH1 0x0 CALLDATALOAD PUSH1 0xE0 SHR DUP1 PUSH4 0xDBD987B EQ PUSH2 0x30 JUMPI JUMPDEST PUSH1 0x0 DUP1 REVERT JUMPDEST PUSH2 0x47 PUSH2 0x3E CALLDATASIZE PUSH1 0x4 PUSH2 0x143 JUMP JUMPDEST PUSH1 0x0 SWAP4 SWAP3 POP POP POP JUMP JUMPDEST PUSH1 0x40 MLOAD PUSH1 0x1 PUSH1 0x1 PUSH1 0xA0 SHL SUB SWAP1 SWAP2 AND DUP2 MSTORE PUSH1 0x20 ADD PUSH1 0x40 MLOAD DUP1 SWAP2 SUB SWAP1 RETURN JUMPDEST PUSH4 0x4E487B71 PUSH1 0xE0 SHL PUSH1 0x0 MSTORE PUSH1 0x41 PUSH1 0x4 MSTORE PUSH1 0x24 PUSH1 0x0 REVERT JUMPDEST PUSH1 0x40 MLOAD PUSH1 0x60 DUP2 ADD PUSH8 0xFFFFFFFFFFFFFFFF DUP2 GT DUP3 DUP3 LT OR ISZERO PUSH2 0x9C JUMPI PUSH2 0x9C PUSH2 0x63 JUMP JUMPDEST PUSH1 0x40 MSTORE SWAP1 JUMP JUMPDEST PUSH1 0x40 MLOAD PUSH1 0x1F DUP3 ADD PUSH1 0x1F NOT AND DUP2 ADD PUSH8 0xFFFFFFFFFFFFFFFF DUP2 GT DUP3 DUP3 LT OR ISZERO PUSH2 0xCB JUMPI PUSH2 0xCB PUSH2 0x63 JUMP JUMPDEST PUSH1 0x40 MSTORE SWAP2 SWAP1 POP JUMP JUMPDEST PUSH1 0x0 DUP3 PUSH1 0x1F DUP4 ADD SLT PUSH2 0xE4 JUMPI PUSH1 0x0 DUP1 REVERT JUMPDEST DUP2 CALLDATALOAD PUSH8 0xFFFFFFFFFFFFFFFF DUP2 GT ISZERO PUSH2 0xFE JUMPI PUSH2 0xFE PUSH2 0x63 JUMP JUMPDEST PUSH2 0x111 PUSH1 0x1F DUP3 ADD PUSH1 0x1F NOT AND PUSH1 0x20 ADD PUSH2 0xA2 JUMP JUMPDEST DUP2 DUP2 MSTORE DUP5 PUSH1 0x20 DUP4 DUP7 ADD ADD GT ISZERO PUSH2 0x126 JUMPI PUSH1 0x0 DUP1 REVERT JUMPDEST DUP2 PUSH1 0x20 DUP6 ADD PUSH1 0x20 DUP4 ADD CALLDATACOPY PUSH1 0x0 SWAP2 DUP2 ADD PUSH1 0x20 ADD SWAP2 SWAP1 SWAP2 MSTORE SWAP4 SWAP3 POP POP POP JUMP JUMPDEST PUSH1 0x0 DUP1 PUSH1 0x0 PUSH1 0x60 DUP5 DUP7 SUB SLT ISZERO PUSH2 0x158 JUMPI PUSH1 0x0 DUP1 REVERT JUMPDEST DUP4 CALLDATALOAD SWAP3 POP PUSH1 0x20 DUP1 DUP6 ADD CALLDATALOAD PUSH1 0x1 PUSH1 0x1 PUSH1 0xA0 SHL SUB DUP2 AND DUP2 EQ PUSH2 0x177 JUMPI PUSH1 0x0 DUP1 REVERT JUMPDEST SWAP3 POP PUSH1 0x40 DUP6 ADD CALLDATALOAD PUSH8 0xFFFFFFFFFFFFFFFF DUP1 DUP3 GT ISZERO PUSH2 0x194 JUMPI PUSH1 0x0 DUP1 REVERT JUMPDEST SWAP1 DUP7 ADD SWAP1 PUSH1 0x60 DUP3 DUP10 SUB SLT ISZERO PUSH2 0x1A8 JUMPI PUSH1 0x0 DUP1 REVERT JUMPDEST PUSH2 0x1B0 PUSH2 0x79 JUMP JUMPDEST DUP3 CALLDATALOAD DUP2 MSTORE DUP4 DUP4 ADD CALLDATALOAD DUP3 DUP2 GT ISZERO PUSH2 0x1C5 JUMPI PUSH1 0x0 DUP1 REVERT JUMPDEST DUP4 ADD PUSH1 0x1F DUP2 ADD DUP11 SGT PUSH2 0x1D6 JUMPI PUSH1 0x0 DUP1 REVERT JUMPDEST DUP1 CALLDATALOAD DUP4 DUP2 GT ISZERO PUSH2 0x1E8 JUMPI PUSH2 0x1E8 PUSH2 0x63 JUMP JUMPDEST DUP1 PUSH1 0x5 SHL PUSH2 0x1F7 DUP8 DUP3 ADD PUSH2 0xA2 JUMP JUMPDEST SWAP2 DUP3 MSTORE DUP3 DUP2 ADD DUP8 ADD SWAP2 DUP8 DUP2 ADD SWAP1 DUP14 DUP5 GT ISZERO PUSH2 0x211 JUMPI PUSH1 0x0 DUP1 REVERT JUMPDEST SWAP4 DUP9 ADD SWAP4 JUMPDEST DUP4 DUP6 LT ISZERO PUSH2 0x240 JUMPI DUP5 CALLDATALOAD SWAP3 POP PUSH1 0x7 DUP4 LT PUSH2 0x230 JUMPI PUSH1 0x0 DUP1 DUP2 REVERT JUMPDEST DUP3 DUP3 MSTORE SWAP4 DUP9 ADD SWAP4 SWAP1 DUP9 ADD SWAP1 PUSH2 0x216 JUMP JUMPDEST DUP1 DUP10 DUP8 ADD MSTORE POP POP POP POP POP PUSH1 0x40 DUP4 ADD CALLDATALOAD SWAP4 POP DUP2 DUP5 GT ISZERO PUSH2 0x25E JUMPI PUSH1 0x0 DUP1 REVERT JUMPDEST PUSH2 0x26A DUP10 DUP6 DUP6 ADD PUSH2 0xD3 JUMP JUMPDEST PUSH1 0x40 DUP3 ADD MSTORE DUP1 SWAP5 POP POP POP POP POP SWAP3 POP SWAP3 POP SWAP3 JUMP INVALID LOG2 PUSH5 0x6970667358 0x22 SLT KECCAK256 0xE1 PUSH23 0xB4C914D5DE334839300ECA23F2FF8C5D26480073137A0A 0x4B DUP3 0xE0 JUMP 0x25 0xCE CALL PUSH5 0x736F6C6343 STOP ADDMOD EQ STOP CALLER LOG2 PUSH5 0x6970667358 0x22 SLT KECCAK256 DUP13 0xF8 0x49 0xBB KECCAK256 DUP11 CREATE2 0x5E 0xE7 PUSH31 0x2ABD6D8D48CD5566C8A80B377C2D46422A6556C1731564736F6C6343000814 STOP CALLER ",
          "linkReferences": {}
        },
        "methodIdentifiers": {
          "deploy(uint8)": "506ef1f0",
          "setup(uint8)": "b17a98fe"
        },
        "gasEstimates": {
          "creation": {
            "codeDepositCost": "437600",
            "executionCost": "infinite",
            "totalCost": "infinite"
          },
          "external": {
            "deploy(uint8)": "infinite",
            "setup(uint8)": "239"
          },
          "internal": {}
        }
      }
    }
  }
}