{
  "src/client/HelloSphinx.sol": {
    "HelloSphinx": {
      "abi": [
        {
          "inputs": [],
          "stateMutability": "nonpayable",
          "type": "constructor"
        },
        {
          "anonymous": false,
          "inputs": [
            {
              "indexed": false,
              "internalType": "string",
              "name": "name",
              "type": "string"
            },
            {
              "components": [
                {
                  "internalType": "enum Network[]",
                  "name": "networks",
                  "type": "uint8[]"
                }
              ],
              "indexed": false,
              "internalType": "struct ActionOptions",
              "name": "options",
              "type": "tuple"
            }
          ],
          "name": "CallIncrement",
          "type": "event"
        },
        {
          "anonymous": false,
          "inputs": [
            {
              "indexed": false,
              "internalType": "string",
              "name": "name",
              "type": "string"
            }
          ],
          "name": "CallIncrement",
          "type": "event"
        },
        {
          "anonymous": false,
          "inputs": [
            {
              "indexed": false,
              "internalType": "string",
              "name": "name",
              "type": "string"
            },
            {
              "indexed": false,
              "internalType": "uint8",
              "name": "_myNumber",
              "type": "uint8"
            },
            {
              "components": [
                {
                  "internalType": "enum Network[]",
                  "name": "networks",
                  "type": "uint8[]"
                }
              ],
              "indexed": false,
              "internalType": "struct ActionOptions",
              "name": "options",
              "type": "tuple"
            }
          ],
          "name": "CallSetNumber",
          "type": "event"
        },
        {
          "anonymous": false,
          "inputs": [
            {
              "indexed": false,
              "internalType": "string",
              "name": "name",
              "type": "string"
            },
            {
              "indexed": false,
              "internalType": "uint8",
              "name": "_myNumber",
              "type": "uint8"
            }
          ],
          "name": "CallSetNumber",
          "type": "event"
        },
        {
          "inputs": [
            {
              "components": [
                {
                  "internalType": "enum Network[]",
                  "name": "networks",
                  "type": "uint8[]"
                }
              ],
              "internalType": "struct ActionOptions",
              "name": "options",
              "type": "tuple"
            }
          ],
          "name": "increment",
          "outputs": [],
          "stateMutability": "nonpayable",
          "type": "function"
        },
        {
          "inputs": [],
          "name": "increment",
          "outputs": [],
          "stateMutability": "nonpayable",
          "type": "function"
        },
        {
          "inputs": [
            {
              "internalType": "uint8",
              "name": "_myNumber",
              "type": "uint8"
            }
          ],
          "name": "setNumber",
          "outputs": [],
          "stateMutability": "nonpayable",
          "type": "function"
        },
        {
          "inputs": [
            {
              "internalType": "uint8",
              "name": "_myNumber",
              "type": "uint8"
            },
            {
              "components": [
                {
                  "internalType": "enum Network[]",
                  "name": "networks",
                  "type": "uint8[]"
                }
              ],
              "internalType": "struct ActionOptions",
              "name": "options",
              "type": "tuple"
            }
          ],
          "name": "setNumber",
          "outputs": [],
          "stateMutability": "nonpayable",
          "type": "function"
        }
      ],
      "userdoc": {},
      "devdoc": {},
      "evm": {
        "bytecode": {
          "object": "608060405234801561001057600080fd5b506104f1806100206000396000f3fe608060405234801561001057600080fd5b506004361061004c5760003560e01c80630211b7511461005157806318559e1914610066578063cabd6b4914610079578063d09de08a1461008c575b600080fd5b61006461005f3660046102a4565b610094565b005b6100646100743660046102f7565b6100ce565b610064610087366004610319565b6100fd565b61006461013a565b7f55de2b0da4d4607e109153f9f13502c64c4a952b4958f96aee88246b7cc1b97f816040516100c391906103ca565b60405180910390a150565b7f44a60f05f6595d9544469c5767b3b9579edec9f561003ab9720ea4af8570b0f2816040516100c39190610405565b7fd758524d282197c27e963e090682ef7365ec0cac066355b213c90053ae1978b4828260405161012e92919061043f565b60405180910390a15050565b7f5efb2b1bc9ab38b99c0d1890686c22199e1733ff69509df47751d6e759c350156040516101679061048c565b60405180910390a1565b634e487b7160e01b600052604160045260246000fd5b6040516020810167ffffffffffffffff811182821017156101aa576101aa610171565b60405290565b604051601f8201601f1916810167ffffffffffffffff811182821017156101d9576101d9610171565b604052919050565b600060208083850312156101f457600080fd5b6101fc610187565b9150823567ffffffffffffffff8082111561021657600080fd5b818501915085601f83011261022a57600080fd5b81358181111561023c5761023c610171565b8060051b915061024d8483016101b0565b818152918301840191848101908884111561026757600080fd5b938501935b838510156102965784359250600783106102865760008081fd5b828252938501939085019061026c565b865250939695505050505050565b6000602082840312156102b657600080fd5b813567ffffffffffffffff8111156102cd57600080fd5b6102d9848285016101e1565b949350505050565b803560ff811681146102f257600080fd5b919050565b60006020828403121561030957600080fd5b610312826102e1565b9392505050565b6000806040838503121561032c57600080fd5b610335836102e1565b9150602083013567ffffffffffffffff81111561035157600080fd5b61035d858286016101e1565b9150509250929050565b80516020808452815184820181905260009282019083906040870190825b818110156103bd578451600781106103ab57634e487b7160e01b85526021600452602485fd5b83529385019391850191600101610385565b5090979650505050505050565b6040815260006103f36040830160098152681a5b98dc995b595b9d60ba1b602082015260400190565b82810360208401526102d98185610367565b60408152600061042e60408301600981526839b2ba273ab6b132b960b91b602082015260400190565b905060ff8316602083015292915050565b60608152600061046860608301600981526839b2ba273ab6b132b960b91b602082015260400190565b60ff8516602084015282810360408401526104838185610367565b95945050505050565b6020815260006104b56020830160098152681a5b98dc995b595b9d60ba1b602082015260400190565b9291505056fea26469706673582212206b0a260d6852b89bc40f40ede691d9a549af4090463933ee17a5d307cd01abea64736f6c63430008140033",
          "opcodes": "PUSH1 0x80 PUSH1 0x40 MSTORE CALLVALUE DUP1 ISZERO PUSH2 0x10 JUMPI PUSH1 0x0 DUP1 REVERT JUMPDEST POP PUSH2 0x4F1 DUP1 PUSH2 0x20 PUSH1 0x0 CODECOPY PUSH1 0x0 RETURN INVALID PUSH1 0x80 PUSH1 0x40 MSTORE CALLVALUE DUP1 ISZERO PUSH2 0x10 JUMPI PUSH1 0x0 DUP1 REVERT JUMPDEST POP PUSH1 0x4 CALLDATASIZE LT PUSH2 0x4C JUMPI PUSH1 0x0 CALLDATALOAD PUSH1 0xE0 SHR DUP1 PUSH4 0x211B751 EQ PUSH2 0x51 JUMPI DUP1 PUSH4 0x18559E19 EQ PUSH2 0x66 JUMPI DUP1 PUSH4 0xCABD6B49 EQ PUSH2 0x79 JUMPI DUP1 PUSH4 0xD09DE08A EQ PUSH2 0x8C JUMPI JUMPDEST PUSH1 0x0 DUP1 REVERT JUMPDEST PUSH2 0x64 PUSH2 0x5F CALLDATASIZE PUSH1 0x4 PUSH2 0x2A4 JUMP JUMPDEST PUSH2 0x94 JUMP JUMPDEST STOP JUMPDEST PUSH2 0x64 PUSH2 0x74 CALLDATASIZE PUSH1 0x4 PUSH2 0x2F7 JUMP JUMPDEST PUSH2 0xCE JUMP JUMPDEST PUSH2 0x64 PUSH2 0x87 CALLDATASIZE PUSH1 0x4 PUSH2 0x319 JUMP JUMPDEST PUSH2 0xFD JUMP JUMPDEST PUSH2 0x64 PUSH2 0x13A JUMP JUMPDEST PUSH32 0x55DE2B0DA4D4607E109153F9F13502C64C4A952B4958F96AEE88246B7CC1B97F DUP2 PUSH1 0x40 MLOAD PUSH2 0xC3 SWAP2 SWAP1 PUSH2 0x3CA JUMP JUMPDEST PUSH1 0x40 MLOAD DUP1 SWAP2 SUB SWAP1 LOG1 POP JUMP JUMPDEST PUSH32 0x44A60F05F6595D9544469C5767B3B9579EDEC9F561003AB9720EA4AF8570B0F2 DUP2 PUSH1 0x40 MLOAD PUSH2 0xC3 SWAP2 SWAP1 PUSH2 0x405 JUMP JUMPDEST PUSH32 0xD758524D282197C27E963E090682EF7365EC0CAC066355B213C90053AE1978B4 DUP3 DUP3 PUSH1 0x40 MLOAD PUSH2 0x12E SWAP3 SWAP2 SWAP1 PUSH2 0x43F JUMP JUMPDEST PUSH1 0x40 MLOAD DUP1 SWAP2 SUB SWAP1 LOG1 POP POP JUMP JUMPDEST PUSH32 0x5EFB2B1BC9AB38B99C0D1890686C22199E1733FF69509DF47751D6E759C35015 PUSH1 0x40 MLOAD PUSH2 0x167 SWAP1 PUSH2 0x48C JUMP JUMPDEST PUSH1 0x40 MLOAD DUP1 SWAP2 SUB SWAP1 LOG1 JUMP JUMPDEST PUSH4 0x4E487B71 PUSH1 0xE0 SHL PUSH1 0x0 MSTORE PUSH1 0x41 PUSH1 0x4 MSTORE PUSH1 0x24 PUSH1 0x0 REVERT JUMPDEST PUSH1 0x40 MLOAD PUSH1 0x20 DUP2 ADD PUSH8 0xFFFFFFFFFFFFFFFF DUP2 GT DUP3 DUP3 LT OR ISZERO PUSH2 0x1AA JUMPI PUSH2 0x1AA PUSH2 0x171 JUMP JUMPDEST PUSH1 0x40 MSTORE SWAP1 JUMP JUMPDEST PUSH1 0x40 MLOAD PUSH1 0x1F DUP3 ADD PUSH1 0x1F NOT AND DUP2 ADD PUSH8 0xFFFFFFFFFFFFFFFF DUP2 GT DUP3 DUP3 LT OR ISZERO PUSH2 0x1D9 JUMPI PUSH2 0x1D9 PUSH2 0x171 JUMP JUMPDEST PUSH1 0x40 MSTORE SWAP2 SWAP1 POP JUMP JUMPDEST PUSH1 0x0 PUSH1 0x20 DUP1 DUP4 DUP6 SUB SLT ISZERO PUSH2 0x1F4 JUMPI PUSH1 0x0 DUP1 REVERT JUMPDEST PUSH2 0x1FC PUSH2 0x187 JUMP JUMPDEST SWAP2 POP DUP3 CALLDATALOAD PUSH8 0xFFFFFFFFFFFFFFFF DUP1 DUP3 GT ISZERO PUSH2 0x216 JUMPI PUSH1 0x0 DUP1 REVERT JUMPDEST DUP2 DUP6 ADD SWAP2 POP DUP6 PUSH1 0x1F DUP4 ADD SLT PUSH2 0x22A JUMPI PUSH1 0x0 DUP1 REVERT JUMPDEST DUP2 CALLDATALOAD DUP2 DUP2 GT ISZERO PUSH2 0x23C JUMPI PUSH2 0x23C PUSH2 0x171 JUMP JUMPDEST DUP1 PUSH1 0x5 SHL SWAP2 POP PUSH2 0x24D DUP5 DUP4 ADD PUSH2 0x1B0 JUMP JUMPDEST DUP2 DUP2 MSTORE SWAP2 DUP4 ADD DUP5 ADD SWAP2 DUP5 DUP2 ADD SWAP1 DUP9 DUP5 GT ISZERO PUSH2 0x267 JUMPI PUSH1 0x0 DUP1 REVERT JUMPDEST SWAP4 DUP6 ADD SWAP4 JUMPDEST DUP4 DUP6 LT ISZERO PUSH2 0x296 JUMPI DUP5 CALLDATALOAD SWAP3 POP PUSH1 0x7 DUP4 LT PUSH2 0x286 JUMPI PUSH1 0x0 DUP1 DUP2 REVERT JUMPDEST DUP3 DUP3 MSTORE SWAP4 DUP6 ADD SWAP4 SWAP1 DUP6 ADD SWAP1 PUSH2 0x26C JUMP JUMPDEST DUP7 MSTORE POP SWAP4 SWAP7 SWAP6 POP POP POP POP POP POP JUMP JUMPDEST PUSH1 0x0 PUSH1 0x20 DUP3 DUP5 SUB SLT ISZERO PUSH2 0x2B6 JUMPI PUSH1 0x0 DUP1 REVERT JUMPDEST DUP2 CALLDATALOAD PUSH8 0xFFFFFFFFFFFFFFFF DUP2 GT ISZERO PUSH2 0x2CD JUMPI PUSH1 0x0 DUP1 REVERT JUMPDEST PUSH2 0x2D9 DUP5 DUP3 DUP6 ADD PUSH2 0x1E1 JUMP JUMPDEST SWAP5 SWAP4 POP POP POP POP JUMP JUMPDEST DUP1 CALLDATALOAD PUSH1 0xFF DUP2 AND DUP2 EQ PUSH2 0x2F2 JUMPI PUSH1 0x0 DUP1 REVERT JUMPDEST SWAP2 SWAP1 POP JUMP JUMPDEST PUSH1 0x0 PUSH1 0x20 DUP3 DUP5 SUB SLT ISZERO PUSH2 0x309 JUMPI PUSH1 0x0 DUP1 REVERT JUMPDEST PUSH2 0x312 DUP3 PUSH2 0x2E1 JUMP JUMPDEST SWAP4 SWAP3 POP POP POP JUMP JUMPDEST PUSH1 0x0 DUP1 PUSH1 0x40 DUP4 DUP6 SUB SLT ISZERO PUSH2 0x32C JUMPI PUSH1 0x0 DUP1 REVERT JUMPDEST PUSH2 0x335 DUP4 PUSH2 0x2E1 JUMP JUMPDEST SWAP2 POP PUSH1 0x20 DUP4 ADD CALLDATALOAD PUSH8 0xFFFFFFFFFFFFFFFF DUP2 GT ISZERO PUSH2 0x351 JUMPI PUSH1 0x0 DUP1 REVERT JUMPDEST PUSH2 0x35D DUP6 DUP3 DUP7 ADD PUSH2 0x1E1 JUMP JUMPDEST SWAP2 POP POP SWAP3 POP SWAP3 SWAP1 POP JUMP JUMPDEST DUP1 MLOAD PUSH1 0x20 DUP1 DUP5 MSTORE DUP2 MLOAD DUP5 DUP3 ADD DUP2 SWAP1 MSTORE PUSH1 0x0 SWAP3 DUP3 ADD SWAP1 DUP4 SWAP1 PUSH1 0x40 DUP8 ADD SWAP1 DUP3 JUMPDEST DUP2 DUP2 LT ISZERO PUSH2 0x3BD JUMPI DUP5 MLOAD PUSH1 0x7 DUP2 LT PUSH2 0x3AB JUMPI PUSH4 0x4E487B71 PUSH1 0xE0 SHL DUP6 MSTORE PUSH1 0x21 PUSH1 0x4 MSTORE PUSH1 0x24 DUP6 REVERT JUMPDEST DUP4 MSTORE SWAP4 DUP6 ADD SWAP4 SWAP2 DUP6 ADD SWAP2 PUSH1 0x1 ADD PUSH2 0x385 JUMP JUMPDEST POP SWAP1 SWAP8 SWAP7 POP POP POP POP POP POP POP JUMP JUMPDEST PUSH1 0x40 DUP2 MSTORE PUSH1 0x0 PUSH2 0x3F3 PUSH1 0x40 DUP4 ADD PUSH1 0x9 DUP2 MSTORE PUSH9 0x1A5B98DC995B595B9D PUSH1 0xBA SHL PUSH1 0x20 DUP3 ADD MSTORE PUSH1 0x40 ADD SWAP1 JUMP JUMPDEST DUP3 DUP2 SUB PUSH1 0x20 DUP5 ADD MSTORE PUSH2 0x2D9 DUP2 DUP6 PUSH2 0x367 JUMP JUMPDEST PUSH1 0x40 DUP2 MSTORE PUSH1 0x0 PUSH2 0x42E PUSH1 0x40 DUP4 ADD PUSH1 0x9 DUP2 MSTORE PUSH9 0x39B2BA273AB6B132B9 PUSH1 0xB9 SHL PUSH1 0x20 DUP3 ADD MSTORE PUSH1 0x40 ADD SWAP1 JUMP JUMPDEST SWAP1 POP PUSH1 0xFF DUP4 AND PUSH1 0x20 DUP4 ADD MSTORE SWAP3 SWAP2 POP POP JUMP JUMPDEST PUSH1 0x60 DUP2 MSTORE PUSH1 0x0 PUSH2 0x468 PUSH1 0x60 DUP4 ADD PUSH1 0x9 DUP2 MSTORE PUSH9 0x39B2BA273AB6B132B9 PUSH1 0xB9 SHL PUSH1 0x20 DUP3 ADD MSTORE PUSH1 0x40 ADD SWAP1 JUMP JUMPDEST PUSH1 0xFF DUP6 AND PUSH1 0x20 DUP5 ADD MSTORE DUP3 DUP2 SUB PUSH1 0x40 DUP5 ADD MSTORE PUSH2 0x483 DUP2 DUP6 PUSH2 0x367 JUMP JUMPDEST SWAP6 SWAP5 POP POP POP POP POP JUMP JUMPDEST PUSH1 0x20 DUP2 MSTORE PUSH1 0x0 PUSH2 0x4B5 PUSH1 0x20 DUP4 ADD PUSH1 0x9 DUP2 MSTORE PUSH9 0x1A5B98DC995B595B9D PUSH1 0xBA SHL PUSH1 0x20 DUP3 ADD MSTORE PUSH1 0x40 ADD SWAP1 JUMP JUMPDEST SWAP3 SWAP2 POP POP JUMP INVALID LOG2 PUSH5 0x6970667358 0x22 SLT KECCAK256 PUSH12 0xA260D6852B89BC40F40EDE6 SWAP2 0xD9 0xA5 0x49 0xAF BLOCKHASH SWAP1 CHAINID CODECOPY CALLER 0xEE OR 0xA5 0xD3 SMOD 0xCD ADD 0xAB 0xEA PUSH5 0x736F6C6343 STOP ADDMOD EQ STOP CALLER ",
          "linkReferences": {}
        },
        "methodIdentifiers": {
          "increment((uint8[]))": "0211b751",
          "increment()": "d09de08a",
          "setNumber(uint8)": "18559e19",
          "setNumber(uint8,(uint8[]))": "cabd6b49"
        },
        "gasEstimates": {
          "creation": {
            "codeDepositCost": "253000",
            "executionCost": "294",
            "totalCost": "253294"
          },
          "external": {
            "increment((uint8[]))": "infinite",
            "increment()": "1854",
            "setNumber(uint8)": "2249",
            "setNumber(uint8,(uint8[]))": "infinite"
          },
          "internal": {}
        }
      }
    }
  }
}