{
  "src/client/SphinxClient.sol": {
    "SphinxClient": {
      "abi": [
        {
          "inputs": [
            {
              "internalType": "address[]",
              "name": "_owners",
              "type": "address[]"
            },
            {
              "internalType": "uint256",
              "name": "_threshold",
              "type": "uint256"
            }
          ],
          "stateMutability": "nonpayable",
          "type": "constructor"
        },
        {
          "inputs": [
            {
              "internalType": "uint256",
              "name": "_myNumber",
              "type": "uint256"
            },
            {
              "internalType": "address",
              "name": "_myAddress",
              "type": "address"
            },
            {
              "components": [
                {
                  "internalType": "bytes32",
                  "name": "salt",
                  "type": "bytes32"
                },
                {
                  "internalType": "enum Network[]",
                  "name": "networks",
                  "type": "uint8[]"
                },
                {
                  "internalType": "string",
                  "name": "referenceName",
                  "type": "string"
                }
              ],
              "internalType": "struct DeployOptions",
              "name": "options",
              "type": "tuple"
            }
          ],
          "name": "HelloSphinx",
          "outputs": [
            {
              "internalType": "contract HelloSphinx",
              "name": "",
              "type": "address"
            }
          ],
          "stateMutability": "pure",
          "type": "function"
        }
      ],
      "userdoc": {},
      "devdoc": {},
      "storageLayout": {
        "storage": [
          {
            "astId": 90,
            "contract": "src/client/SphinxClient.sol:SphinxClient",
            "label": "owners",
            "offset": 0,
            "slot": "0",
            "type": "t_array(t_address)dyn_storage"
          },
          {
            "astId": 92,
            "contract": "src/client/SphinxClient.sol:SphinxClient",
            "label": "threshold",
            "offset": 0,
            "slot": "1",
            "type": "t_uint256"
          }
        ],
        "types": {
          "t_address": {
            "encoding": "inplace",
            "label": "address",
            "numberOfBytes": "20"
          },
          "t_array(t_address)dyn_storage": {
            "encoding": "dynamic_array",
            "label": "address[]",
            "numberOfBytes": "32",
            "base": "t_address"
          },
          "t_uint256": {
            "encoding": "inplace",
            "label": "uint256",
            "numberOfBytes": "32"
          }
        }
      },
      "evm": {
        "bytecode": {
          "object": "608060405234801561001057600080fd5b5060405161048638038061048683398101604081905261002f916100f8565b815161004290600090602085019061004c565b50600155506101c4565b8280548282559060005260206000209081019282156100a1579160200282015b828111156100a157825182546001600160a01b0319166001600160a01b0390911617825560209092019160019091019061006c565b506100ad9291506100b1565b5090565b5b808211156100ad57600081556001016100b2565b634e487b7160e01b600052604160045260246000fd5b80516001600160a01b03811681146100f357600080fd5b919050565b6000806040838503121561010b57600080fd5b82516001600160401b038082111561012257600080fd5b818501915085601f83011261013657600080fd5b815160208282111561014a5761014a6100c6565b8160051b604051601f19603f8301168101818110868211171561016f5761016f6100c6565b60405292835281830193508481018201928984111561018d57600080fd5b948201945b838610156101b2576101a3866100dc565b85529482019493820193610192565b97909101519698969750505050505050565b6102b3806101d36000396000f3fe608060405234801561001057600080fd5b506004361061002b5760003560e01c80630dbd987b14610030575b600080fd5b61004761003e366004610143565b60009392505050565b6040516001600160a01b03909116815260200160405180910390f35b634e487b7160e01b600052604160045260246000fd5b6040516060810167ffffffffffffffff8111828210171561009c5761009c610063565b60405290565b604051601f8201601f1916810167ffffffffffffffff811182821017156100cb576100cb610063565b604052919050565b600082601f8301126100e457600080fd5b813567ffffffffffffffff8111156100fe576100fe610063565b610111601f8201601f19166020016100a2565b81815284602083860101111561012657600080fd5b816020850160208301376000918101602001919091529392505050565b60008060006060848603121561015857600080fd5b833592506020808501356001600160a01b038116811461017757600080fd5b9250604085013567ffffffffffffffff8082111561019457600080fd5b90860190606082890312156101a857600080fd5b6101b0610079565b8235815283830135828111156101c557600080fd5b8301601f81018a136101d657600080fd5b8035838111156101e8576101e8610063565b8060051b6101f78782016100a2565b918252828101870191878101908d84111561021157600080fd5b938801935b838510156102405784359250600783106102305760008081fd5b8282529388019390880190610216565b80898701525050505050604083013593508184111561025e57600080fd5b61026a898585016100d3565b604082015280945050505050925092509256fea2646970667358221220a777b97c2948ee2d27820bd31d47a1db7b56a20d6c431b211e95adf58496c80364736f6c63430008140033",
          "opcodes": "PUSH1 0x80 PUSH1 0x40 MSTORE CALLVALUE DUP1 ISZERO PUSH2 0x10 JUMPI PUSH1 0x0 DUP1 REVERT JUMPDEST POP PUSH1 0x40 MLOAD PUSH2 0x486 CODESIZE SUB DUP1 PUSH2 0x486 DUP4 CODECOPY DUP2 ADD PUSH1 0x40 DUP2 SWAP1 MSTORE PUSH2 0x2F SWAP2 PUSH2 0xF8 JUMP JUMPDEST DUP2 MLOAD PUSH2 0x42 SWAP1 PUSH1 0x0 SWAP1 PUSH1 0x20 DUP6 ADD SWAP1 PUSH2 0x4C JUMP JUMPDEST POP PUSH1 0x1 SSTORE POP PUSH2 0x1C4 JUMP JUMPDEST DUP3 DUP1 SLOAD DUP3 DUP3 SSTORE SWAP1 PUSH1 0x0 MSTORE PUSH1 0x20 PUSH1 0x0 KECCAK256 SWAP1 DUP2 ADD SWAP3 DUP3 ISZERO PUSH2 0xA1 JUMPI SWAP2 PUSH1 0x20 MUL DUP3 ADD JUMPDEST DUP3 DUP2 GT ISZERO PUSH2 0xA1 JUMPI DUP3 MLOAD DUP3 SLOAD PUSH1 0x1 PUSH1 0x1 PUSH1 0xA0 SHL SUB NOT AND PUSH1 0x1 PUSH1 0x1 PUSH1 0xA0 SHL SUB SWAP1 SWAP2 AND OR DUP3 SSTORE PUSH1 0x20 SWAP1 SWAP3 ADD SWAP2 PUSH1 0x1 SWAP1 SWAP2 ADD SWAP1 PUSH2 0x6C JUMP JUMPDEST POP PUSH2 0xAD SWAP3 SWAP2 POP PUSH2 0xB1 JUMP JUMPDEST POP SWAP1 JUMP JUMPDEST JUMPDEST DUP1 DUP3 GT ISZERO PUSH2 0xAD JUMPI PUSH1 0x0 DUP2 SSTORE PUSH1 0x1 ADD PUSH2 0xB2 JUMP JUMPDEST PUSH4 0x4E487B71 PUSH1 0xE0 SHL PUSH1 0x0 MSTORE PUSH1 0x41 PUSH1 0x4 MSTORE PUSH1 0x24 PUSH1 0x0 REVERT JUMPDEST DUP1 MLOAD PUSH1 0x1 PUSH1 0x1 PUSH1 0xA0 SHL SUB DUP2 AND DUP2 EQ PUSH2 0xF3 JUMPI PUSH1 0x0 DUP1 REVERT JUMPDEST SWAP2 SWAP1 POP JUMP JUMPDEST PUSH1 0x0 DUP1 PUSH1 0x40 DUP4 DUP6 SUB SLT ISZERO PUSH2 0x10B JUMPI PUSH1 0x0 DUP1 REVERT JUMPDEST DUP3 MLOAD PUSH1 0x1 PUSH1 0x1 PUSH1 0x40 SHL SUB DUP1 DUP3 GT ISZERO PUSH2 0x122 JUMPI PUSH1 0x0 DUP1 REVERT JUMPDEST DUP2 DUP6 ADD SWAP2 POP DUP6 PUSH1 0x1F DUP4 ADD SLT PUSH2 0x136 JUMPI PUSH1 0x0 DUP1 REVERT JUMPDEST DUP2 MLOAD PUSH1 0x20 DUP3 DUP3 GT ISZERO PUSH2 0x14A JUMPI PUSH2 0x14A PUSH2 0xC6 JUMP JUMPDEST DUP2 PUSH1 0x5 SHL PUSH1 0x40 MLOAD PUSH1 0x1F NOT PUSH1 0x3F DUP4 ADD AND DUP2 ADD DUP2 DUP2 LT DUP7 DUP3 GT OR ISZERO PUSH2 0x16F JUMPI PUSH2 0x16F PUSH2 0xC6 JUMP JUMPDEST PUSH1 0x40 MSTORE SWAP3 DUP4 MSTORE DUP2 DUP4 ADD SWAP4 POP DUP5 DUP2 ADD DUP3 ADD SWAP3 DUP10 DUP5 GT ISZERO PUSH2 0x18D JUMPI PUSH1 0x0 DUP1 REVERT JUMPDEST SWAP5 DUP3 ADD SWAP5 JUMPDEST DUP4 DUP7 LT ISZERO PUSH2 0x1B2 JUMPI PUSH2 0x1A3 DUP7 PUSH2 0xDC JUMP JUMPDEST DUP6 MSTORE SWAP5 DUP3 ADD SWAP5 SWAP4 DUP3 ADD SWAP4 PUSH2 0x192 JUMP JUMPDEST SWAP8 SWAP1 SWAP2 ADD MLOAD SWAP7 SWAP9 SWAP7 SWAP8 POP POP POP POP POP POP POP JUMP JUMPDEST PUSH2 0x2B3 DUP1 PUSH2 0x1D3 PUSH1 0x0 CODECOPY PUSH1 0x0 RETURN INVALID PUSH1 0x80 PUSH1 0x40 MSTORE CALLVALUE DUP1 ISZERO PUSH2 0x10 JUMPI PUSH1 0x0 DUP1 REVERT JUMPDEST POP PUSH1 0x4 CALLDATASIZE LT PUSH2 0x2B JUMPI PUSH1 0x0 CALLDATALOAD PUSH1 0xE0 SHR DUP1 PUSH4 0xDBD987B EQ PUSH2 0x30 JUMPI JUMPDEST PUSH1 0x0 DUP1 REVERT JUMPDEST PUSH2 0x47 PUSH2 0x3E CALLDATASIZE PUSH1 0x4 PUSH2 0x143 JUMP JUMPDEST PUSH1 0x0 SWAP4 SWAP3 POP POP POP JUMP JUMPDEST PUSH1 0x40 MLOAD PUSH1 0x1 PUSH1 0x1 PUSH1 0xA0 SHL SUB SWAP1 SWAP2 AND DUP2 MSTORE PUSH1 0x20 ADD PUSH1 0x40 MLOAD DUP1 SWAP2 SUB SWAP1 RETURN JUMPDEST PUSH4 0x4E487B71 PUSH1 0xE0 SHL PUSH1 0x0 MSTORE PUSH1 0x41 PUSH1 0x4 MSTORE PUSH1 0x24 PUSH1 0x0 REVERT JUMPDEST PUSH1 0x40 MLOAD PUSH1 0x60 DUP2 ADD PUSH8 0xFFFFFFFFFFFFFFFF DUP2 GT DUP3 DUP3 LT OR ISZERO PUSH2 0x9C JUMPI PUSH2 0x9C PUSH2 0x63 JUMP JUMPDEST PUSH1 0x40 MSTORE SWAP1 JUMP JUMPDEST PUSH1 0x40 MLOAD PUSH1 0x1F DUP3 ADD PUSH1 0x1F NOT AND DUP2 ADD PUSH8 0xFFFFFFFFFFFFFFFF DUP2 GT DUP3 DUP3 LT OR ISZERO PUSH2 0xCB JUMPI PUSH2 0xCB PUSH2 0x63 JUMP JUMPDEST PUSH1 0x40 MSTORE SWAP2 SWAP1 POP JUMP JUMPDEST PUSH1 0x0 DUP3 PUSH1 0x1F DUP4 ADD SLT PUSH2 0xE4 JUMPI PUSH1 0x0 DUP1 REVERT JUMPDEST DUP2 CALLDATALOAD PUSH8 0xFFFFFFFFFFFFFFFF DUP2 GT ISZERO PUSH2 0xFE JUMPI PUSH2 0xFE PUSH2 0x63 JUMP JUMPDEST PUSH2 0x111 PUSH1 0x1F DUP3 ADD PUSH1 0x1F NOT AND PUSH1 0x20 ADD PUSH2 0xA2 JUMP JUMPDEST DUP2 DUP2 MSTORE DUP5 PUSH1 0x20 DUP4 DUP7 ADD ADD GT ISZERO PUSH2 0x126 JUMPI PUSH1 0x0 DUP1 REVERT JUMPDEST DUP2 PUSH1 0x20 DUP6 ADD PUSH1 0x20 DUP4 ADD CALLDATACOPY PUSH1 0x0 SWAP2 DUP2 ADD PUSH1 0x20 ADD SWAP2 SWAP1 SWAP2 MSTORE SWAP4 SWAP3 POP POP POP JUMP JUMPDEST PUSH1 0x0 DUP1 PUSH1 0x0 PUSH1 0x60 DUP5 DUP7 SUB SLT ISZERO PUSH2 0x158 JUMPI PUSH1 0x0 DUP1 REVERT JUMPDEST DUP4 CALLDATALOAD SWAP3 POP PUSH1 0x20 DUP1 DUP6 ADD CALLDATALOAD PUSH1 0x1 PUSH1 0x1 PUSH1 0xA0 SHL SUB DUP2 AND DUP2 EQ PUSH2 0x177 JUMPI PUSH1 0x0 DUP1 REVERT JUMPDEST SWAP3 POP PUSH1 0x40 DUP6 ADD CALLDATALOAD PUSH8 0xFFFFFFFFFFFFFFFF DUP1 DUP3 GT ISZERO PUSH2 0x194 JUMPI PUSH1 0x0 DUP1 REVERT JUMPDEST SWAP1 DUP7 ADD SWAP1 PUSH1 0x60 DUP3 DUP10 SUB SLT ISZERO PUSH2 0x1A8 JUMPI PUSH1 0x0 DUP1 REVERT JUMPDEST PUSH2 0x1B0 PUSH2 0x79 JUMP JUMPDEST DUP3 CALLDATALOAD DUP2 MSTORE DUP4 DUP4 ADD CALLDATALOAD DUP3 DUP2 GT ISZERO PUSH2 0x1C5 JUMPI PUSH1 0x0 DUP1 REVERT JUMPDEST DUP4 ADD PUSH1 0x1F DUP2 ADD DUP11 SGT PUSH2 0x1D6 JUMPI PUSH1 0x0 DUP1 REVERT JUMPDEST DUP1 CALLDATALOAD DUP4 DUP2 GT ISZERO PUSH2 0x1E8 JUMPI PUSH2 0x1E8 PUSH2 0x63 JUMP JUMPDEST DUP1 PUSH1 0x5 SHL PUSH2 0x1F7 DUP8 DUP3 ADD PUSH2 0xA2 JUMP JUMPDEST SWAP2 DUP3 MSTORE DUP3 DUP2 ADD DUP8 ADD SWAP2 DUP8 DUP2 ADD SWAP1 DUP14 DUP5 GT ISZERO PUSH2 0x211 JUMPI PUSH1 0x0 DUP1 REVERT JUMPDEST SWAP4 DUP9 ADD SWAP4 JUMPDEST DUP4 DUP6 LT ISZERO PUSH2 0x240 JUMPI DUP5 CALLDATALOAD SWAP3 POP PUSH1 0x7 DUP4 LT PUSH2 0x230 JUMPI PUSH1 0x0 DUP1 DUP2 REVERT JUMPDEST DUP3 DUP3 MSTORE SWAP4 DUP9 ADD SWAP4 SWAP1 DUP9 ADD SWAP1 PUSH2 0x216 JUMP JUMPDEST DUP1 DUP10 DUP8 ADD MSTORE POP POP POP POP POP PUSH1 0x40 DUP4 ADD CALLDATALOAD SWAP4 POP DUP2 DUP5 GT ISZERO PUSH2 0x25E JUMPI PUSH1 0x0 DUP1 REVERT JUMPDEST PUSH2 0x26A DUP10 DUP6 DUP6 ADD PUSH2 0xD3 JUMP JUMPDEST PUSH1 0x40 DUP3 ADD MSTORE DUP1 SWAP5 POP POP POP POP POP SWAP3 POP SWAP3 POP SWAP3 JUMP INVALID LOG2 PUSH5 0x6970667358 0x22 SLT KECCAK256 0xA7 PUSH24 0xB97C2948EE2D27820BD31D47A1DB7B56A20D6C431B211E95 0xAD CREATE2 DUP5 SWAP7 0xC8 SUB PUSH5 0x736F6C6343 STOP ADDMOD EQ STOP CALLER ",
          "linkReferences": {}
        },
        "methodIdentifiers": {
          "HelloSphinx(uint256,address,(bytes32,uint8[],string))": "0dbd987b"
        },
        "gasEstimates": {
          "creation": {
            "codeDepositCost": "138200",
            "executionCost": "infinite",
            "totalCost": "infinite"
          },
          "external": {
            "HelloSphinx(uint256,address,(bytes32,uint8[],string))": "infinite"
          },
          "internal": {}
        }
      }
    }
  }
}