{
  "src/client/SphinxUtils.sol": {
    "SphinxUtils": {
      "abi": [
        {
          "inputs": [
            {
              "internalType": "enum Network",
              "name": "a",
              "type": "uint8"
            },
            {
              "internalType": "enum Network",
              "name": "b",
              "type": "uint8"
            },
            {
              "internalType": "enum Network",
              "name": "c",
              "type": "uint8"
            },
            {
              "internalType": "enum Network",
              "name": "d",
              "type": "uint8"
            },
            {
              "internalType": "enum Network",
              "name": "e",
              "type": "uint8"
            },
            {
              "internalType": "enum Network",
              "name": "f",
              "type": "uint8"
            },
            {
              "internalType": "enum Network",
              "name": "g",
              "type": "uint8"
            },
            {
              "internalType": "enum Network",
              "name": "h",
              "type": "uint8"
            },
            {
              "internalType": "enum Network",
              "name": "i",
              "type": "uint8"
            },
            {
              "internalType": "enum Network",
              "name": "j",
              "type": "uint8"
            },
            {
              "internalType": "enum Network",
              "name": "k",
              "type": "uint8"
            }
          ],
          "name": "networks",
          "outputs": [
            {
              "internalType": "enum Network[]",
              "name": "arr",
              "type": "uint8[]"
            }
          ],
          "stateMutability": "pure",
          "type": "function"
        },
        {
          "inputs": [
            {
              "internalType": "enum Network",
              "name": "a",
              "type": "uint8"
            },
            {
              "internalType": "enum Network",
              "name": "b",
              "type": "uint8"
            }
          ],
          "name": "networks",
          "outputs": [
            {
              "internalType": "enum Network[]",
              "name": "arr",
              "type": "uint8[]"
            }
          ],
          "stateMutability": "pure",
          "type": "function"
        },
        {
          "inputs": [
            {
              "internalType": "enum Network",
              "name": "a",
              "type": "uint8"
            },
            {
              "internalType": "enum Network",
              "name": "b",
              "type": "uint8"
            },
            {
              "internalType": "enum Network",
              "name": "c",
              "type": "uint8"
            }
          ],
          "name": "networks",
          "outputs": [
            {
              "internalType": "enum Network[]",
              "name": "arr",
              "type": "uint8[]"
            }
          ],
          "stateMutability": "pure",
          "type": "function"
        },
        {
          "inputs": [
            {
              "internalType": "enum Network",
              "name": "a",
              "type": "uint8"
            },
            {
              "internalType": "enum Network",
              "name": "b",
              "type": "uint8"
            },
            {
              "internalType": "enum Network",
              "name": "c",
              "type": "uint8"
            },
            {
              "internalType": "enum Network",
              "name": "d",
              "type": "uint8"
            },
            {
              "internalType": "enum Network",
              "name": "e",
              "type": "uint8"
            },
            {
              "internalType": "enum Network",
              "name": "f",
              "type": "uint8"
            },
            {
              "internalType": "enum Network",
              "name": "g",
              "type": "uint8"
            }
          ],
          "name": "networks",
          "outputs": [
            {
              "internalType": "enum Network[]",
              "name": "arr",
              "type": "uint8[]"
            }
          ],
          "stateMutability": "pure",
          "type": "function"
        },
        {
          "inputs": [
            {
              "internalType": "enum Network",
              "name": "a",
              "type": "uint8"
            },
            {
              "internalType": "enum Network",
              "name": "b",
              "type": "uint8"
            },
            {
              "internalType": "enum Network",
              "name": "c",
              "type": "uint8"
            },
            {
              "internalType": "enum Network",
              "name": "d",
              "type": "uint8"
            },
            {
              "internalType": "enum Network",
              "name": "e",
              "type": "uint8"
            },
            {
              "internalType": "enum Network",
              "name": "f",
              "type": "uint8"
            },
            {
              "internalType": "enum Network",
              "name": "g",
              "type": "uint8"
            },
            {
              "internalType": "enum Network",
              "name": "h",
              "type": "uint8"
            },
            {
              "internalType": "enum Network",
              "name": "i",
              "type": "uint8"
            },
            {
              "internalType": "enum Network",
              "name": "j",
              "type": "uint8"
            },
            {
              "internalType": "enum Network",
              "name": "k",
              "type": "uint8"
            },
            {
              "internalType": "enum Network",
              "name": "l",
              "type": "uint8"
            }
          ],
          "name": "networks",
          "outputs": [
            {
              "internalType": "enum Network[]",
              "name": "arr",
              "type": "uint8[]"
            }
          ],
          "stateMutability": "pure",
          "type": "function"
        },
        {
          "inputs": [
            {
              "internalType": "enum Network",
              "name": "a",
              "type": "uint8"
            },
            {
              "internalType": "enum Network",
              "name": "b",
              "type": "uint8"
            },
            {
              "internalType": "enum Network",
              "name": "c",
              "type": "uint8"
            },
            {
              "internalType": "enum Network",
              "name": "d",
              "type": "uint8"
            },
            {
              "internalType": "enum Network",
              "name": "e",
              "type": "uint8"
            },
            {
              "internalType": "enum Network",
              "name": "f",
              "type": "uint8"
            }
          ],
          "name": "networks",
          "outputs": [
            {
              "internalType": "enum Network[]",
              "name": "arr",
              "type": "uint8[]"
            }
          ],
          "stateMutability": "pure",
          "type": "function"
        },
        {
          "inputs": [
            {
              "internalType": "enum Network",
              "name": "a",
              "type": "uint8"
            },
            {
              "internalType": "enum Network",
              "name": "b",
              "type": "uint8"
            },
            {
              "internalType": "enum Network",
              "name": "c",
              "type": "uint8"
            },
            {
              "internalType": "enum Network",
              "name": "d",
              "type": "uint8"
            },
            {
              "internalType": "enum Network",
              "name": "e",
              "type": "uint8"
            }
          ],
          "name": "networks",
          "outputs": [
            {
              "internalType": "enum Network[]",
              "name": "arr",
              "type": "uint8[]"
            }
          ],
          "stateMutability": "pure",
          "type": "function"
        },
        {
          "inputs": [
            {
              "internalType": "enum Network",
              "name": "a",
              "type": "uint8"
            }
          ],
          "name": "networks",
          "outputs": [
            {
              "internalType": "enum Network[]",
              "name": "arr",
              "type": "uint8[]"
            }
          ],
          "stateMutability": "pure",
          "type": "function"
        },
        {
          "inputs": [
            {
              "internalType": "enum Network",
              "name": "a",
              "type": "uint8"
            },
            {
              "internalType": "enum Network",
              "name": "b",
              "type": "uint8"
            },
            {
              "internalType": "enum Network",
              "name": "c",
              "type": "uint8"
            },
            {
              "internalType": "enum Network",
              "name": "d",
              "type": "uint8"
            },
            {
              "internalType": "enum Network",
              "name": "e",
              "type": "uint8"
            },
            {
              "internalType": "enum Network",
              "name": "f",
              "type": "uint8"
            },
            {
              "internalType": "enum Network",
              "name": "g",
              "type": "uint8"
            },
            {
              "internalType": "enum Network",
              "name": "h",
              "type": "uint8"
            }
          ],
          "name": "networks",
          "outputs": [
            {
              "internalType": "enum Network[]",
              "name": "arr",
              "type": "uint8[]"
            }
          ],
          "stateMutability": "pure",
          "type": "function"
        },
        {
          "inputs": [
            {
              "internalType": "enum Network",
              "name": "a",
              "type": "uint8"
            },
            {
              "internalType": "enum Network",
              "name": "b",
              "type": "uint8"
            },
            {
              "internalType": "enum Network",
              "name": "c",
              "type": "uint8"
            },
            {
              "internalType": "enum Network",
              "name": "d",
              "type": "uint8"
            },
            {
              "internalType": "enum Network",
              "name": "e",
              "type": "uint8"
            },
            {
              "internalType": "enum Network",
              "name": "f",
              "type": "uint8"
            },
            {
              "internalType": "enum Network",
              "name": "g",
              "type": "uint8"
            },
            {
              "internalType": "enum Network",
              "name": "h",
              "type": "uint8"
            },
            {
              "internalType": "enum Network",
              "name": "i",
              "type": "uint8"
            }
          ],
          "name": "networks",
          "outputs": [
            {
              "internalType": "enum Network[]",
              "name": "arr",
              "type": "uint8[]"
            }
          ],
          "stateMutability": "pure",
          "type": "function"
        },
        {
          "inputs": [
            {
              "internalType": "enum Network",
              "name": "a",
              "type": "uint8"
            },
            {
              "internalType": "enum Network",
              "name": "b",
              "type": "uint8"
            },
            {
              "internalType": "enum Network",
              "name": "c",
              "type": "uint8"
            },
            {
              "internalType": "enum Network",
              "name": "d",
              "type": "uint8"
            }
          ],
          "name": "networks",
          "outputs": [
            {
              "internalType": "enum Network[]",
              "name": "arr",
              "type": "uint8[]"
            }
          ],
          "stateMutability": "pure",
          "type": "function"
        },
        {
          "inputs": [
            {
              "internalType": "enum Network",
              "name": "a",
              "type": "uint8"
            },
            {
              "internalType": "enum Network",
              "name": "b",
              "type": "uint8"
            },
            {
              "internalType": "enum Network",
              "name": "c",
              "type": "uint8"
            },
            {
              "internalType": "enum Network",
              "name": "d",
              "type": "uint8"
            },
            {
              "internalType": "enum Network",
              "name": "e",
              "type": "uint8"
            },
            {
              "internalType": "enum Network",
              "name": "f",
              "type": "uint8"
            },
            {
              "internalType": "enum Network",
              "name": "g",
              "type": "uint8"
            },
            {
              "internalType": "enum Network",
              "name": "h",
              "type": "uint8"
            },
            {
              "internalType": "enum Network",
              "name": "i",
              "type": "uint8"
            },
            {
              "internalType": "enum Network",
              "name": "j",
              "type": "uint8"
            }
          ],
          "name": "networks",
          "outputs": [
            {
              "internalType": "enum Network[]",
              "name": "arr",
              "type": "uint8[]"
            }
          ],
          "stateMutability": "pure",
          "type": "function"
        }
      ],
      "userdoc": {},
      "devdoc": {},
      "evm": {
        "bytecode": {
          "object": "608060405234801561001057600080fd5b50611f37806100206000396000f3fe608060405234801561001057600080fd5b50600436106100b45760003560e01c806384ac1f551161007157806384ac1f55146101415780638a21e6391461015457806398b30823146101675780639eb993461461017a578063a1a293311461018d578063e91d3a29146101a057600080fd5b806332f4a348146100b957806338035d30146100e25780634698a9ef146100f55780634d0ec37714610108578063678028661461011b5780637803cd361461012e575b600080fd5b6100cc6100c7366004611887565b6101b3565b6040516100d99190611969565b60405180910390f35b6100cc6100f03660046119cb565b6104cf565b6100cc6101033660046119fe565b61057c565b6100cc610116366004611a41565b610670565b6100cc610129366004611ac7565b610878565b6100cc61013c366004611ba3565b610bd9565b6100cc61014f366004611c17565b610d9c565b6100cc610162366004611c7c565b610f1a565b6100cc610175366004611c9e565b610f84565b6100cc610188366004611d35565b6111d1565b6100cc61019b366004611ddd565b611463565b6100cc6101ae366004611e31565b61159c565b604080516003808252608082019092526060916020820183803683370190505090508b816000815181106101e9576101e9611eeb565b6020026020010190600681111561020257610202611953565b9081600681111561021557610215611953565b815250508a8160018151811061022d5761022d611eeb565b6020026020010190600681111561024657610246611953565b9081600681111561025957610259611953565b81525050898160028151811061027157610271611eeb565b6020026020010190600681111561028a5761028a611953565b9081600681111561029d5761029d611953565b8152505088816003815181106102b5576102b5611eeb565b602002602001019060068111156102ce576102ce611953565b908160068111156102e1576102e1611953565b8152505087816004815181106102f9576102f9611eeb565b6020026020010190600681111561031257610312611953565b9081600681111561032557610325611953565b81525050868160058151811061033d5761033d611eeb565b6020026020010190600681111561035657610356611953565b9081600681111561036957610369611953565b81525050858160068151811061038157610381611eeb565b6020026020010190600681111561039a5761039a611953565b908160068111156103ad576103ad611953565b8152505084816007815181106103c5576103c5611eeb565b602002602001019060068111156103de576103de611953565b908160068111156103f1576103f1611953565b81525050838160088151811061040957610409611eeb565b6020026020010190600681111561042257610422611953565b9081600681111561043557610435611953565b81525050828160098151811061044d5761044d611eeb565b6020026020010190600681111561046657610466611953565b9081600681111561047957610479611953565b815250508181600a8151811061049157610491611eeb565b602002602001019060068111156104aa576104aa611953565b908160068111156104bd576104bd611953565b9052509b9a5050505050505050505050565b6040805160028082526060808301845292602083019080368337019050509050828160008151811061050357610503611eeb565b6020026020010190600681111561051c5761051c611953565b9081600681111561052f5761052f611953565b81525050818160018151811061054757610547611eeb565b6020026020010190600681111561056057610560611953565b9081600681111561057357610573611953565b90525092915050565b6040805160038082526080820190925260609160208201838036833701905050905083816000815181106105b2576105b2611eeb565b602002602001019060068111156105cb576105cb611953565b908160068111156105de576105de611953565b8152505082816001815181106105f6576105f6611eeb565b6020026020010190600681111561060f5761060f611953565b9081600681111561062257610622611953565b81525050818160028151811061063a5761063a611eeb565b6020026020010190600681111561065357610653611953565b9081600681111561066657610666611953565b9052509392505050565b6040805160038082526080820190925260609160208201838036833701905050905087816000815181106106a6576106a6611eeb565b602002602001019060068111156106bf576106bf611953565b908160068111156106d2576106d2611953565b8152505086816001815181106106ea576106ea611eeb565b6020026020010190600681111561070357610703611953565b9081600681111561071657610716611953565b81525050858160028151811061072e5761072e611eeb565b6020026020010190600681111561074757610747611953565b9081600681111561075a5761075a611953565b81525050848160038151811061077257610772611eeb565b6020026020010190600681111561078b5761078b611953565b9081600681111561079e5761079e611953565b8152505083816004815181106107b6576107b6611eeb565b602002602001019060068111156107cf576107cf611953565b908160068111156107e2576107e2611953565b8152505082816005815181106107fa576107fa611eeb565b6020026020010190600681111561081357610813611953565b9081600681111561082657610826611953565b81525050818160068151811061083e5761083e611eeb565b6020026020010190600681111561085757610857611953565b9081600681111561086a5761086a611953565b905250979650505050505050565b604080516003808252608082019092526060916020820183803683370190505090508c816000815181106108ae576108ae611eeb565b602002602001019060068111156108c7576108c7611953565b908160068111156108da576108da611953565b815250508b816001815181106108f2576108f2611eeb565b6020026020010190600681111561090b5761090b611953565b9081600681111561091e5761091e611953565b815250508a8160028151811061093657610936611eeb565b6020026020010190600681111561094f5761094f611953565b9081600681111561096257610962611953565b81525050898160038151811061097a5761097a611eeb565b6020026020010190600681111561099357610993611953565b908160068111156109a6576109a6611953565b8152505088816004815181106109be576109be611eeb565b602002602001019060068111156109d7576109d7611953565b908160068111156109ea576109ea611953565b815250508781600581518110610a0257610a02611eeb565b60200260200101906006811115610a1b57610a1b611953565b90816006811115610a2e57610a2e611953565b815250508681600681518110610a4657610a46611eeb565b60200260200101906006811115610a5f57610a5f611953565b90816006811115610a7257610a72611953565b815250508581600781518110610a8a57610a8a611eeb565b60200260200101906006811115610aa357610aa3611953565b90816006811115610ab657610ab6611953565b815250508481600881518110610ace57610ace611eeb565b60200260200101906006811115610ae757610ae7611953565b90816006811115610afa57610afa611953565b815250508381600981518110610b1257610b12611eeb565b60200260200101906006811115610b2b57610b2b611953565b90816006811115610b3e57610b3e611953565b815250508281600a81518110610b5657610b56611eeb565b60200260200101906006811115610b6f57610b6f611953565b90816006811115610b8257610b82611953565b815250508181600b81518110610b9a57610b9a611eeb565b60200260200101906006811115610bb357610bb3611953565b90816006811115610bc657610bc6611953565b9052509c9b505050505050505050505050565b604080516003808252608082019092526060916020820183803683370190505090508681600081518110610c0f57610c0f611eeb565b60200260200101906006811115610c2857610c28611953565b90816006811115610c3b57610c3b611953565b815250508581600181518110610c5357610c53611eeb565b60200260200101906006811115610c6c57610c6c611953565b90816006811115610c7f57610c7f611953565b815250508481600281518110610c9757610c97611eeb565b60200260200101906006811115610cb057610cb0611953565b90816006811115610cc357610cc3611953565b815250508381600381518110610cdb57610cdb611eeb565b60200260200101906006811115610cf457610cf4611953565b90816006811115610d0757610d07611953565b815250508281600481518110610d1f57610d1f611eeb565b60200260200101906006811115610d3857610d38611953565b90816006811115610d4b57610d4b611953565b815250508181600581518110610d6357610d63611eeb565b60200260200101906006811115610d7c57610d7c611953565b90816006811115610d8f57610d8f611953565b9052509695505050505050565b604080516003808252608082019092526060916020820183803683370190505090508581600081518110610dd257610dd2611eeb565b60200260200101906006811115610deb57610deb611953565b90816006811115610dfe57610dfe611953565b815250508481600181518110610e1657610e16611eeb565b60200260200101906006811115610e2f57610e2f611953565b90816006811115610e4257610e42611953565b815250508381600281518110610e5a57610e5a611eeb565b60200260200101906006811115610e7357610e73611953565b90816006811115610e8657610e86611953565b815250508281600381518110610e9e57610e9e611eeb565b60200260200101906006811115610eb757610eb7611953565b90816006811115610eca57610eca611953565b815250508181600481518110610ee257610ee2611eeb565b60200260200101906006811115610efb57610efb611953565b90816006811115610f0e57610f0e611953565b90525095945050505050565b604080516001808252818301909252606091602080830190803683370190505090508181600081518110610f5057610f50611eeb565b60200260200101906006811115610f6957610f69611953565b90816006811115610f7c57610f7c611953565b905250919050565b604080516003808252608082019092526060916020820183803683370190505090508881600081518110610fba57610fba611eeb565b60200260200101906006811115610fd357610fd3611953565b90816006811115610fe657610fe6611953565b815250508781600181518110610ffe57610ffe611eeb565b6020026020010190600681111561101757611017611953565b9081600681111561102a5761102a611953565b81525050868160028151811061104257611042611eeb565b6020026020010190600681111561105b5761105b611953565b9081600681111561106e5761106e611953565b81525050858160038151811061108657611086611eeb565b6020026020010190600681111561109f5761109f611953565b908160068111156110b2576110b2611953565b8152505084816004815181106110ca576110ca611eeb565b602002602001019060068111156110e3576110e3611953565b908160068111156110f6576110f6611953565b81525050838160058151811061110e5761110e611eeb565b6020026020010190600681111561112757611127611953565b9081600681111561113a5761113a611953565b81525050828160068151811061115257611152611eeb565b6020026020010190600681111561116b5761116b611953565b9081600681111561117e5761117e611953565b81525050818160078151811061119657611196611eeb565b602002602001019060068111156111af576111af611953565b908160068111156111c2576111c2611953565b90525098975050505050505050565b60408051600380825260808201909252606091602082018380368337019050509050898160008151811061120757611207611eeb565b6020026020010190600681111561122057611220611953565b9081600681111561123357611233611953565b81525050888160018151811061124b5761124b611eeb565b6020026020010190600681111561126457611264611953565b9081600681111561127757611277611953565b81525050878160028151811061128f5761128f611eeb565b602002602001019060068111156112a8576112a8611953565b908160068111156112bb576112bb611953565b8152505086816003815181106112d3576112d3611eeb565b602002602001019060068111156112ec576112ec611953565b908160068111156112ff576112ff611953565b81525050858160048151811061131757611317611eeb565b6020026020010190600681111561133057611330611953565b9081600681111561134357611343611953565b81525050848160058151811061135b5761135b611eeb565b6020026020010190600681111561137457611374611953565b9081600681111561138757611387611953565b81525050838160068151811061139f5761139f611eeb565b602002602001019060068111156113b8576113b8611953565b908160068111156113cb576113cb611953565b8152505082816007815181106113e3576113e3611eeb565b602002602001019060068111156113fc576113fc611953565b9081600681111561140f5761140f611953565b81525050818160088151811061142757611427611eeb565b6020026020010190600681111561144057611440611953565b9081600681111561145357611453611953565b9052509998505050505050505050565b60408051600380825260808201909252606091602082018380368337019050509050848160008151811061149957611499611eeb565b602002602001019060068111156114b2576114b2611953565b908160068111156114c5576114c5611953565b8152505083816001815181106114dd576114dd611eeb565b602002602001019060068111156114f6576114f6611953565b9081600681111561150957611509611953565b81525050828160028151811061152157611521611eeb565b6020026020010190600681111561153a5761153a611953565b9081600681111561154d5761154d611953565b81525050818160038151811061156557611565611eeb565b6020026020010190600681111561157e5761157e611953565b9081600681111561159157611591611953565b905250949350505050565b604080516003808252608082019092526060916020820183803683370190505090508a816000815181106115d2576115d2611eeb565b602002602001019060068111156115eb576115eb611953565b908160068111156115fe576115fe611953565b81525050898160018151811061161657611616611eeb565b6020026020010190600681111561162f5761162f611953565b9081600681111561164257611642611953565b81525050888160028151811061165a5761165a611eeb565b6020026020010190600681111561167357611673611953565b9081600681111561168657611686611953565b81525050878160038151811061169e5761169e611eeb565b602002602001019060068111156116b7576116b7611953565b908160068111156116ca576116ca611953565b8152505086816004815181106116e2576116e2611eeb565b602002602001019060068111156116fb576116fb611953565b9081600681111561170e5761170e611953565b81525050858160058151811061172657611726611eeb565b6020026020010190600681111561173f5761173f611953565b9081600681111561175257611752611953565b81525050848160068151811061176a5761176a611eeb565b6020026020010190600681111561178357611783611953565b9081600681111561179657611796611953565b8152505083816007815181106117ae576117ae611eeb565b602002602001019060068111156117c7576117c7611953565b908160068111156117da576117da611953565b8152505082816008815181106117f2576117f2611eeb565b6020026020010190600681111561180b5761180b611953565b9081600681111561181e5761181e611953565b81525050818160098151811061183657611836611eeb565b6020026020010190600681111561184f5761184f611953565b9081600681111561186257611862611953565b9052509a9950505050505050505050565b80356007811061188257600080fd5b919050565b60008060008060008060008060008060006101608c8e0312156118a957600080fd5b6118b28c611873565b9a506118c060208d01611873565b99506118ce60408d01611873565b98506118dc60608d01611873565b97506118ea60808d01611873565b96506118f860a08d01611873565b955061190660c08d01611873565b945061191460e08d01611873565b93506119236101008d01611873565b92506119326101208d01611873565b91506119416101408d01611873565b90509295989b509295989b9093969950565b634e487b7160e01b600052602160045260246000fd5b602080825282518282018190526000919084820190604085019084805b828110156119be578451600781106119ac57634e487b7160e01b83526021600452602483fd5b84529385019392850192600101611986565b5091979650505050505050565b600080604083850312156119de57600080fd5b6119e783611873565b91506119f560208401611873565b90509250929050565b600080600060608486031215611a1357600080fd5b611a1c84611873565b9250611a2a60208501611873565b9150611a3860408501611873565b90509250925092565b600080600080600080600060e0888a031215611a5c57600080fd5b611a6588611873565b9650611a7360208901611873565b9550611a8160408901611873565b9450611a8f60608901611873565b9350611a9d60808901611873565b9250611aab60a08901611873565b9150611ab960c08901611873565b905092959891949750929550565b6000806000806000806000806000806000806101808d8f031215611aea57600080fd5b611af38d611873565b9b50611b0160208e01611873565b9a50611b0f60408e01611873565b9950611b1d60608e01611873565b9850611b2b60808e01611873565b9750611b3960a08e01611873565b9650611b4760c08e01611873565b9550611b5560e08e01611873565b9450611b646101008e01611873565b9350611b736101208e01611873565b9250611b826101408e01611873565b9150611b916101608e01611873565b90509295989b509295989b509295989b565b60008060008060008060c08789031215611bbc57600080fd5b611bc587611873565b9550611bd360208801611873565b9450611be160408801611873565b9350611bef60608801611873565b9250611bfd60808801611873565b9150611c0b60a08801611873565b90509295509295509295565b600080600080600060a08688031215611c2f57600080fd5b611c3886611873565b9450611c4660208701611873565b9350611c5460408701611873565b9250611c6260608701611873565b9150611c7060808701611873565b90509295509295909350565b600060208284031215611c8e57600080fd5b611c9782611873565b9392505050565b600080600080600080600080610100898b031215611cbb57600080fd5b611cc489611873565b9750611cd260208a01611873565b9650611ce060408a01611873565b9550611cee60608a01611873565b9450611cfc60808a01611873565b9350611d0a60a08a01611873565b9250611d1860c08a01611873565b9150611d2660e08a01611873565b90509295985092959890939650565b60008060008060008060008060006101208a8c031215611d5457600080fd5b611d5d8a611873565b9850611d6b60208b01611873565b9750611d7960408b01611873565b9650611d8760608b01611873565b9550611d9560808b01611873565b9450611da360a08b01611873565b9350611db160c08b01611873565b9250611dbf60e08b01611873565b9150611dce6101008b01611873565b90509295985092959850929598565b60008060008060808587031215611df357600080fd5b611dfc85611873565b9350611e0a60208601611873565b9250611e1860408601611873565b9150611e2660608601611873565b905092959194509250565b6000806000806000806000806000806101408b8d031215611e5157600080fd5b611e5a8b611873565b9950611e6860208c01611873565b9850611e7660408c01611873565b9750611e8460608c01611873565b9650611e9260808c01611873565b9550611ea060a08c01611873565b9450611eae60c08c01611873565b9350611ebc60e08c01611873565b9250611ecb6101008c01611873565b9150611eda6101208c01611873565b90509295989b9194979a5092959850565b634e487b7160e01b600052603260045260246000fdfea2646970667358221220212e001c190caa80de85cdce7cd08ed6535330c720233a518865c592ded94fa864736f6c63430008140033",
          "opcodes": "PUSH1 0x80 PUSH1 0x40 MSTORE CALLVALUE DUP1 ISZERO PUSH2 0x10 JUMPI PUSH1 0x0 DUP1 REVERT JUMPDEST POP PUSH2 0x1F37 DUP1 PUSH2 0x20 PUSH1 0x0 CODECOPY PUSH1 0x0 RETURN INVALID PUSH1 0x80 PUSH1 0x40 MSTORE CALLVALUE DUP1 ISZERO PUSH2 0x10 JUMPI PUSH1 0x0 DUP1 REVERT JUMPDEST POP PUSH1 0x4 CALLDATASIZE LT PUSH2 0xB4 JUMPI PUSH1 0x0 CALLDATALOAD PUSH1 0xE0 SHR DUP1 PUSH4 0x84AC1F55 GT PUSH2 0x71 JUMPI DUP1 PUSH4 0x84AC1F55 EQ PUSH2 0x141 JUMPI DUP1 PUSH4 0x8A21E639 EQ PUSH2 0x154 JUMPI DUP1 PUSH4 0x98B30823 EQ PUSH2 0x167 JUMPI DUP1 PUSH4 0x9EB99346 EQ PUSH2 0x17A JUMPI DUP1 PUSH4 0xA1A29331 EQ PUSH2 0x18D JUMPI DUP1 PUSH4 0xE91D3A29 EQ PUSH2 0x1A0 JUMPI PUSH1 0x0 DUP1 REVERT JUMPDEST DUP1 PUSH4 0x32F4A348 EQ PUSH2 0xB9 JUMPI DUP1 PUSH4 0x38035D30 EQ PUSH2 0xE2 JUMPI DUP1 PUSH4 0x4698A9EF EQ PUSH2 0xF5 JUMPI DUP1 PUSH4 0x4D0EC377 EQ PUSH2 0x108 JUMPI DUP1 PUSH4 0x67802866 EQ PUSH2 0x11B JUMPI DUP1 PUSH4 0x7803CD36 EQ PUSH2 0x12E JUMPI JUMPDEST PUSH1 0x0 DUP1 REVERT JUMPDEST PUSH2 0xCC PUSH2 0xC7 CALLDATASIZE PUSH1 0x4 PUSH2 0x1887 JUMP JUMPDEST PUSH2 0x1B3 JUMP JUMPDEST PUSH1 0x40 MLOAD PUSH2 0xD9 SWAP2 SWAP1 PUSH2 0x1969 JUMP JUMPDEST PUSH1 0x40 MLOAD DUP1 SWAP2 SUB SWAP1 RETURN JUMPDEST PUSH2 0xCC PUSH2 0xF0 CALLDATASIZE PUSH1 0x4 PUSH2 0x19CB JUMP JUMPDEST PUSH2 0x4CF JUMP JUMPDEST PUSH2 0xCC PUSH2 0x103 CALLDATASIZE PUSH1 0x4 PUSH2 0x19FE JUMP JUMPDEST PUSH2 0x57C JUMP JUMPDEST PUSH2 0xCC PUSH2 0x116 CALLDATASIZE PUSH1 0x4 PUSH2 0x1A41 JUMP JUMPDEST PUSH2 0x670 JUMP JUMPDEST PUSH2 0xCC PUSH2 0x129 CALLDATASIZE PUSH1 0x4 PUSH2 0x1AC7 JUMP JUMPDEST PUSH2 0x878 JUMP JUMPDEST PUSH2 0xCC PUSH2 0x13C CALLDATASIZE PUSH1 0x4 PUSH2 0x1BA3 JUMP JUMPDEST PUSH2 0xBD9 JUMP JUMPDEST PUSH2 0xCC PUSH2 0x14F CALLDATASIZE PUSH1 0x4 PUSH2 0x1C17 JUMP JUMPDEST PUSH2 0xD9C JUMP JUMPDEST PUSH2 0xCC PUSH2 0x162 CALLDATASIZE PUSH1 0x4 PUSH2 0x1C7C JUMP JUMPDEST PUSH2 0xF1A JUMP JUMPDEST PUSH2 0xCC PUSH2 0x175 CALLDATASIZE PUSH1 0x4 PUSH2 0x1C9E JUMP JUMPDEST PUSH2 0xF84 JUMP JUMPDEST PUSH2 0xCC PUSH2 0x188 CALLDATASIZE PUSH1 0x4 PUSH2 0x1D35 JUMP JUMPDEST PUSH2 0x11D1 JUMP JUMPDEST PUSH2 0xCC PUSH2 0x19B CALLDATASIZE PUSH1 0x4 PUSH2 0x1DDD JUMP JUMPDEST PUSH2 0x1463 JUMP JUMPDEST PUSH2 0xCC PUSH2 0x1AE CALLDATASIZE PUSH1 0x4 PUSH2 0x1E31 JUMP JUMPDEST PUSH2 0x159C JUMP JUMPDEST PUSH1 0x40 DUP1 MLOAD PUSH1 0x3 DUP1 DUP3 MSTORE PUSH1 0x80 DUP3 ADD SWAP1 SWAP3 MSTORE PUSH1 0x60 SWAP2 PUSH1 0x20 DUP3 ADD DUP4 DUP1 CALLDATASIZE DUP4 CALLDATACOPY ADD SWAP1 POP POP SWAP1 POP DUP12 DUP2 PUSH1 0x0 DUP2 MLOAD DUP2 LT PUSH2 0x1E9 JUMPI PUSH2 0x1E9 PUSH2 0x1EEB JUMP JUMPDEST PUSH1 0x20 MUL PUSH1 0x20 ADD ADD SWAP1 PUSH1 0x6 DUP2 GT ISZERO PUSH2 0x202 JUMPI PUSH2 0x202 PUSH2 0x1953 JUMP JUMPDEST SWAP1 DUP2 PUSH1 0x6 DUP2 GT ISZERO PUSH2 0x215 JUMPI PUSH2 0x215 PUSH2 0x1953 JUMP JUMPDEST DUP2 MSTORE POP POP DUP11 DUP2 PUSH1 0x1 DUP2 MLOAD DUP2 LT PUSH2 0x22D JUMPI PUSH2 0x22D PUSH2 0x1EEB JUMP JUMPDEST PUSH1 0x20 MUL PUSH1 0x20 ADD ADD SWAP1 PUSH1 0x6 DUP2 GT ISZERO PUSH2 0x246 JUMPI PUSH2 0x246 PUSH2 0x1953 JUMP JUMPDEST SWAP1 DUP2 PUSH1 0x6 DUP2 GT ISZERO PUSH2 0x259 JUMPI PUSH2 0x259 PUSH2 0x1953 JUMP JUMPDEST DUP2 MSTORE POP POP DUP10 DUP2 PUSH1 0x2 DUP2 MLOAD DUP2 LT PUSH2 0x271 JUMPI PUSH2 0x271 PUSH2 0x1EEB JUMP JUMPDEST PUSH1 0x20 MUL PUSH1 0x20 ADD ADD SWAP1 PUSH1 0x6 DUP2 GT ISZERO PUSH2 0x28A JUMPI PUSH2 0x28A PUSH2 0x1953 JUMP JUMPDEST SWAP1 DUP2 PUSH1 0x6 DUP2 GT ISZERO PUSH2 0x29D JUMPI PUSH2 0x29D PUSH2 0x1953 JUMP JUMPDEST DUP2 MSTORE POP POP DUP9 DUP2 PUSH1 0x3 DUP2 MLOAD DUP2 LT PUSH2 0x2B5 JUMPI PUSH2 0x2B5 PUSH2 0x1EEB JUMP JUMPDEST PUSH1 0x20 MUL PUSH1 0x20 ADD ADD SWAP1 PUSH1 0x6 DUP2 GT ISZERO PUSH2 0x2CE JUMPI PUSH2 0x2CE PUSH2 0x1953 JUMP JUMPDEST SWAP1 DUP2 PUSH1 0x6 DUP2 GT ISZERO PUSH2 0x2E1 JUMPI PUSH2 0x2E1 PUSH2 0x1953 JUMP JUMPDEST DUP2 MSTORE POP POP DUP8 DUP2 PUSH1 0x4 DUP2 MLOAD DUP2 LT PUSH2 0x2F9 JUMPI PUSH2 0x2F9 PUSH2 0x1EEB JUMP JUMPDEST PUSH1 0x20 MUL PUSH1 0x20 ADD ADD SWAP1 PUSH1 0x6 DUP2 GT ISZERO PUSH2 0x312 JUMPI PUSH2 0x312 PUSH2 0x1953 JUMP JUMPDEST SWAP1 DUP2 PUSH1 0x6 DUP2 GT ISZERO PUSH2 0x325 JUMPI PUSH2 0x325 PUSH2 0x1953 JUMP JUMPDEST DUP2 MSTORE POP POP DUP7 DUP2 PUSH1 0x5 DUP2 MLOAD DUP2 LT PUSH2 0x33D JUMPI PUSH2 0x33D PUSH2 0x1EEB JUMP JUMPDEST PUSH1 0x20 MUL PUSH1 0x20 ADD ADD SWAP1 PUSH1 0x6 DUP2 GT ISZERO PUSH2 0x356 JUMPI PUSH2 0x356 PUSH2 0x1953 JUMP JUMPDEST SWAP1 DUP2 PUSH1 0x6 DUP2 GT ISZERO PUSH2 0x369 JUMPI PUSH2 0x369 PUSH2 0x1953 JUMP JUMPDEST DUP2 MSTORE POP POP DUP6 DUP2 PUSH1 0x6 DUP2 MLOAD DUP2 LT PUSH2 0x381 JUMPI PUSH2 0x381 PUSH2 0x1EEB JUMP JUMPDEST PUSH1 0x20 MUL PUSH1 0x20 ADD ADD SWAP1 PUSH1 0x6 DUP2 GT ISZERO PUSH2 0x39A JUMPI PUSH2 0x39A PUSH2 0x1953 JUMP JUMPDEST SWAP1 DUP2 PUSH1 0x6 DUP2 GT ISZERO PUSH2 0x3AD JUMPI PUSH2 0x3AD PUSH2 0x1953 JUMP JUMPDEST DUP2 MSTORE POP POP DUP5 DUP2 PUSH1 0x7 DUP2 MLOAD DUP2 LT PUSH2 0x3C5 JUMPI PUSH2 0x3C5 PUSH2 0x1EEB JUMP JUMPDEST PUSH1 0x20 MUL PUSH1 0x20 ADD ADD SWAP1 PUSH1 0x6 DUP2 GT ISZERO PUSH2 0x3DE JUMPI PUSH2 0x3DE PUSH2 0x1953 JUMP JUMPDEST SWAP1 DUP2 PUSH1 0x6 DUP2 GT ISZERO PUSH2 0x3F1 JUMPI PUSH2 0x3F1 PUSH2 0x1953 JUMP JUMPDEST DUP2 MSTORE POP POP DUP4 DUP2 PUSH1 0x8 DUP2 MLOAD DUP2 LT PUSH2 0x409 JUMPI PUSH2 0x409 PUSH2 0x1EEB JUMP JUMPDEST PUSH1 0x20 MUL PUSH1 0x20 ADD ADD SWAP1 PUSH1 0x6 DUP2 GT ISZERO PUSH2 0x422 JUMPI PUSH2 0x422 PUSH2 0x1953 JUMP JUMPDEST SWAP1 DUP2 PUSH1 0x6 DUP2 GT ISZERO PUSH2 0x435 JUMPI PUSH2 0x435 PUSH2 0x1953 JUMP JUMPDEST DUP2 MSTORE POP POP DUP3 DUP2 PUSH1 0x9 DUP2 MLOAD DUP2 LT PUSH2 0x44D JUMPI PUSH2 0x44D PUSH2 0x1EEB JUMP JUMPDEST PUSH1 0x20 MUL PUSH1 0x20 ADD ADD SWAP1 PUSH1 0x6 DUP2 GT ISZERO PUSH2 0x466 JUMPI PUSH2 0x466 PUSH2 0x1953 JUMP JUMPDEST SWAP1 DUP2 PUSH1 0x6 DUP2 GT ISZERO PUSH2 0x479 JUMPI PUSH2 0x479 PUSH2 0x1953 JUMP JUMPDEST DUP2 MSTORE POP POP DUP2 DUP2 PUSH1 0xA DUP2 MLOAD DUP2 LT PUSH2 0x491 JUMPI PUSH2 0x491 PUSH2 0x1EEB JUMP JUMPDEST PUSH1 0x20 MUL PUSH1 0x20 ADD ADD SWAP1 PUSH1 0x6 DUP2 GT ISZERO PUSH2 0x4AA JUMPI PUSH2 0x4AA PUSH2 0x1953 JUMP JUMPDEST SWAP1 DUP2 PUSH1 0x6 DUP2 GT ISZERO PUSH2 0x4BD JUMPI PUSH2 0x4BD PUSH2 0x1953 JUMP JUMPDEST SWAP1 MSTORE POP SWAP12 SWAP11 POP POP POP POP POP POP POP POP POP POP POP JUMP JUMPDEST PUSH1 0x40 DUP1 MLOAD PUSH1 0x2 DUP1 DUP3 MSTORE PUSH1 0x60 DUP1 DUP4 ADD DUP5 MSTORE SWAP3 PUSH1 0x20 DUP4 ADD SWAP1 DUP1 CALLDATASIZE DUP4 CALLDATACOPY ADD SWAP1 POP POP SWAP1 POP DUP3 DUP2 PUSH1 0x0 DUP2 MLOAD DUP2 LT PUSH2 0x503 JUMPI PUSH2 0x503 PUSH2 0x1EEB JUMP JUMPDEST PUSH1 0x20 MUL PUSH1 0x20 ADD ADD SWAP1 PUSH1 0x6 DUP2 GT ISZERO PUSH2 0x51C JUMPI PUSH2 0x51C PUSH2 0x1953 JUMP JUMPDEST SWAP1 DUP2 PUSH1 0x6 DUP2 GT ISZERO PUSH2 0x52F JUMPI PUSH2 0x52F PUSH2 0x1953 JUMP JUMPDEST DUP2 MSTORE POP POP DUP2 DUP2 PUSH1 0x1 DUP2 MLOAD DUP2 LT PUSH2 0x547 JUMPI PUSH2 0x547 PUSH2 0x1EEB JUMP JUMPDEST PUSH1 0x20 MUL PUSH1 0x20 ADD ADD SWAP1 PUSH1 0x6 DUP2 GT ISZERO PUSH2 0x560 JUMPI PUSH2 0x560 PUSH2 0x1953 JUMP JUMPDEST SWAP1 DUP2 PUSH1 0x6 DUP2 GT ISZERO PUSH2 0x573 JUMPI PUSH2 0x573 PUSH2 0x1953 JUMP JUMPDEST SWAP1 MSTORE POP SWAP3 SWAP2 POP POP JUMP JUMPDEST PUSH1 0x40 DUP1 MLOAD PUSH1 0x3 DUP1 DUP3 MSTORE PUSH1 0x80 DUP3 ADD SWAP1 SWAP3 MSTORE PUSH1 0x60 SWAP2 PUSH1 0x20 DUP3 ADD DUP4 DUP1 CALLDATASIZE DUP4 CALLDATACOPY ADD SWAP1 POP POP SWAP1 POP DUP4 DUP2 PUSH1 0x0 DUP2 MLOAD DUP2 LT PUSH2 0x5B2 JUMPI PUSH2 0x5B2 PUSH2 0x1EEB JUMP JUMPDEST PUSH1 0x20 MUL PUSH1 0x20 ADD ADD SWAP1 PUSH1 0x6 DUP2 GT ISZERO PUSH2 0x5CB JUMPI PUSH2 0x5CB PUSH2 0x1953 JUMP JUMPDEST SWAP1 DUP2 PUSH1 0x6 DUP2 GT ISZERO PUSH2 0x5DE JUMPI PUSH2 0x5DE PUSH2 0x1953 JUMP JUMPDEST DUP2 MSTORE POP POP DUP3 DUP2 PUSH1 0x1 DUP2 MLOAD DUP2 LT PUSH2 0x5F6 JUMPI PUSH2 0x5F6 PUSH2 0x1EEB JUMP JUMPDEST PUSH1 0x20 MUL PUSH1 0x20 ADD ADD SWAP1 PUSH1 0x6 DUP2 GT ISZERO PUSH2 0x60F JUMPI PUSH2 0x60F PUSH2 0x1953 JUMP JUMPDEST SWAP1 DUP2 PUSH1 0x6 DUP2 GT ISZERO PUSH2 0x622 JUMPI PUSH2 0x622 PUSH2 0x1953 JUMP JUMPDEST DUP2 MSTORE POP POP DUP2 DUP2 PUSH1 0x2 DUP2 MLOAD DUP2 LT PUSH2 0x63A JUMPI PUSH2 0x63A PUSH2 0x1EEB JUMP JUMPDEST PUSH1 0x20 MUL PUSH1 0x20 ADD ADD SWAP1 PUSH1 0x6 DUP2 GT ISZERO PUSH2 0x653 JUMPI PUSH2 0x653 PUSH2 0x1953 JUMP JUMPDEST SWAP1 DUP2 PUSH1 0x6 DUP2 GT ISZERO PUSH2 0x666 JUMPI PUSH2 0x666 PUSH2 0x1953 JUMP JUMPDEST SWAP1 MSTORE POP SWAP4 SWAP3 POP POP POP JUMP JUMPDEST PUSH1 0x40 DUP1 MLOAD PUSH1 0x3 DUP1 DUP3 MSTORE PUSH1 0x80 DUP3 ADD SWAP1 SWAP3 MSTORE PUSH1 0x60 SWAP2 PUSH1 0x20 DUP3 ADD DUP4 DUP1 CALLDATASIZE DUP4 CALLDATACOPY ADD SWAP1 POP POP SWAP1 POP DUP8 DUP2 PUSH1 0x0 DUP2 MLOAD DUP2 LT PUSH2 0x6A6 JUMPI PUSH2 0x6A6 PUSH2 0x1EEB JUMP JUMPDEST PUSH1 0x20 MUL PUSH1 0x20 ADD ADD SWAP1 PUSH1 0x6 DUP2 GT ISZERO PUSH2 0x6BF JUMPI PUSH2 0x6BF PUSH2 0x1953 JUMP JUMPDEST SWAP1 DUP2 PUSH1 0x6 DUP2 GT ISZERO PUSH2 0x6D2 JUMPI PUSH2 0x6D2 PUSH2 0x1953 JUMP JUMPDEST DUP2 MSTORE POP POP DUP7 DUP2 PUSH1 0x1 DUP2 MLOAD DUP2 LT PUSH2 0x6EA JUMPI PUSH2 0x6EA PUSH2 0x1EEB JUMP JUMPDEST PUSH1 0x20 MUL PUSH1 0x20 ADD ADD SWAP1 PUSH1 0x6 DUP2 GT ISZERO PUSH2 0x703 JUMPI PUSH2 0x703 PUSH2 0x1953 JUMP JUMPDEST SWAP1 DUP2 PUSH1 0x6 DUP2 GT ISZERO PUSH2 0x716 JUMPI PUSH2 0x716 PUSH2 0x1953 JUMP JUMPDEST DUP2 MSTORE POP POP DUP6 DUP2 PUSH1 0x2 DUP2 MLOAD DUP2 LT PUSH2 0x72E JUMPI PUSH2 0x72E PUSH2 0x1EEB JUMP JUMPDEST PUSH1 0x20 MUL PUSH1 0x20 ADD ADD SWAP1 PUSH1 0x6 DUP2 GT ISZERO PUSH2 0x747 JUMPI PUSH2 0x747 PUSH2 0x1953 JUMP JUMPDEST SWAP1 DUP2 PUSH1 0x6 DUP2 GT ISZERO PUSH2 0x75A JUMPI PUSH2 0x75A PUSH2 0x1953 JUMP JUMPDEST DUP2 MSTORE POP POP DUP5 DUP2 PUSH1 0x3 DUP2 MLOAD DUP2 LT PUSH2 0x772 JUMPI PUSH2 0x772 PUSH2 0x1EEB JUMP JUMPDEST PUSH1 0x20 MUL PUSH1 0x20 ADD ADD SWAP1 PUSH1 0x6 DUP2 GT ISZERO PUSH2 0x78B JUMPI PUSH2 0x78B PUSH2 0x1953 JUMP JUMPDEST SWAP1 DUP2 PUSH1 0x6 DUP2 GT ISZERO PUSH2 0x79E JUMPI PUSH2 0x79E PUSH2 0x1953 JUMP JUMPDEST DUP2 MSTORE POP POP DUP4 DUP2 PUSH1 0x4 DUP2 MLOAD DUP2 LT PUSH2 0x7B6 JUMPI PUSH2 0x7B6 PUSH2 0x1EEB JUMP JUMPDEST PUSH1 0x20 MUL PUSH1 0x20 ADD ADD SWAP1 PUSH1 0x6 DUP2 GT ISZERO PUSH2 0x7CF JUMPI PUSH2 0x7CF PUSH2 0x1953 JUMP JUMPDEST SWAP1 DUP2 PUSH1 0x6 DUP2 GT ISZERO PUSH2 0x7E2 JUMPI PUSH2 0x7E2 PUSH2 0x1953 JUMP JUMPDEST DUP2 MSTORE POP POP DUP3 DUP2 PUSH1 0x5 DUP2 MLOAD DUP2 LT PUSH2 0x7FA JUMPI PUSH2 0x7FA PUSH2 0x1EEB JUMP JUMPDEST PUSH1 0x20 MUL PUSH1 0x20 ADD ADD SWAP1 PUSH1 0x6 DUP2 GT ISZERO PUSH2 0x813 JUMPI PUSH2 0x813 PUSH2 0x1953 JUMP JUMPDEST SWAP1 DUP2 PUSH1 0x6 DUP2 GT ISZERO PUSH2 0x826 JUMPI PUSH2 0x826 PUSH2 0x1953 JUMP JUMPDEST DUP2 MSTORE POP POP DUP2 DUP2 PUSH1 0x6 DUP2 MLOAD DUP2 LT PUSH2 0x83E JUMPI PUSH2 0x83E PUSH2 0x1EEB JUMP JUMPDEST PUSH1 0x20 MUL PUSH1 0x20 ADD ADD SWAP1 PUSH1 0x6 DUP2 GT ISZERO PUSH2 0x857 JUMPI PUSH2 0x857 PUSH2 0x1953 JUMP JUMPDEST SWAP1 DUP2 PUSH1 0x6 DUP2 GT ISZERO PUSH2 0x86A JUMPI PUSH2 0x86A PUSH2 0x1953 JUMP JUMPDEST SWAP1 MSTORE POP SWAP8 SWAP7 POP POP POP POP POP POP POP JUMP JUMPDEST PUSH1 0x40 DUP1 MLOAD PUSH1 0x3 DUP1 DUP3 MSTORE PUSH1 0x80 DUP3 ADD SWAP1 SWAP3 MSTORE PUSH1 0x60 SWAP2 PUSH1 0x20 DUP3 ADD DUP4 DUP1 CALLDATASIZE DUP4 CALLDATACOPY ADD SWAP1 POP POP SWAP1 POP DUP13 DUP2 PUSH1 0x0 DUP2 MLOAD DUP2 LT PUSH2 0x8AE JUMPI PUSH2 0x8AE PUSH2 0x1EEB JUMP JUMPDEST PUSH1 0x20 MUL PUSH1 0x20 ADD ADD SWAP1 PUSH1 0x6 DUP2 GT ISZERO PUSH2 0x8C7 JUMPI PUSH2 0x8C7 PUSH2 0x1953 JUMP JUMPDEST SWAP1 DUP2 PUSH1 0x6 DUP2 GT ISZERO PUSH2 0x8DA JUMPI PUSH2 0x8DA PUSH2 0x1953 JUMP JUMPDEST DUP2 MSTORE POP POP DUP12 DUP2 PUSH1 0x1 DUP2 MLOAD DUP2 LT PUSH2 0x8F2 JUMPI PUSH2 0x8F2 PUSH2 0x1EEB JUMP JUMPDEST PUSH1 0x20 MUL PUSH1 0x20 ADD ADD SWAP1 PUSH1 0x6 DUP2 GT ISZERO PUSH2 0x90B JUMPI PUSH2 0x90B PUSH2 0x1953 JUMP JUMPDEST SWAP1 DUP2 PUSH1 0x6 DUP2 GT ISZERO PUSH2 0x91E JUMPI PUSH2 0x91E PUSH2 0x1953 JUMP JUMPDEST DUP2 MSTORE POP POP DUP11 DUP2 PUSH1 0x2 DUP2 MLOAD DUP2 LT PUSH2 0x936 JUMPI PUSH2 0x936 PUSH2 0x1EEB JUMP JUMPDEST PUSH1 0x20 MUL PUSH1 0x20 ADD ADD SWAP1 PUSH1 0x6 DUP2 GT ISZERO PUSH2 0x94F JUMPI PUSH2 0x94F PUSH2 0x1953 JUMP JUMPDEST SWAP1 DUP2 PUSH1 0x6 DUP2 GT ISZERO PUSH2 0x962 JUMPI PUSH2 0x962 PUSH2 0x1953 JUMP JUMPDEST DUP2 MSTORE POP POP DUP10 DUP2 PUSH1 0x3 DUP2 MLOAD DUP2 LT PUSH2 0x97A JUMPI PUSH2 0x97A PUSH2 0x1EEB JUMP JUMPDEST PUSH1 0x20 MUL PUSH1 0x20 ADD ADD SWAP1 PUSH1 0x6 DUP2 GT ISZERO PUSH2 0x993 JUMPI PUSH2 0x993 PUSH2 0x1953 JUMP JUMPDEST SWAP1 DUP2 PUSH1 0x6 DUP2 GT ISZERO PUSH2 0x9A6 JUMPI PUSH2 0x9A6 PUSH2 0x1953 JUMP JUMPDEST DUP2 MSTORE POP POP DUP9 DUP2 PUSH1 0x4 DUP2 MLOAD DUP2 LT PUSH2 0x9BE JUMPI PUSH2 0x9BE PUSH2 0x1EEB JUMP JUMPDEST PUSH1 0x20 MUL PUSH1 0x20 ADD ADD SWAP1 PUSH1 0x6 DUP2 GT ISZERO PUSH2 0x9D7 JUMPI PUSH2 0x9D7 PUSH2 0x1953 JUMP JUMPDEST SWAP1 DUP2 PUSH1 0x6 DUP2 GT ISZERO PUSH2 0x9EA JUMPI PUSH2 0x9EA PUSH2 0x1953 JUMP JUMPDEST DUP2 MSTORE POP POP DUP8 DUP2 PUSH1 0x5 DUP2 MLOAD DUP2 LT PUSH2 0xA02 JUMPI PUSH2 0xA02 PUSH2 0x1EEB JUMP JUMPDEST PUSH1 0x20 MUL PUSH1 0x20 ADD ADD SWAP1 PUSH1 0x6 DUP2 GT ISZERO PUSH2 0xA1B JUMPI PUSH2 0xA1B PUSH2 0x1953 JUMP JUMPDEST SWAP1 DUP2 PUSH1 0x6 DUP2 GT ISZERO PUSH2 0xA2E JUMPI PUSH2 0xA2E PUSH2 0x1953 JUMP JUMPDEST DUP2 MSTORE POP POP DUP7 DUP2 PUSH1 0x6 DUP2 MLOAD DUP2 LT PUSH2 0xA46 JUMPI PUSH2 0xA46 PUSH2 0x1EEB JUMP JUMPDEST PUSH1 0x20 MUL PUSH1 0x20 ADD ADD SWAP1 PUSH1 0x6 DUP2 GT ISZERO PUSH2 0xA5F JUMPI PUSH2 0xA5F PUSH2 0x1953 JUMP JUMPDEST SWAP1 DUP2 PUSH1 0x6 DUP2 GT ISZERO PUSH2 0xA72 JUMPI PUSH2 0xA72 PUSH2 0x1953 JUMP JUMPDEST DUP2 MSTORE POP POP DUP6 DUP2 PUSH1 0x7 DUP2 MLOAD DUP2 LT PUSH2 0xA8A JUMPI PUSH2 0xA8A PUSH2 0x1EEB JUMP JUMPDEST PUSH1 0x20 MUL PUSH1 0x20 ADD ADD SWAP1 PUSH1 0x6 DUP2 GT ISZERO PUSH2 0xAA3 JUMPI PUSH2 0xAA3 PUSH2 0x1953 JUMP JUMPDEST SWAP1 DUP2 PUSH1 0x6 DUP2 GT ISZERO PUSH2 0xAB6 JUMPI PUSH2 0xAB6 PUSH2 0x1953 JUMP JUMPDEST DUP2 MSTORE POP POP DUP5 DUP2 PUSH1 0x8 DUP2 MLOAD DUP2 LT PUSH2 0xACE JUMPI PUSH2 0xACE PUSH2 0x1EEB JUMP JUMPDEST PUSH1 0x20 MUL PUSH1 0x20 ADD ADD SWAP1 PUSH1 0x6 DUP2 GT ISZERO PUSH2 0xAE7 JUMPI PUSH2 0xAE7 PUSH2 0x1953 JUMP JUMPDEST SWAP1 DUP2 PUSH1 0x6 DUP2 GT ISZERO PUSH2 0xAFA JUMPI PUSH2 0xAFA PUSH2 0x1953 JUMP JUMPDEST DUP2 MSTORE POP POP DUP4 DUP2 PUSH1 0x9 DUP2 MLOAD DUP2 LT PUSH2 0xB12 JUMPI PUSH2 0xB12 PUSH2 0x1EEB JUMP JUMPDEST PUSH1 0x20 MUL PUSH1 0x20 ADD ADD SWAP1 PUSH1 0x6 DUP2 GT ISZERO PUSH2 0xB2B JUMPI PUSH2 0xB2B PUSH2 0x1953 JUMP JUMPDEST SWAP1 DUP2 PUSH1 0x6 DUP2 GT ISZERO PUSH2 0xB3E JUMPI PUSH2 0xB3E PUSH2 0x1953 JUMP JUMPDEST DUP2 MSTORE POP POP DUP3 DUP2 PUSH1 0xA DUP2 MLOAD DUP2 LT PUSH2 0xB56 JUMPI PUSH2 0xB56 PUSH2 0x1EEB JUMP JUMPDEST PUSH1 0x20 MUL PUSH1 0x20 ADD ADD SWAP1 PUSH1 0x6 DUP2 GT ISZERO PUSH2 0xB6F JUMPI PUSH2 0xB6F PUSH2 0x1953 JUMP JUMPDEST SWAP1 DUP2 PUSH1 0x6 DUP2 GT ISZERO PUSH2 0xB82 JUMPI PUSH2 0xB82 PUSH2 0x1953 JUMP JUMPDEST DUP2 MSTORE POP POP DUP2 DUP2 PUSH1 0xB DUP2 MLOAD DUP2 LT PUSH2 0xB9A JUMPI PUSH2 0xB9A PUSH2 0x1EEB JUMP JUMPDEST PUSH1 0x20 MUL PUSH1 0x20 ADD ADD SWAP1 PUSH1 0x6 DUP2 GT ISZERO PUSH2 0xBB3 JUMPI PUSH2 0xBB3 PUSH2 0x1953 JUMP JUMPDEST SWAP1 DUP2 PUSH1 0x6 DUP2 GT ISZERO PUSH2 0xBC6 JUMPI PUSH2 0xBC6 PUSH2 0x1953 JUMP JUMPDEST SWAP1 MSTORE POP SWAP13 SWAP12 POP POP POP POP POP POP POP POP POP POP POP POP JUMP JUMPDEST PUSH1 0x40 DUP1 MLOAD PUSH1 0x3 DUP1 DUP3 MSTORE PUSH1 0x80 DUP3 ADD SWAP1 SWAP3 MSTORE PUSH1 0x60 SWAP2 PUSH1 0x20 DUP3 ADD DUP4 DUP1 CALLDATASIZE DUP4 CALLDATACOPY ADD SWAP1 POP POP SWAP1 POP DUP7 DUP2 PUSH1 0x0 DUP2 MLOAD DUP2 LT PUSH2 0xC0F JUMPI PUSH2 0xC0F PUSH2 0x1EEB JUMP JUMPDEST PUSH1 0x20 MUL PUSH1 0x20 ADD ADD SWAP1 PUSH1 0x6 DUP2 GT ISZERO PUSH2 0xC28 JUMPI PUSH2 0xC28 PUSH2 0x1953 JUMP JUMPDEST SWAP1 DUP2 PUSH1 0x6 DUP2 GT ISZERO PUSH2 0xC3B JUMPI PUSH2 0xC3B PUSH2 0x1953 JUMP JUMPDEST DUP2 MSTORE POP POP DUP6 DUP2 PUSH1 0x1 DUP2 MLOAD DUP2 LT PUSH2 0xC53 JUMPI PUSH2 0xC53 PUSH2 0x1EEB JUMP JUMPDEST PUSH1 0x20 MUL PUSH1 0x20 ADD ADD SWAP1 PUSH1 0x6 DUP2 GT ISZERO PUSH2 0xC6C JUMPI PUSH2 0xC6C PUSH2 0x1953 JUMP JUMPDEST SWAP1 DUP2 PUSH1 0x6 DUP2 GT ISZERO PUSH2 0xC7F JUMPI PUSH2 0xC7F PUSH2 0x1953 JUMP JUMPDEST DUP2 MSTORE POP POP DUP5 DUP2 PUSH1 0x2 DUP2 MLOAD DUP2 LT PUSH2 0xC97 JUMPI PUSH2 0xC97 PUSH2 0x1EEB JUMP JUMPDEST PUSH1 0x20 MUL PUSH1 0x20 ADD ADD SWAP1 PUSH1 0x6 DUP2 GT ISZERO PUSH2 0xCB0 JUMPI PUSH2 0xCB0 PUSH2 0x1953 JUMP JUMPDEST SWAP1 DUP2 PUSH1 0x6 DUP2 GT ISZERO PUSH2 0xCC3 JUMPI PUSH2 0xCC3 PUSH2 0x1953 JUMP JUMPDEST DUP2 MSTORE POP POP DUP4 DUP2 PUSH1 0x3 DUP2 MLOAD DUP2 LT PUSH2 0xCDB JUMPI PUSH2 0xCDB PUSH2 0x1EEB JUMP JUMPDEST PUSH1 0x20 MUL PUSH1 0x20 ADD ADD SWAP1 PUSH1 0x6 DUP2 GT ISZERO PUSH2 0xCF4 JUMPI PUSH2 0xCF4 PUSH2 0x1953 JUMP JUMPDEST SWAP1 DUP2 PUSH1 0x6 DUP2 GT ISZERO PUSH2 0xD07 JUMPI PUSH2 0xD07 PUSH2 0x1953 JUMP JUMPDEST DUP2 MSTORE POP POP DUP3 DUP2 PUSH1 0x4 DUP2 MLOAD DUP2 LT PUSH2 0xD1F JUMPI PUSH2 0xD1F PUSH2 0x1EEB JUMP JUMPDEST PUSH1 0x20 MUL PUSH1 0x20 ADD ADD SWAP1 PUSH1 0x6 DUP2 GT ISZERO PUSH2 0xD38 JUMPI PUSH2 0xD38 PUSH2 0x1953 JUMP JUMPDEST SWAP1 DUP2 PUSH1 0x6 DUP2 GT ISZERO PUSH2 0xD4B JUMPI PUSH2 0xD4B PUSH2 0x1953 JUMP JUMPDEST DUP2 MSTORE POP POP DUP2 DUP2 PUSH1 0x5 DUP2 MLOAD DUP2 LT PUSH2 0xD63 JUMPI PUSH2 0xD63 PUSH2 0x1EEB JUMP JUMPDEST PUSH1 0x20 MUL PUSH1 0x20 ADD ADD SWAP1 PUSH1 0x6 DUP2 GT ISZERO PUSH2 0xD7C JUMPI PUSH2 0xD7C PUSH2 0x1953 JUMP JUMPDEST SWAP1 DUP2 PUSH1 0x6 DUP2 GT ISZERO PUSH2 0xD8F JUMPI PUSH2 0xD8F PUSH2 0x1953 JUMP JUMPDEST SWAP1 MSTORE POP SWAP7 SWAP6 POP POP POP POP POP POP JUMP JUMPDEST PUSH1 0x40 DUP1 MLOAD PUSH1 0x3 DUP1 DUP3 MSTORE PUSH1 0x80 DUP3 ADD SWAP1 SWAP3 MSTORE PUSH1 0x60 SWAP2 PUSH1 0x20 DUP3 ADD DUP4 DUP1 CALLDATASIZE DUP4 CALLDATACOPY ADD SWAP1 POP POP SWAP1 POP DUP6 DUP2 PUSH1 0x0 DUP2 MLOAD DUP2 LT PUSH2 0xDD2 JUMPI PUSH2 0xDD2 PUSH2 0x1EEB JUMP JUMPDEST PUSH1 0x20 MUL PUSH1 0x20 ADD ADD SWAP1 PUSH1 0x6 DUP2 GT ISZERO PUSH2 0xDEB JUMPI PUSH2 0xDEB PUSH2 0x1953 JUMP JUMPDEST SWAP1 DUP2 PUSH1 0x6 DUP2 GT ISZERO PUSH2 0xDFE JUMPI PUSH2 0xDFE PUSH2 0x1953 JUMP JUMPDEST DUP2 MSTORE POP POP DUP5 DUP2 PUSH1 0x1 DUP2 MLOAD DUP2 LT PUSH2 0xE16 JUMPI PUSH2 0xE16 PUSH2 0x1EEB JUMP JUMPDEST PUSH1 0x20 MUL PUSH1 0x20 ADD ADD SWAP1 PUSH1 0x6 DUP2 GT ISZERO PUSH2 0xE2F JUMPI PUSH2 0xE2F PUSH2 0x1953 JUMP JUMPDEST SWAP1 DUP2 PUSH1 0x6 DUP2 GT ISZERO PUSH2 0xE42 JUMPI PUSH2 0xE42 PUSH2 0x1953 JUMP JUMPDEST DUP2 MSTORE POP POP DUP4 DUP2 PUSH1 0x2 DUP2 MLOAD DUP2 LT PUSH2 0xE5A JUMPI PUSH2 0xE5A PUSH2 0x1EEB JUMP JUMPDEST PUSH1 0x20 MUL PUSH1 0x20 ADD ADD SWAP1 PUSH1 0x6 DUP2 GT ISZERO PUSH2 0xE73 JUMPI PUSH2 0xE73 PUSH2 0x1953 JUMP JUMPDEST SWAP1 DUP2 PUSH1 0x6 DUP2 GT ISZERO PUSH2 0xE86 JUMPI PUSH2 0xE86 PUSH2 0x1953 JUMP JUMPDEST DUP2 MSTORE POP POP DUP3 DUP2 PUSH1 0x3 DUP2 MLOAD DUP2 LT PUSH2 0xE9E JUMPI PUSH2 0xE9E PUSH2 0x1EEB JUMP JUMPDEST PUSH1 0x20 MUL PUSH1 0x20 ADD ADD SWAP1 PUSH1 0x6 DUP2 GT ISZERO PUSH2 0xEB7 JUMPI PUSH2 0xEB7 PUSH2 0x1953 JUMP JUMPDEST SWAP1 DUP2 PUSH1 0x6 DUP2 GT ISZERO PUSH2 0xECA JUMPI PUSH2 0xECA PUSH2 0x1953 JUMP JUMPDEST DUP2 MSTORE POP POP DUP2 DUP2 PUSH1 0x4 DUP2 MLOAD DUP2 LT PUSH2 0xEE2 JUMPI PUSH2 0xEE2 PUSH2 0x1EEB JUMP JUMPDEST PUSH1 0x20 MUL PUSH1 0x20 ADD ADD SWAP1 PUSH1 0x6 DUP2 GT ISZERO PUSH2 0xEFB JUMPI PUSH2 0xEFB PUSH2 0x1953 JUMP JUMPDEST SWAP1 DUP2 PUSH1 0x6 DUP2 GT ISZERO PUSH2 0xF0E JUMPI PUSH2 0xF0E PUSH2 0x1953 JUMP JUMPDEST SWAP1 MSTORE POP SWAP6 SWAP5 POP POP POP POP POP JUMP JUMPDEST PUSH1 0x40 DUP1 MLOAD PUSH1 0x1 DUP1 DUP3 MSTORE DUP2 DUP4 ADD SWAP1 SWAP3 MSTORE PUSH1 0x60 SWAP2 PUSH1 0x20 DUP1 DUP4 ADD SWAP1 DUP1 CALLDATASIZE DUP4 CALLDATACOPY ADD SWAP1 POP POP SWAP1 POP DUP2 DUP2 PUSH1 0x0 DUP2 MLOAD DUP2 LT PUSH2 0xF50 JUMPI PUSH2 0xF50 PUSH2 0x1EEB JUMP JUMPDEST PUSH1 0x20 MUL PUSH1 0x20 ADD ADD SWAP1 PUSH1 0x6 DUP2 GT ISZERO PUSH2 0xF69 JUMPI PUSH2 0xF69 PUSH2 0x1953 JUMP JUMPDEST SWAP1 DUP2 PUSH1 0x6 DUP2 GT ISZERO PUSH2 0xF7C JUMPI PUSH2 0xF7C PUSH2 0x1953 JUMP JUMPDEST SWAP1 MSTORE POP SWAP2 SWAP1 POP JUMP JUMPDEST PUSH1 0x40 DUP1 MLOAD PUSH1 0x3 DUP1 DUP3 MSTORE PUSH1 0x80 DUP3 ADD SWAP1 SWAP3 MSTORE PUSH1 0x60 SWAP2 PUSH1 0x20 DUP3 ADD DUP4 DUP1 CALLDATASIZE DUP4 CALLDATACOPY ADD SWAP1 POP POP SWAP1 POP DUP9 DUP2 PUSH1 0x0 DUP2 MLOAD DUP2 LT PUSH2 0xFBA JUMPI PUSH2 0xFBA PUSH2 0x1EEB JUMP JUMPDEST PUSH1 0x20 MUL PUSH1 0x20 ADD ADD SWAP1 PUSH1 0x6 DUP2 GT ISZERO PUSH2 0xFD3 JUMPI PUSH2 0xFD3 PUSH2 0x1953 JUMP JUMPDEST SWAP1 DUP2 PUSH1 0x6 DUP2 GT ISZERO PUSH2 0xFE6 JUMPI PUSH2 0xFE6 PUSH2 0x1953 JUMP JUMPDEST DUP2 MSTORE POP POP DUP8 DUP2 PUSH1 0x1 DUP2 MLOAD DUP2 LT PUSH2 0xFFE JUMPI PUSH2 0xFFE PUSH2 0x1EEB JUMP JUMPDEST PUSH1 0x20 MUL PUSH1 0x20 ADD ADD SWAP1 PUSH1 0x6 DUP2 GT ISZERO PUSH2 0x1017 JUMPI PUSH2 0x1017 PUSH2 0x1953 JUMP JUMPDEST SWAP1 DUP2 PUSH1 0x6 DUP2 GT ISZERO PUSH2 0x102A JUMPI PUSH2 0x102A PUSH2 0x1953 JUMP JUMPDEST DUP2 MSTORE POP POP DUP7 DUP2 PUSH1 0x2 DUP2 MLOAD DUP2 LT PUSH2 0x1042 JUMPI PUSH2 0x1042 PUSH2 0x1EEB JUMP JUMPDEST PUSH1 0x20 MUL PUSH1 0x20 ADD ADD SWAP1 PUSH1 0x6 DUP2 GT ISZERO PUSH2 0x105B JUMPI PUSH2 0x105B PUSH2 0x1953 JUMP JUMPDEST SWAP1 DUP2 PUSH1 0x6 DUP2 GT ISZERO PUSH2 0x106E JUMPI PUSH2 0x106E PUSH2 0x1953 JUMP JUMPDEST DUP2 MSTORE POP POP DUP6 DUP2 PUSH1 0x3 DUP2 MLOAD DUP2 LT PUSH2 0x1086 JUMPI PUSH2 0x1086 PUSH2 0x1EEB JUMP JUMPDEST PUSH1 0x20 MUL PUSH1 0x20 ADD ADD SWAP1 PUSH1 0x6 DUP2 GT ISZERO PUSH2 0x109F JUMPI PUSH2 0x109F PUSH2 0x1953 JUMP JUMPDEST SWAP1 DUP2 PUSH1 0x6 DUP2 GT ISZERO PUSH2 0x10B2 JUMPI PUSH2 0x10B2 PUSH2 0x1953 JUMP JUMPDEST DUP2 MSTORE POP POP DUP5 DUP2 PUSH1 0x4 DUP2 MLOAD DUP2 LT PUSH2 0x10CA JUMPI PUSH2 0x10CA PUSH2 0x1EEB JUMP JUMPDEST PUSH1 0x20 MUL PUSH1 0x20 ADD ADD SWAP1 PUSH1 0x6 DUP2 GT ISZERO PUSH2 0x10E3 JUMPI PUSH2 0x10E3 PUSH2 0x1953 JUMP JUMPDEST SWAP1 DUP2 PUSH1 0x6 DUP2 GT ISZERO PUSH2 0x10F6 JUMPI PUSH2 0x10F6 PUSH2 0x1953 JUMP JUMPDEST DUP2 MSTORE POP POP DUP4 DUP2 PUSH1 0x5 DUP2 MLOAD DUP2 LT PUSH2 0x110E JUMPI PUSH2 0x110E PUSH2 0x1EEB JUMP JUMPDEST PUSH1 0x20 MUL PUSH1 0x20 ADD ADD SWAP1 PUSH1 0x6 DUP2 GT ISZERO PUSH2 0x1127 JUMPI PUSH2 0x1127 PUSH2 0x1953 JUMP JUMPDEST SWAP1 DUP2 PUSH1 0x6 DUP2 GT ISZERO PUSH2 0x113A JUMPI PUSH2 0x113A PUSH2 0x1953 JUMP JUMPDEST DUP2 MSTORE POP POP DUP3 DUP2 PUSH1 0x6 DUP2 MLOAD DUP2 LT PUSH2 0x1152 JUMPI PUSH2 0x1152 PUSH2 0x1EEB JUMP JUMPDEST PUSH1 0x20 MUL PUSH1 0x20 ADD ADD SWAP1 PUSH1 0x6 DUP2 GT ISZERO PUSH2 0x116B JUMPI PUSH2 0x116B PUSH2 0x1953 JUMP JUMPDEST SWAP1 DUP2 PUSH1 0x6 DUP2 GT ISZERO PUSH2 0x117E JUMPI PUSH2 0x117E PUSH2 0x1953 JUMP JUMPDEST DUP2 MSTORE POP POP DUP2 DUP2 PUSH1 0x7 DUP2 MLOAD DUP2 LT PUSH2 0x1196 JUMPI PUSH2 0x1196 PUSH2 0x1EEB JUMP JUMPDEST PUSH1 0x20 MUL PUSH1 0x20 ADD ADD SWAP1 PUSH1 0x6 DUP2 GT ISZERO PUSH2 0x11AF JUMPI PUSH2 0x11AF PUSH2 0x1953 JUMP JUMPDEST SWAP1 DUP2 PUSH1 0x6 DUP2 GT ISZERO PUSH2 0x11C2 JUMPI PUSH2 0x11C2 PUSH2 0x1953 JUMP JUMPDEST SWAP1 MSTORE POP SWAP9 SWAP8 POP POP POP POP POP POP POP POP JUMP JUMPDEST PUSH1 0x40 DUP1 MLOAD PUSH1 0x3 DUP1 DUP3 MSTORE PUSH1 0x80 DUP3 ADD SWAP1 SWAP3 MSTORE PUSH1 0x60 SWAP2 PUSH1 0x20 DUP3 ADD DUP4 DUP1 CALLDATASIZE DUP4 CALLDATACOPY ADD SWAP1 POP POP SWAP1 POP DUP10 DUP2 PUSH1 0x0 DUP2 MLOAD DUP2 LT PUSH2 0x1207 JUMPI PUSH2 0x1207 PUSH2 0x1EEB JUMP JUMPDEST PUSH1 0x20 MUL PUSH1 0x20 ADD ADD SWAP1 PUSH1 0x6 DUP2 GT ISZERO PUSH2 0x1220 JUMPI PUSH2 0x1220 PUSH2 0x1953 JUMP JUMPDEST SWAP1 DUP2 PUSH1 0x6 DUP2 GT ISZERO PUSH2 0x1233 JUMPI PUSH2 0x1233 PUSH2 0x1953 JUMP JUMPDEST DUP2 MSTORE POP POP DUP9 DUP2 PUSH1 0x1 DUP2 MLOAD DUP2 LT PUSH2 0x124B JUMPI PUSH2 0x124B PUSH2 0x1EEB JUMP JUMPDEST PUSH1 0x20 MUL PUSH1 0x20 ADD ADD SWAP1 PUSH1 0x6 DUP2 GT ISZERO PUSH2 0x1264 JUMPI PUSH2 0x1264 PUSH2 0x1953 JUMP JUMPDEST SWAP1 DUP2 PUSH1 0x6 DUP2 GT ISZERO PUSH2 0x1277 JUMPI PUSH2 0x1277 PUSH2 0x1953 JUMP JUMPDEST DUP2 MSTORE POP POP DUP8 DUP2 PUSH1 0x2 DUP2 MLOAD DUP2 LT PUSH2 0x128F JUMPI PUSH2 0x128F PUSH2 0x1EEB JUMP JUMPDEST PUSH1 0x20 MUL PUSH1 0x20 ADD ADD SWAP1 PUSH1 0x6 DUP2 GT ISZERO PUSH2 0x12A8 JUMPI PUSH2 0x12A8 PUSH2 0x1953 JUMP JUMPDEST SWAP1 DUP2 PUSH1 0x6 DUP2 GT ISZERO PUSH2 0x12BB JUMPI PUSH2 0x12BB PUSH2 0x1953 JUMP JUMPDEST DUP2 MSTORE POP POP DUP7 DUP2 PUSH1 0x3 DUP2 MLOAD DUP2 LT PUSH2 0x12D3 JUMPI PUSH2 0x12D3 PUSH2 0x1EEB JUMP JUMPDEST PUSH1 0x20 MUL PUSH1 0x20 ADD ADD SWAP1 PUSH1 0x6 DUP2 GT ISZERO PUSH2 0x12EC JUMPI PUSH2 0x12EC PUSH2 0x1953 JUMP JUMPDEST SWAP1 DUP2 PUSH1 0x6 DUP2 GT ISZERO PUSH2 0x12FF JUMPI PUSH2 0x12FF PUSH2 0x1953 JUMP JUMPDEST DUP2 MSTORE POP POP DUP6 DUP2 PUSH1 0x4 DUP2 MLOAD DUP2 LT PUSH2 0x1317 JUMPI PUSH2 0x1317 PUSH2 0x1EEB JUMP JUMPDEST PUSH1 0x20 MUL PUSH1 0x20 ADD ADD SWAP1 PUSH1 0x6 DUP2 GT ISZERO PUSH2 0x1330 JUMPI PUSH2 0x1330 PUSH2 0x1953 JUMP JUMPDEST SWAP1 DUP2 PUSH1 0x6 DUP2 GT ISZERO PUSH2 0x1343 JUMPI PUSH2 0x1343 PUSH2 0x1953 JUMP JUMPDEST DUP2 MSTORE POP POP DUP5 DUP2 PUSH1 0x5 DUP2 MLOAD DUP2 LT PUSH2 0x135B JUMPI PUSH2 0x135B PUSH2 0x1EEB JUMP JUMPDEST PUSH1 0x20 MUL PUSH1 0x20 ADD ADD SWAP1 PUSH1 0x6 DUP2 GT ISZERO PUSH2 0x1374 JUMPI PUSH2 0x1374 PUSH2 0x1953 JUMP JUMPDEST SWAP1 DUP2 PUSH1 0x6 DUP2 GT ISZERO PUSH2 0x1387 JUMPI PUSH2 0x1387 PUSH2 0x1953 JUMP JUMPDEST DUP2 MSTORE POP POP DUP4 DUP2 PUSH1 0x6 DUP2 MLOAD DUP2 LT PUSH2 0x139F JUMPI PUSH2 0x139F PUSH2 0x1EEB JUMP JUMPDEST PUSH1 0x20 MUL PUSH1 0x20 ADD ADD SWAP1 PUSH1 0x6 DUP2 GT ISZERO PUSH2 0x13B8 JUMPI PUSH2 0x13B8 PUSH2 0x1953 JUMP JUMPDEST SWAP1 DUP2 PUSH1 0x6 DUP2 GT ISZERO PUSH2 0x13CB JUMPI PUSH2 0x13CB PUSH2 0x1953 JUMP JUMPDEST DUP2 MSTORE POP POP DUP3 DUP2 PUSH1 0x7 DUP2 MLOAD DUP2 LT PUSH2 0x13E3 JUMPI PUSH2 0x13E3 PUSH2 0x1EEB JUMP JUMPDEST PUSH1 0x20 MUL PUSH1 0x20 ADD ADD SWAP1 PUSH1 0x6 DUP2 GT ISZERO PUSH2 0x13FC JUMPI PUSH2 0x13FC PUSH2 0x1953 JUMP JUMPDEST SWAP1 DUP2 PUSH1 0x6 DUP2 GT ISZERO PUSH2 0x140F JUMPI PUSH2 0x140F PUSH2 0x1953 JUMP JUMPDEST DUP2 MSTORE POP POP DUP2 DUP2 PUSH1 0x8 DUP2 MLOAD DUP2 LT PUSH2 0x1427 JUMPI PUSH2 0x1427 PUSH2 0x1EEB JUMP JUMPDEST PUSH1 0x20 MUL PUSH1 0x20 ADD ADD SWAP1 PUSH1 0x6 DUP2 GT ISZERO PUSH2 0x1440 JUMPI PUSH2 0x1440 PUSH2 0x1953 JUMP JUMPDEST SWAP1 DUP2 PUSH1 0x6 DUP2 GT ISZERO PUSH2 0x1453 JUMPI PUSH2 0x1453 PUSH2 0x1953 JUMP JUMPDEST SWAP1 MSTORE POP SWAP10 SWAP9 POP POP POP POP POP POP POP POP POP JUMP JUMPDEST PUSH1 0x40 DUP1 MLOAD PUSH1 0x3 DUP1 DUP3 MSTORE PUSH1 0x80 DUP3 ADD SWAP1 SWAP3 MSTORE PUSH1 0x60 SWAP2 PUSH1 0x20 DUP3 ADD DUP4 DUP1 CALLDATASIZE DUP4 CALLDATACOPY ADD SWAP1 POP POP SWAP1 POP DUP5 DUP2 PUSH1 0x0 DUP2 MLOAD DUP2 LT PUSH2 0x1499 JUMPI PUSH2 0x1499 PUSH2 0x1EEB JUMP JUMPDEST PUSH1 0x20 MUL PUSH1 0x20 ADD ADD SWAP1 PUSH1 0x6 DUP2 GT ISZERO PUSH2 0x14B2 JUMPI PUSH2 0x14B2 PUSH2 0x1953 JUMP JUMPDEST SWAP1 DUP2 PUSH1 0x6 DUP2 GT ISZERO PUSH2 0x14C5 JUMPI PUSH2 0x14C5 PUSH2 0x1953 JUMP JUMPDEST DUP2 MSTORE POP POP DUP4 DUP2 PUSH1 0x1 DUP2 MLOAD DUP2 LT PUSH2 0x14DD JUMPI PUSH2 0x14DD PUSH2 0x1EEB JUMP JUMPDEST PUSH1 0x20 MUL PUSH1 0x20 ADD ADD SWAP1 PUSH1 0x6 DUP2 GT ISZERO PUSH2 0x14F6 JUMPI PUSH2 0x14F6 PUSH2 0x1953 JUMP JUMPDEST SWAP1 DUP2 PUSH1 0x6 DUP2 GT ISZERO PUSH2 0x1509 JUMPI PUSH2 0x1509 PUSH2 0x1953 JUMP JUMPDEST DUP2 MSTORE POP POP DUP3 DUP2 PUSH1 0x2 DUP2 MLOAD DUP2 LT PUSH2 0x1521 JUMPI PUSH2 0x1521 PUSH2 0x1EEB JUMP JUMPDEST PUSH1 0x20 MUL PUSH1 0x20 ADD ADD SWAP1 PUSH1 0x6 DUP2 GT ISZERO PUSH2 0x153A JUMPI PUSH2 0x153A PUSH2 0x1953 JUMP JUMPDEST SWAP1 DUP2 PUSH1 0x6 DUP2 GT ISZERO PUSH2 0x154D JUMPI PUSH2 0x154D PUSH2 0x1953 JUMP JUMPDEST DUP2 MSTORE POP POP DUP2 DUP2 PUSH1 0x3 DUP2 MLOAD DUP2 LT PUSH2 0x1565 JUMPI PUSH2 0x1565 PUSH2 0x1EEB JUMP JUMPDEST PUSH1 0x20 MUL PUSH1 0x20 ADD ADD SWAP1 PUSH1 0x6 DUP2 GT ISZERO PUSH2 0x157E JUMPI PUSH2 0x157E PUSH2 0x1953 JUMP JUMPDEST SWAP1 DUP2 PUSH1 0x6 DUP2 GT ISZERO PUSH2 0x1591 JUMPI PUSH2 0x1591 PUSH2 0x1953 JUMP JUMPDEST SWAP1 MSTORE POP SWAP5 SWAP4 POP POP POP POP JUMP JUMPDEST PUSH1 0x40 DUP1 MLOAD PUSH1 0x3 DUP1 DUP3 MSTORE PUSH1 0x80 DUP3 ADD SWAP1 SWAP3 MSTORE PUSH1 0x60 SWAP2 PUSH1 0x20 DUP3 ADD DUP4 DUP1 CALLDATASIZE DUP4 CALLDATACOPY ADD SWAP1 POP POP SWAP1 POP DUP11 DUP2 PUSH1 0x0 DUP2 MLOAD DUP2 LT PUSH2 0x15D2 JUMPI PUSH2 0x15D2 PUSH2 0x1EEB JUMP JUMPDEST PUSH1 0x20 MUL PUSH1 0x20 ADD ADD SWAP1 PUSH1 0x6 DUP2 GT ISZERO PUSH2 0x15EB JUMPI PUSH2 0x15EB PUSH2 0x1953 JUMP JUMPDEST SWAP1 DUP2 PUSH1 0x6 DUP2 GT ISZERO PUSH2 0x15FE JUMPI PUSH2 0x15FE PUSH2 0x1953 JUMP JUMPDEST DUP2 MSTORE POP POP DUP10 DUP2 PUSH1 0x1 DUP2 MLOAD DUP2 LT PUSH2 0x1616 JUMPI PUSH2 0x1616 PUSH2 0x1EEB JUMP JUMPDEST PUSH1 0x20 MUL PUSH1 0x20 ADD ADD SWAP1 PUSH1 0x6 DUP2 GT ISZERO PUSH2 0x162F JUMPI PUSH2 0x162F PUSH2 0x1953 JUMP JUMPDEST SWAP1 DUP2 PUSH1 0x6 DUP2 GT ISZERO PUSH2 0x1642 JUMPI PUSH2 0x1642 PUSH2 0x1953 JUMP JUMPDEST DUP2 MSTORE POP POP DUP9 DUP2 PUSH1 0x2 DUP2 MLOAD DUP2 LT PUSH2 0x165A JUMPI PUSH2 0x165A PUSH2 0x1EEB JUMP JUMPDEST PUSH1 0x20 MUL PUSH1 0x20 ADD ADD SWAP1 PUSH1 0x6 DUP2 GT ISZERO PUSH2 0x1673 JUMPI PUSH2 0x1673 PUSH2 0x1953 JUMP JUMPDEST SWAP1 DUP2 PUSH1 0x6 DUP2 GT ISZERO PUSH2 0x1686 JUMPI PUSH2 0x1686 PUSH2 0x1953 JUMP JUMPDEST DUP2 MSTORE POP POP DUP8 DUP2 PUSH1 0x3 DUP2 MLOAD DUP2 LT PUSH2 0x169E JUMPI PUSH2 0x169E PUSH2 0x1EEB JUMP JUMPDEST PUSH1 0x20 MUL PUSH1 0x20 ADD ADD SWAP1 PUSH1 0x6 DUP2 GT ISZERO PUSH2 0x16B7 JUMPI PUSH2 0x16B7 PUSH2 0x1953 JUMP JUMPDEST SWAP1 DUP2 PUSH1 0x6 DUP2 GT ISZERO PUSH2 0x16CA JUMPI PUSH2 0x16CA PUSH2 0x1953 JUMP JUMPDEST DUP2 MSTORE POP POP DUP7 DUP2 PUSH1 0x4 DUP2 MLOAD DUP2 LT PUSH2 0x16E2 JUMPI PUSH2 0x16E2 PUSH2 0x1EEB JUMP JUMPDEST PUSH1 0x20 MUL PUSH1 0x20 ADD ADD SWAP1 PUSH1 0x6 DUP2 GT ISZERO PUSH2 0x16FB JUMPI PUSH2 0x16FB PUSH2 0x1953 JUMP JUMPDEST SWAP1 DUP2 PUSH1 0x6 DUP2 GT ISZERO PUSH2 0x170E JUMPI PUSH2 0x170E PUSH2 0x1953 JUMP JUMPDEST DUP2 MSTORE POP POP DUP6 DUP2 PUSH1 0x5 DUP2 MLOAD DUP2 LT PUSH2 0x1726 JUMPI PUSH2 0x1726 PUSH2 0x1EEB JUMP JUMPDEST PUSH1 0x20 MUL PUSH1 0x20 ADD ADD SWAP1 PUSH1 0x6 DUP2 GT ISZERO PUSH2 0x173F JUMPI PUSH2 0x173F PUSH2 0x1953 JUMP JUMPDEST SWAP1 DUP2 PUSH1 0x6 DUP2 GT ISZERO PUSH2 0x1752 JUMPI PUSH2 0x1752 PUSH2 0x1953 JUMP JUMPDEST DUP2 MSTORE POP POP DUP5 DUP2 PUSH1 0x6 DUP2 MLOAD DUP2 LT PUSH2 0x176A JUMPI PUSH2 0x176A PUSH2 0x1EEB JUMP JUMPDEST PUSH1 0x20 MUL PUSH1 0x20 ADD ADD SWAP1 PUSH1 0x6 DUP2 GT ISZERO PUSH2 0x1783 JUMPI PUSH2 0x1783 PUSH2 0x1953 JUMP JUMPDEST SWAP1 DUP2 PUSH1 0x6 DUP2 GT ISZERO PUSH2 0x1796 JUMPI PUSH2 0x1796 PUSH2 0x1953 JUMP JUMPDEST DUP2 MSTORE POP POP DUP4 DUP2 PUSH1 0x7 DUP2 MLOAD DUP2 LT PUSH2 0x17AE JUMPI PUSH2 0x17AE PUSH2 0x1EEB JUMP JUMPDEST PUSH1 0x20 MUL PUSH1 0x20 ADD ADD SWAP1 PUSH1 0x6 DUP2 GT ISZERO PUSH2 0x17C7 JUMPI PUSH2 0x17C7 PUSH2 0x1953 JUMP JUMPDEST SWAP1 DUP2 PUSH1 0x6 DUP2 GT ISZERO PUSH2 0x17DA JUMPI PUSH2 0x17DA PUSH2 0x1953 JUMP JUMPDEST DUP2 MSTORE POP POP DUP3 DUP2 PUSH1 0x8 DUP2 MLOAD DUP2 LT PUSH2 0x17F2 JUMPI PUSH2 0x17F2 PUSH2 0x1EEB JUMP JUMPDEST PUSH1 0x20 MUL PUSH1 0x20 ADD ADD SWAP1 PUSH1 0x6 DUP2 GT ISZERO PUSH2 0x180B JUMPI PUSH2 0x180B PUSH2 0x1953 JUMP JUMPDEST SWAP1 DUP2 PUSH1 0x6 DUP2 GT ISZERO PUSH2 0x181E JUMPI PUSH2 0x181E PUSH2 0x1953 JUMP JUMPDEST DUP2 MSTORE POP POP DUP2 DUP2 PUSH1 0x9 DUP2 MLOAD DUP2 LT PUSH2 0x1836 JUMPI PUSH2 0x1836 PUSH2 0x1EEB JUMP JUMPDEST PUSH1 0x20 MUL PUSH1 0x20 ADD ADD SWAP1 PUSH1 0x6 DUP2 GT ISZERO PUSH2 0x184F JUMPI PUSH2 0x184F PUSH2 0x1953 JUMP JUMPDEST SWAP1 DUP2 PUSH1 0x6 DUP2 GT ISZERO PUSH2 0x1862 JUMPI PUSH2 0x1862 PUSH2 0x1953 JUMP JUMPDEST SWAP1 MSTORE POP SWAP11 SWAP10 POP POP POP POP POP POP POP POP POP POP JUMP JUMPDEST DUP1 CALLDATALOAD PUSH1 0x7 DUP2 LT PUSH2 0x1882 JUMPI PUSH1 0x0 DUP1 REVERT JUMPDEST SWAP2 SWAP1 POP JUMP JUMPDEST PUSH1 0x0 DUP1 PUSH1 0x0 DUP1 PUSH1 0x0 DUP1 PUSH1 0x0 DUP1 PUSH1 0x0 DUP1 PUSH1 0x0 PUSH2 0x160 DUP13 DUP15 SUB SLT ISZERO PUSH2 0x18A9 JUMPI PUSH1 0x0 DUP1 REVERT JUMPDEST PUSH2 0x18B2 DUP13 PUSH2 0x1873 JUMP JUMPDEST SWAP11 POP PUSH2 0x18C0 PUSH1 0x20 DUP14 ADD PUSH2 0x1873 JUMP JUMPDEST SWAP10 POP PUSH2 0x18CE PUSH1 0x40 DUP14 ADD PUSH2 0x1873 JUMP JUMPDEST SWAP9 POP PUSH2 0x18DC PUSH1 0x60 DUP14 ADD PUSH2 0x1873 JUMP JUMPDEST SWAP8 POP PUSH2 0x18EA PUSH1 0x80 DUP14 ADD PUSH2 0x1873 JUMP JUMPDEST SWAP7 POP PUSH2 0x18F8 PUSH1 0xA0 DUP14 ADD PUSH2 0x1873 JUMP JUMPDEST SWAP6 POP PUSH2 0x1906 PUSH1 0xC0 DUP14 ADD PUSH2 0x1873 JUMP JUMPDEST SWAP5 POP PUSH2 0x1914 PUSH1 0xE0 DUP14 ADD PUSH2 0x1873 JUMP JUMPDEST SWAP4 POP PUSH2 0x1923 PUSH2 0x100 DUP14 ADD PUSH2 0x1873 JUMP JUMPDEST SWAP3 POP PUSH2 0x1932 PUSH2 0x120 DUP14 ADD PUSH2 0x1873 JUMP JUMPDEST SWAP2 POP PUSH2 0x1941 PUSH2 0x140 DUP14 ADD PUSH2 0x1873 JUMP JUMPDEST SWAP1 POP SWAP3 SWAP6 SWAP9 SWAP12 POP SWAP3 SWAP6 SWAP9 SWAP12 SWAP1 SWAP4 SWAP7 SWAP10 POP JUMP JUMPDEST PUSH4 0x4E487B71 PUSH1 0xE0 SHL PUSH1 0x0 MSTORE PUSH1 0x21 PUSH1 0x4 MSTORE PUSH1 0x24 PUSH1 0x0 REVERT JUMPDEST PUSH1 0x20 DUP1 DUP3 MSTORE DUP3 MLOAD DUP3 DUP3 ADD DUP2 SWAP1 MSTORE PUSH1 0x0 SWAP2 SWAP1 DUP5 DUP3 ADD SWAP1 PUSH1 0x40 DUP6 ADD SWAP1 DUP5 DUP1 JUMPDEST DUP3 DUP2 LT ISZERO PUSH2 0x19BE JUMPI DUP5 MLOAD PUSH1 0x7 DUP2 LT PUSH2 0x19AC JUMPI PUSH4 0x4E487B71 PUSH1 0xE0 SHL DUP4 MSTORE PUSH1 0x21 PUSH1 0x4 MSTORE PUSH1 0x24 DUP4 REVERT JUMPDEST DUP5 MSTORE SWAP4 DUP6 ADD SWAP4 SWAP3 DUP6 ADD SWAP3 PUSH1 0x1 ADD PUSH2 0x1986 JUMP JUMPDEST POP SWAP2 SWAP8 SWAP7 POP POP POP POP POP POP POP JUMP JUMPDEST PUSH1 0x0 DUP1 PUSH1 0x40 DUP4 DUP6 SUB SLT ISZERO PUSH2 0x19DE JUMPI PUSH1 0x0 DUP1 REVERT JUMPDEST PUSH2 0x19E7 DUP4 PUSH2 0x1873 JUMP JUMPDEST SWAP2 POP PUSH2 0x19F5 PUSH1 0x20 DUP5 ADD PUSH2 0x1873 JUMP JUMPDEST SWAP1 POP SWAP3 POP SWAP3 SWAP1 POP JUMP JUMPDEST PUSH1 0x0 DUP1 PUSH1 0x0 PUSH1 0x60 DUP5 DUP7 SUB SLT ISZERO PUSH2 0x1A13 JUMPI PUSH1 0x0 DUP1 REVERT JUMPDEST PUSH2 0x1A1C DUP5 PUSH2 0x1873 JUMP JUMPDEST SWAP3 POP PUSH2 0x1A2A PUSH1 0x20 DUP6 ADD PUSH2 0x1873 JUMP JUMPDEST SWAP2 POP PUSH2 0x1A38 PUSH1 0x40 DUP6 ADD PUSH2 0x1873 JUMP JUMPDEST SWAP1 POP SWAP3 POP SWAP3 POP SWAP3 JUMP JUMPDEST PUSH1 0x0 DUP1 PUSH1 0x0 DUP1 PUSH1 0x0 DUP1 PUSH1 0x0 PUSH1 0xE0 DUP9 DUP11 SUB SLT ISZERO PUSH2 0x1A5C JUMPI PUSH1 0x0 DUP1 REVERT JUMPDEST PUSH2 0x1A65 DUP9 PUSH2 0x1873 JUMP JUMPDEST SWAP7 POP PUSH2 0x1A73 PUSH1 0x20 DUP10 ADD PUSH2 0x1873 JUMP JUMPDEST SWAP6 POP PUSH2 0x1A81 PUSH1 0x40 DUP10 ADD PUSH2 0x1873 JUMP JUMPDEST SWAP5 POP PUSH2 0x1A8F PUSH1 0x60 DUP10 ADD PUSH2 0x1873 JUMP JUMPDEST SWAP4 POP PUSH2 0x1A9D PUSH1 0x80 DUP10 ADD PUSH2 0x1873 JUMP JUMPDEST SWAP3 POP PUSH2 0x1AAB PUSH1 0xA0 DUP10 ADD PUSH2 0x1873 JUMP JUMPDEST SWAP2 POP PUSH2 0x1AB9 PUSH1 0xC0 DUP10 ADD PUSH2 0x1873 JUMP JUMPDEST SWAP1 POP SWAP3 SWAP6 SWAP9 SWAP2 SWAP5 SWAP8 POP SWAP3 SWAP6 POP JUMP JUMPDEST PUSH1 0x0 DUP1 PUSH1 0x0 DUP1 PUSH1 0x0 DUP1 PUSH1 0x0 DUP1 PUSH1 0x0 DUP1 PUSH1 0x0 DUP1 PUSH2 0x180 DUP14 DUP16 SUB SLT ISZERO PUSH2 0x1AEA JUMPI PUSH1 0x0 DUP1 REVERT JUMPDEST PUSH2 0x1AF3 DUP14 PUSH2 0x1873 JUMP JUMPDEST SWAP12 POP PUSH2 0x1B01 PUSH1 0x20 DUP15 ADD PUSH2 0x1873 JUMP JUMPDEST SWAP11 POP PUSH2 0x1B0F PUSH1 0x40 DUP15 ADD PUSH2 0x1873 JUMP JUMPDEST SWAP10 POP PUSH2 0x1B1D PUSH1 0x60 DUP15 ADD PUSH2 0x1873 JUMP JUMPDEST SWAP9 POP PUSH2 0x1B2B PUSH1 0x80 DUP15 ADD PUSH2 0x1873 JUMP JUMPDEST SWAP8 POP PUSH2 0x1B39 PUSH1 0xA0 DUP15 ADD PUSH2 0x1873 JUMP JUMPDEST SWAP7 POP PUSH2 0x1B47 PUSH1 0xC0 DUP15 ADD PUSH2 0x1873 JUMP JUMPDEST SWAP6 POP PUSH2 0x1B55 PUSH1 0xE0 DUP15 ADD PUSH2 0x1873 JUMP JUMPDEST SWAP5 POP PUSH2 0x1B64 PUSH2 0x100 DUP15 ADD PUSH2 0x1873 JUMP JUMPDEST SWAP4 POP PUSH2 0x1B73 PUSH2 0x120 DUP15 ADD PUSH2 0x1873 JUMP JUMPDEST SWAP3 POP PUSH2 0x1B82 PUSH2 0x140 DUP15 ADD PUSH2 0x1873 JUMP JUMPDEST SWAP2 POP PUSH2 0x1B91 PUSH2 0x160 DUP15 ADD PUSH2 0x1873 JUMP JUMPDEST SWAP1 POP SWAP3 SWAP6 SWAP9 SWAP12 POP SWAP3 SWAP6 SWAP9 SWAP12 POP SWAP3 SWAP6 SWAP9 SWAP12 JUMP JUMPDEST PUSH1 0x0 DUP1 PUSH1 0x0 DUP1 PUSH1 0x0 DUP1 PUSH1 0xC0 DUP8 DUP10 SUB SLT ISZERO PUSH2 0x1BBC JUMPI PUSH1 0x0 DUP1 REVERT JUMPDEST PUSH2 0x1BC5 DUP8 PUSH2 0x1873 JUMP JUMPDEST SWAP6 POP PUSH2 0x1BD3 PUSH1 0x20 DUP9 ADD PUSH2 0x1873 JUMP JUMPDEST SWAP5 POP PUSH2 0x1BE1 PUSH1 0x40 DUP9 ADD PUSH2 0x1873 JUMP JUMPDEST SWAP4 POP PUSH2 0x1BEF PUSH1 0x60 DUP9 ADD PUSH2 0x1873 JUMP JUMPDEST SWAP3 POP PUSH2 0x1BFD PUSH1 0x80 DUP9 ADD PUSH2 0x1873 JUMP JUMPDEST SWAP2 POP PUSH2 0x1C0B PUSH1 0xA0 DUP9 ADD PUSH2 0x1873 JUMP JUMPDEST SWAP1 POP SWAP3 SWAP6 POP SWAP3 SWAP6 POP SWAP3 SWAP6 JUMP JUMPDEST PUSH1 0x0 DUP1 PUSH1 0x0 DUP1 PUSH1 0x0 PUSH1 0xA0 DUP7 DUP9 SUB SLT ISZERO PUSH2 0x1C2F JUMPI PUSH1 0x0 DUP1 REVERT JUMPDEST PUSH2 0x1C38 DUP7 PUSH2 0x1873 JUMP JUMPDEST SWAP5 POP PUSH2 0x1C46 PUSH1 0x20 DUP8 ADD PUSH2 0x1873 JUMP JUMPDEST SWAP4 POP PUSH2 0x1C54 PUSH1 0x40 DUP8 ADD PUSH2 0x1873 JUMP JUMPDEST SWAP3 POP PUSH2 0x1C62 PUSH1 0x60 DUP8 ADD PUSH2 0x1873 JUMP JUMPDEST SWAP2 POP PUSH2 0x1C70 PUSH1 0x80 DUP8 ADD PUSH2 0x1873 JUMP JUMPDEST SWAP1 POP SWAP3 SWAP6 POP SWAP3 SWAP6 SWAP1 SWAP4 POP JUMP JUMPDEST PUSH1 0x0 PUSH1 0x20 DUP3 DUP5 SUB SLT ISZERO PUSH2 0x1C8E JUMPI PUSH1 0x0 DUP1 REVERT JUMPDEST PUSH2 0x1C97 DUP3 PUSH2 0x1873 JUMP JUMPDEST SWAP4 SWAP3 POP POP POP JUMP JUMPDEST PUSH1 0x0 DUP1 PUSH1 0x0 DUP1 PUSH1 0x0 DUP1 PUSH1 0x0 DUP1 PUSH2 0x100 DUP10 DUP12 SUB SLT ISZERO PUSH2 0x1CBB JUMPI PUSH1 0x0 DUP1 REVERT JUMPDEST PUSH2 0x1CC4 DUP10 PUSH2 0x1873 JUMP JUMPDEST SWAP8 POP PUSH2 0x1CD2 PUSH1 0x20 DUP11 ADD PUSH2 0x1873 JUMP JUMPDEST SWAP7 POP PUSH2 0x1CE0 PUSH1 0x40 DUP11 ADD PUSH2 0x1873 JUMP JUMPDEST SWAP6 POP PUSH2 0x1CEE PUSH1 0x60 DUP11 ADD PUSH2 0x1873 JUMP JUMPDEST SWAP5 POP PUSH2 0x1CFC PUSH1 0x80 DUP11 ADD PUSH2 0x1873 JUMP JUMPDEST SWAP4 POP PUSH2 0x1D0A PUSH1 0xA0 DUP11 ADD PUSH2 0x1873 JUMP JUMPDEST SWAP3 POP PUSH2 0x1D18 PUSH1 0xC0 DUP11 ADD PUSH2 0x1873 JUMP JUMPDEST SWAP2 POP PUSH2 0x1D26 PUSH1 0xE0 DUP11 ADD PUSH2 0x1873 JUMP JUMPDEST SWAP1 POP SWAP3 SWAP6 SWAP9 POP SWAP3 SWAP6 SWAP9 SWAP1 SWAP4 SWAP7 POP JUMP JUMPDEST PUSH1 0x0 DUP1 PUSH1 0x0 DUP1 PUSH1 0x0 DUP1 PUSH1 0x0 DUP1 PUSH1 0x0 PUSH2 0x120 DUP11 DUP13 SUB SLT ISZERO PUSH2 0x1D54 JUMPI PUSH1 0x0 DUP1 REVERT JUMPDEST PUSH2 0x1D5D DUP11 PUSH2 0x1873 JUMP JUMPDEST SWAP9 POP PUSH2 0x1D6B PUSH1 0x20 DUP12 ADD PUSH2 0x1873 JUMP JUMPDEST SWAP8 POP PUSH2 0x1D79 PUSH1 0x40 DUP12 ADD PUSH2 0x1873 JUMP JUMPDEST SWAP7 POP PUSH2 0x1D87 PUSH1 0x60 DUP12 ADD PUSH2 0x1873 JUMP JUMPDEST SWAP6 POP PUSH2 0x1D95 PUSH1 0x80 DUP12 ADD PUSH2 0x1873 JUMP JUMPDEST SWAP5 POP PUSH2 0x1DA3 PUSH1 0xA0 DUP12 ADD PUSH2 0x1873 JUMP JUMPDEST SWAP4 POP PUSH2 0x1DB1 PUSH1 0xC0 DUP12 ADD PUSH2 0x1873 JUMP JUMPDEST SWAP3 POP PUSH2 0x1DBF PUSH1 0xE0 DUP12 ADD PUSH2 0x1873 JUMP JUMPDEST SWAP2 POP PUSH2 0x1DCE PUSH2 0x100 DUP12 ADD PUSH2 0x1873 JUMP JUMPDEST SWAP1 POP SWAP3 SWAP6 SWAP9 POP SWAP3 SWAP6 SWAP9 POP SWAP3 SWAP6 SWAP9 JUMP JUMPDEST PUSH1 0x0 DUP1 PUSH1 0x0 DUP1 PUSH1 0x80 DUP6 DUP8 SUB SLT ISZERO PUSH2 0x1DF3 JUMPI PUSH1 0x0 DUP1 REVERT JUMPDEST PUSH2 0x1DFC DUP6 PUSH2 0x1873 JUMP JUMPDEST SWAP4 POP PUSH2 0x1E0A PUSH1 0x20 DUP7 ADD PUSH2 0x1873 JUMP JUMPDEST SWAP3 POP PUSH2 0x1E18 PUSH1 0x40 DUP7 ADD PUSH2 0x1873 JUMP JUMPDEST SWAP2 POP PUSH2 0x1E26 PUSH1 0x60 DUP7 ADD PUSH2 0x1873 JUMP JUMPDEST SWAP1 POP SWAP3 SWAP6 SWAP2 SWAP5 POP SWAP3 POP JUMP JUMPDEST PUSH1 0x0 DUP1 PUSH1 0x0 DUP1 PUSH1 0x0 DUP1 PUSH1 0x0 DUP1 PUSH1 0x0 DUP1 PUSH2 0x140 DUP12 DUP14 SUB SLT ISZERO PUSH2 0x1E51 JUMPI PUSH1 0x0 DUP1 REVERT JUMPDEST PUSH2 0x1E5A DUP12 PUSH2 0x1873 JUMP JUMPDEST SWAP10 POP PUSH2 0x1E68 PUSH1 0x20 DUP13 ADD PUSH2 0x1873 JUMP JUMPDEST SWAP9 POP PUSH2 0x1E76 PUSH1 0x40 DUP13 ADD PUSH2 0x1873 JUMP JUMPDEST SWAP8 POP PUSH2 0x1E84 PUSH1 0x60 DUP13 ADD PUSH2 0x1873 JUMP JUMPDEST SWAP7 POP PUSH2 0x1E92 PUSH1 0x80 DUP13 ADD PUSH2 0x1873 JUMP JUMPDEST SWAP6 POP PUSH2 0x1EA0 PUSH1 0xA0 DUP13 ADD PUSH2 0x1873 JUMP JUMPDEST SWAP5 POP PUSH2 0x1EAE PUSH1 0xC0 DUP13 ADD PUSH2 0x1873 JUMP JUMPDEST SWAP4 POP PUSH2 0x1EBC PUSH1 0xE0 DUP13 ADD PUSH2 0x1873 JUMP JUMPDEST SWAP3 POP PUSH2 0x1ECB PUSH2 0x100 DUP13 ADD PUSH2 0x1873 JUMP JUMPDEST SWAP2 POP PUSH2 0x1EDA PUSH2 0x120 DUP13 ADD PUSH2 0x1873 JUMP JUMPDEST SWAP1 POP SWAP3 SWAP6 SWAP9 SWAP12 SWAP2 SWAP5 SWAP8 SWAP11 POP SWAP3 SWAP6 SWAP9 POP JUMP JUMPDEST PUSH4 0x4E487B71 PUSH1 0xE0 SHL PUSH1 0x0 MSTORE PUSH1 0x32 PUSH1 0x4 MSTORE PUSH1 0x24 PUSH1 0x0 REVERT INVALID LOG2 PUSH5 0x6970667358 0x22 SLT KECCAK256 0x21 0x2E STOP SHR NOT 0xC 0xAA DUP1 0xDE DUP6 0xCD 0xCE PUSH29 0xD08ED6535330C720233A518865C592DED94FA864736F6C634300081400 CALLER ",
          "linkReferences": {}
        },
        "methodIdentifiers": {
          "networks(uint8)": "8a21e639",
          "networks(uint8,uint8)": "38035d30",
          "networks(uint8,uint8,uint8)": "4698a9ef",
          "networks(uint8,uint8,uint8,uint8)": "a1a29331",
          "networks(uint8,uint8,uint8,uint8,uint8)": "84ac1f55",
          "networks(uint8,uint8,uint8,uint8,uint8,uint8)": "7803cd36",
          "networks(uint8,uint8,uint8,uint8,uint8,uint8,uint8)": "4d0ec377",
          "networks(uint8,uint8,uint8,uint8,uint8,uint8,uint8,uint8)": "98b30823",
          "networks(uint8,uint8,uint8,uint8,uint8,uint8,uint8,uint8,uint8)": "9eb99346",
          "networks(uint8,uint8,uint8,uint8,uint8,uint8,uint8,uint8,uint8,uint8)": "e91d3a29",
          "networks(uint8,uint8,uint8,uint8,uint8,uint8,uint8,uint8,uint8,uint8,uint8)": "32f4a348",
          "networks(uint8,uint8,uint8,uint8,uint8,uint8,uint8,uint8,uint8,uint8,uint8,uint8)": "67802866"
        },
        "gasEstimates": {
          "creation": {
            "codeDepositCost": "1598200",
            "executionCost": "1673",
            "totalCost": "1599873"
          },
          "external": {
            "networks(uint8)": "infinite",
            "networks(uint8,uint8)": "infinite",
            "networks(uint8,uint8,uint8)": "infinite",
            "networks(uint8,uint8,uint8,uint8)": "infinite",
            "networks(uint8,uint8,uint8,uint8,uint8)": "infinite",
            "networks(uint8,uint8,uint8,uint8,uint8,uint8)": "infinite",
            "networks(uint8,uint8,uint8,uint8,uint8,uint8,uint8)": "infinite",
            "networks(uint8,uint8,uint8,uint8,uint8,uint8,uint8,uint8)": "infinite",
            "networks(uint8,uint8,uint8,uint8,uint8,uint8,uint8,uint8,uint8)": "infinite",
            "networks(uint8,uint8,uint8,uint8,uint8,uint8,uint8,uint8,uint8,uint8)": "infinite",
            "networks(uint8,uint8,uint8,uint8,uint8,uint8,uint8,uint8,uint8,uint8,uint8)": "infinite",
            "networks(uint8,uint8,uint8,uint8,uint8,uint8,uint8,uint8,uint8,uint8,uint8,uint8)": "infinite"
          },
          "internal": {}
        }
      }
    }
  }
}