{
  "src/client/SphinxClient.sol": {
    "SphinxClient": {
      "abi": [
        {
          "inputs": [
            {
              "internalType": "address[]",
              "name": "_owners",
              "type": "address[]"
            },
            {
              "internalType": "uint256",
              "name": "_threshold",
              "type": "uint256"
            }
          ],
          "stateMutability": "nonpayable",
          "type": "constructor"
        },
        {
          "anonymous": false,
          "inputs": [
            {
              "indexed": false,
              "internalType": "uint256",
              "name": "_myNumber",
              "type": "uint256"
            },
            {
              "indexed": false,
              "internalType": "address",
              "name": "_myAddress",
              "type": "address"
            },
            {
              "components": [
                {
                  "internalType": "bytes32",
                  "name": "salt",
                  "type": "bytes32"
                },
                {
                  "internalType": "enum Network[]",
                  "name": "networks",
                  "type": "uint8[]"
                },
                {
                  "internalType": "string",
                  "name": "referenceName",
                  "type": "string"
                }
              ],
              "indexed": false,
              "internalType": "struct DeployOptions",
              "name": "options",
              "type": "tuple"
            }
          ],
          "name": "DeployHelloSphinx",
          "type": "event"
        },
        {
          "anonymous": false,
          "inputs": [
            {
              "indexed": false,
              "internalType": "uint256",
              "name": "_myNumber",
              "type": "uint256"
            },
            {
              "indexed": false,
              "internalType": "address",
              "name": "_myAddress",
              "type": "address"
            }
          ],
          "name": "DeployHelloSphinx",
          "type": "event"
        },
        {
          "inputs": [
            {
              "internalType": "uint256",
              "name": "_myNumber",
              "type": "uint256"
            },
            {
              "internalType": "address",
              "name": "_myAddress",
              "type": "address"
            },
            {
              "components": [
                {
                  "internalType": "bytes32",
                  "name": "salt",
                  "type": "bytes32"
                },
                {
                  "internalType": "enum Network[]",
                  "name": "networks",
                  "type": "uint8[]"
                },
                {
                  "internalType": "string",
                  "name": "referenceName",
                  "type": "string"
                }
              ],
              "internalType": "struct DeployOptions",
              "name": "options",
              "type": "tuple"
            }
          ],
          "name": "HelloSphinx",
          "outputs": [
            {
              "internalType": "contract HelloSphinx",
              "name": "",
              "type": "address"
            }
          ],
          "stateMutability": "nonpayable",
          "type": "function"
        },
        {
          "inputs": [
            {
              "internalType": "uint256",
              "name": "_myNumber",
              "type": "uint256"
            },
            {
              "internalType": "address",
              "name": "_myAddress",
              "type": "address"
            }
          ],
          "name": "HelloSphinx",
          "outputs": [
            {
              "internalType": "contract HelloSphinx",
              "name": "",
              "type": "address"
            }
          ],
          "stateMutability": "nonpayable",
          "type": "function"
        }
      ],
      "userdoc": {},
      "devdoc": {},
      "storageLayout": {
        "storage": [
          {
            "astId": 90,
            "contract": "src/client/SphinxClient.sol:SphinxClient",
            "label": "owners",
            "offset": 0,
            "slot": "0",
            "type": "t_array(t_address)dyn_storage"
          },
          {
            "astId": 92,
            "contract": "src/client/SphinxClient.sol:SphinxClient",
            "label": "threshold",
            "offset": 0,
            "slot": "1",
            "type": "t_uint256"
          }
        ],
        "types": {
          "t_address": {
            "encoding": "inplace",
            "label": "address",
            "numberOfBytes": "20"
          },
          "t_array(t_address)dyn_storage": {
            "encoding": "dynamic_array",
            "label": "address[]",
            "numberOfBytes": "32",
            "base": "t_address"
          },
          "t_uint256": {
            "encoding": "inplace",
            "label": "uint256",
            "numberOfBytes": "32"
          }
        }
      },
      "evm": {
        "bytecode": {
          "object": "608060405234801561001057600080fd5b5060405161066338038061066383398101604081905261002f916100f8565b815161004290600090602085019061004c565b50600155506101c4565b8280548282559060005260206000209081019282156100a1579160200282015b828111156100a157825182546001600160a01b0319166001600160a01b0390911617825560209092019160019091019061006c565b506100ad9291506100b1565b5090565b5b808211156100ad57600081556001016100b2565b634e487b7160e01b600052604160045260246000fd5b80516001600160a01b03811681146100f357600080fd5b919050565b6000806040838503121561010b57600080fd5b82516001600160401b038082111561012257600080fd5b818501915085601f83011261013657600080fd5b815160208282111561014a5761014a6100c6565b8160051b604051601f19603f8301168101818110868211171561016f5761016f6100c6565b60405292835281830193508481018201928984111561018d57600080fd5b948201945b838610156101b2576101a3866100dc565b85529482019493820193610192565b97909101519698969750505050505050565b610490806101d36000396000f3fe608060405234801561001057600080fd5b50600436106100365760003560e01c80630dbd987b1461003b5780639f8c0da51461006a575b600080fd5b61004e610049366004610210565b61007d565b6040516001600160a01b03909116815260200160405180910390f35b61004e61007836600461033c565b6100c7565b600080600090507f111bac1812d53d070a9318c1f004f0be67994e35dafa19951e3c6844f493e2168585856040516100b7939291906103ae565b60405180910390a1949350505050565b604080518381526001600160a01b038316602082015260009182917f53a62da3d45d5c294ce300b881ec82ab9cb7c637dab2ca8e6571a19f5b70e527910160405180910390a19392505050565b80356001600160a01b038116811461012b57600080fd5b919050565b634e487b7160e01b600052604160045260246000fd5b6040516060810167ffffffffffffffff8111828210171561016957610169610130565b60405290565b604051601f8201601f1916810167ffffffffffffffff8111828210171561019857610198610130565b604052919050565b600082601f8301126101b157600080fd5b813567ffffffffffffffff8111156101cb576101cb610130565b6101de601f8201601f191660200161016f565b8181528460208386010111156101f357600080fd5b816020850160208301376000918101602001919091529392505050565b60008060006060848603121561022557600080fd5b833592506020610236818601610114565b9250604085013567ffffffffffffffff8082111561025357600080fd5b908601906060828903121561026757600080fd5b61026f610146565b82358152838301358281111561028457600080fd5b8301601f81018a1361029557600080fd5b8035838111156102a7576102a7610130565b8060051b6102b687820161016f565b918252828101870191878101908d8411156102d057600080fd5b938801935b838510156102ff5784359250600783106102ef5760008081fd5b82825293880193908801906102d5565b80898701525050505050604083013593508184111561031d57600080fd5b610329898585016101a0565b6040820152809450505050509250925092565b6000806040838503121561034f57600080fd5b8235915061035f60208401610114565b90509250929050565b6000815180845260005b8181101561038e57602081850181015186830182015201610372565b506000602082860101526020601f19601f83011685010191505092915050565b8381526000602060018060a01b038516818401526060604084015260c0830184516060850152818501516060608086015281815180845260e087019150848301935060009250825b8181101561042e5784516007811061041c57634e487b7160e01b85526021600452602485fd5b835293850193918501916001016103f6565b50506040870151868203605f190160a0880152935061044d8185610368565b999850505050505050505056fea2646970667358221220ecc8a8dbc3c349ab3bc5f09ea32df8aef097ab7b78a0c5dac8073d96d7753f9264736f6c63430008140033",
          "opcodes": "PUSH1 0x80 PUSH1 0x40 MSTORE CALLVALUE DUP1 ISZERO PUSH2 0x10 JUMPI PUSH1 0x0 DUP1 REVERT JUMPDEST POP PUSH1 0x40 MLOAD PUSH2 0x663 CODESIZE SUB DUP1 PUSH2 0x663 DUP4 CODECOPY DUP2 ADD PUSH1 0x40 DUP2 SWAP1 MSTORE PUSH2 0x2F SWAP2 PUSH2 0xF8 JUMP JUMPDEST DUP2 MLOAD PUSH2 0x42 SWAP1 PUSH1 0x0 SWAP1 PUSH1 0x20 DUP6 ADD SWAP1 PUSH2 0x4C JUMP JUMPDEST POP PUSH1 0x1 SSTORE POP PUSH2 0x1C4 JUMP JUMPDEST DUP3 DUP1 SLOAD DUP3 DUP3 SSTORE SWAP1 PUSH1 0x0 MSTORE PUSH1 0x20 PUSH1 0x0 KECCAK256 SWAP1 DUP2 ADD SWAP3 DUP3 ISZERO PUSH2 0xA1 JUMPI SWAP2 PUSH1 0x20 MUL DUP3 ADD JUMPDEST DUP3 DUP2 GT ISZERO PUSH2 0xA1 JUMPI DUP3 MLOAD DUP3 SLOAD PUSH1 0x1 PUSH1 0x1 PUSH1 0xA0 SHL SUB NOT AND PUSH1 0x1 PUSH1 0x1 PUSH1 0xA0 SHL SUB SWAP1 SWAP2 AND OR DUP3 SSTORE PUSH1 0x20 SWAP1 SWAP3 ADD SWAP2 PUSH1 0x1 SWAP1 SWAP2 ADD SWAP1 PUSH2 0x6C JUMP JUMPDEST POP PUSH2 0xAD SWAP3 SWAP2 POP PUSH2 0xB1 JUMP JUMPDEST POP SWAP1 JUMP JUMPDEST JUMPDEST DUP1 DUP3 GT ISZERO PUSH2 0xAD JUMPI PUSH1 0x0 DUP2 SSTORE PUSH1 0x1 ADD PUSH2 0xB2 JUMP JUMPDEST PUSH4 0x4E487B71 PUSH1 0xE0 SHL PUSH1 0x0 MSTORE PUSH1 0x41 PUSH1 0x4 MSTORE PUSH1 0x24 PUSH1 0x0 REVERT JUMPDEST DUP1 MLOAD PUSH1 0x1 PUSH1 0x1 PUSH1 0xA0 SHL SUB DUP2 AND DUP2 EQ PUSH2 0xF3 JUMPI PUSH1 0x0 DUP1 REVERT JUMPDEST SWAP2 SWAP1 POP JUMP JUMPDEST PUSH1 0x0 DUP1 PUSH1 0x40 DUP4 DUP6 SUB SLT ISZERO PUSH2 0x10B JUMPI PUSH1 0x0 DUP1 REVERT JUMPDEST DUP3 MLOAD PUSH1 0x1 PUSH1 0x1 PUSH1 0x40 SHL SUB DUP1 DUP3 GT ISZERO PUSH2 0x122 JUMPI PUSH1 0x0 DUP1 REVERT JUMPDEST DUP2 DUP6 ADD SWAP2 POP DUP6 PUSH1 0x1F DUP4 ADD SLT PUSH2 0x136 JUMPI PUSH1 0x0 DUP1 REVERT JUMPDEST DUP2 MLOAD PUSH1 0x20 DUP3 DUP3 GT ISZERO PUSH2 0x14A JUMPI PUSH2 0x14A PUSH2 0xC6 JUMP JUMPDEST DUP2 PUSH1 0x5 SHL PUSH1 0x40 MLOAD PUSH1 0x1F NOT PUSH1 0x3F DUP4 ADD AND DUP2 ADD DUP2 DUP2 LT DUP7 DUP3 GT OR ISZERO PUSH2 0x16F JUMPI PUSH2 0x16F PUSH2 0xC6 JUMP JUMPDEST PUSH1 0x40 MSTORE SWAP3 DUP4 MSTORE DUP2 DUP4 ADD SWAP4 POP DUP5 DUP2 ADD DUP3 ADD SWAP3 DUP10 DUP5 GT ISZERO PUSH2 0x18D JUMPI PUSH1 0x0 DUP1 REVERT JUMPDEST SWAP5 DUP3 ADD SWAP5 JUMPDEST DUP4 DUP7 LT ISZERO PUSH2 0x1B2 JUMPI PUSH2 0x1A3 DUP7 PUSH2 0xDC JUMP JUMPDEST DUP6 MSTORE SWAP5 DUP3 ADD SWAP5 SWAP4 DUP3 ADD SWAP4 PUSH2 0x192 JUMP JUMPDEST SWAP8 SWAP1 SWAP2 ADD MLOAD SWAP7 SWAP9 SWAP7 SWAP8 POP POP POP POP POP POP POP JUMP JUMPDEST PUSH2 0x490 DUP1 PUSH2 0x1D3 PUSH1 0x0 CODECOPY PUSH1 0x0 RETURN INVALID PUSH1 0x80 PUSH1 0x40 MSTORE CALLVALUE DUP1 ISZERO PUSH2 0x10 JUMPI PUSH1 0x0 DUP1 REVERT JUMPDEST POP PUSH1 0x4 CALLDATASIZE LT PUSH2 0x36 JUMPI PUSH1 0x0 CALLDATALOAD PUSH1 0xE0 SHR DUP1 PUSH4 0xDBD987B EQ PUSH2 0x3B JUMPI DUP1 PUSH4 0x9F8C0DA5 EQ PUSH2 0x6A JUMPI JUMPDEST PUSH1 0x0 DUP1 REVERT JUMPDEST PUSH2 0x4E PUSH2 0x49 CALLDATASIZE PUSH1 0x4 PUSH2 0x210 JUMP JUMPDEST PUSH2 0x7D JUMP JUMPDEST PUSH1 0x40 MLOAD PUSH1 0x1 PUSH1 0x1 PUSH1 0xA0 SHL SUB SWAP1 SWAP2 AND DUP2 MSTORE PUSH1 0x20 ADD PUSH1 0x40 MLOAD DUP1 SWAP2 SUB SWAP1 RETURN JUMPDEST PUSH2 0x4E PUSH2 0x78 CALLDATASIZE PUSH1 0x4 PUSH2 0x33C JUMP JUMPDEST PUSH2 0xC7 JUMP JUMPDEST PUSH1 0x0 DUP1 PUSH1 0x0 SWAP1 POP PUSH32 0x111BAC1812D53D070A9318C1F004F0BE67994E35DAFA19951E3C6844F493E216 DUP6 DUP6 DUP6 PUSH1 0x40 MLOAD PUSH2 0xB7 SWAP4 SWAP3 SWAP2 SWAP1 PUSH2 0x3AE JUMP JUMPDEST PUSH1 0x40 MLOAD DUP1 SWAP2 SUB SWAP1 LOG1 SWAP5 SWAP4 POP POP POP POP JUMP JUMPDEST PUSH1 0x40 DUP1 MLOAD DUP4 DUP2 MSTORE PUSH1 0x1 PUSH1 0x1 PUSH1 0xA0 SHL SUB DUP4 AND PUSH1 0x20 DUP3 ADD MSTORE PUSH1 0x0 SWAP2 DUP3 SWAP2 PUSH32 0x53A62DA3D45D5C294CE300B881EC82AB9CB7C637DAB2CA8E6571A19F5B70E527 SWAP2 ADD PUSH1 0x40 MLOAD DUP1 SWAP2 SUB SWAP1 LOG1 SWAP4 SWAP3 POP POP POP JUMP JUMPDEST DUP1 CALLDATALOAD PUSH1 0x1 PUSH1 0x1 PUSH1 0xA0 SHL SUB DUP2 AND DUP2 EQ PUSH2 0x12B JUMPI PUSH1 0x0 DUP1 REVERT JUMPDEST SWAP2 SWAP1 POP JUMP JUMPDEST PUSH4 0x4E487B71 PUSH1 0xE0 SHL PUSH1 0x0 MSTORE PUSH1 0x41 PUSH1 0x4 MSTORE PUSH1 0x24 PUSH1 0x0 REVERT JUMPDEST PUSH1 0x40 MLOAD PUSH1 0x60 DUP2 ADD PUSH8 0xFFFFFFFFFFFFFFFF DUP2 GT DUP3 DUP3 LT OR ISZERO PUSH2 0x169 JUMPI PUSH2 0x169 PUSH2 0x130 JUMP JUMPDEST PUSH1 0x40 MSTORE SWAP1 JUMP JUMPDEST PUSH1 0x40 MLOAD PUSH1 0x1F DUP3 ADD PUSH1 0x1F NOT AND DUP2 ADD PUSH8 0xFFFFFFFFFFFFFFFF DUP2 GT DUP3 DUP3 LT OR ISZERO PUSH2 0x198 JUMPI PUSH2 0x198 PUSH2 0x130 JUMP JUMPDEST PUSH1 0x40 MSTORE SWAP2 SWAP1 POP JUMP JUMPDEST PUSH1 0x0 DUP3 PUSH1 0x1F DUP4 ADD SLT PUSH2 0x1B1 JUMPI PUSH1 0x0 DUP1 REVERT JUMPDEST DUP2 CALLDATALOAD PUSH8 0xFFFFFFFFFFFFFFFF DUP2 GT ISZERO PUSH2 0x1CB JUMPI PUSH2 0x1CB PUSH2 0x130 JUMP JUMPDEST PUSH2 0x1DE PUSH1 0x1F DUP3 ADD PUSH1 0x1F NOT AND PUSH1 0x20 ADD PUSH2 0x16F JUMP JUMPDEST DUP2 DUP2 MSTORE DUP5 PUSH1 0x20 DUP4 DUP7 ADD ADD GT ISZERO PUSH2 0x1F3 JUMPI PUSH1 0x0 DUP1 REVERT JUMPDEST DUP2 PUSH1 0x20 DUP6 ADD PUSH1 0x20 DUP4 ADD CALLDATACOPY PUSH1 0x0 SWAP2 DUP2 ADD PUSH1 0x20 ADD SWAP2 SWAP1 SWAP2 MSTORE SWAP4 SWAP3 POP POP POP JUMP JUMPDEST PUSH1 0x0 DUP1 PUSH1 0x0 PUSH1 0x60 DUP5 DUP7 SUB SLT ISZERO PUSH2 0x225 JUMPI PUSH1 0x0 DUP1 REVERT JUMPDEST DUP4 CALLDATALOAD SWAP3 POP PUSH1 0x20 PUSH2 0x236 DUP2 DUP7 ADD PUSH2 0x114 JUMP JUMPDEST SWAP3 POP PUSH1 0x40 DUP6 ADD CALLDATALOAD PUSH8 0xFFFFFFFFFFFFFFFF DUP1 DUP3 GT ISZERO PUSH2 0x253 JUMPI PUSH1 0x0 DUP1 REVERT JUMPDEST SWAP1 DUP7 ADD SWAP1 PUSH1 0x60 DUP3 DUP10 SUB SLT ISZERO PUSH2 0x267 JUMPI PUSH1 0x0 DUP1 REVERT JUMPDEST PUSH2 0x26F PUSH2 0x146 JUMP JUMPDEST DUP3 CALLDATALOAD DUP2 MSTORE DUP4 DUP4 ADD CALLDATALOAD DUP3 DUP2 GT ISZERO PUSH2 0x284 JUMPI PUSH1 0x0 DUP1 REVERT JUMPDEST DUP4 ADD PUSH1 0x1F DUP2 ADD DUP11 SGT PUSH2 0x295 JUMPI PUSH1 0x0 DUP1 REVERT JUMPDEST DUP1 CALLDATALOAD DUP4 DUP2 GT ISZERO PUSH2 0x2A7 JUMPI PUSH2 0x2A7 PUSH2 0x130 JUMP JUMPDEST DUP1 PUSH1 0x5 SHL PUSH2 0x2B6 DUP8 DUP3 ADD PUSH2 0x16F JUMP JUMPDEST SWAP2 DUP3 MSTORE DUP3 DUP2 ADD DUP8 ADD SWAP2 DUP8 DUP2 ADD SWAP1 DUP14 DUP5 GT ISZERO PUSH2 0x2D0 JUMPI PUSH1 0x0 DUP1 REVERT JUMPDEST SWAP4 DUP9 ADD SWAP4 JUMPDEST DUP4 DUP6 LT ISZERO PUSH2 0x2FF JUMPI DUP5 CALLDATALOAD SWAP3 POP PUSH1 0x7 DUP4 LT PUSH2 0x2EF JUMPI PUSH1 0x0 DUP1 DUP2 REVERT JUMPDEST DUP3 DUP3 MSTORE SWAP4 DUP9 ADD SWAP4 SWAP1 DUP9 ADD SWAP1 PUSH2 0x2D5 JUMP JUMPDEST DUP1 DUP10 DUP8 ADD MSTORE POP POP POP POP POP PUSH1 0x40 DUP4 ADD CALLDATALOAD SWAP4 POP DUP2 DUP5 GT ISZERO PUSH2 0x31D JUMPI PUSH1 0x0 DUP1 REVERT JUMPDEST PUSH2 0x329 DUP10 DUP6 DUP6 ADD PUSH2 0x1A0 JUMP JUMPDEST PUSH1 0x40 DUP3 ADD MSTORE DUP1 SWAP5 POP POP POP POP POP SWAP3 POP SWAP3 POP SWAP3 JUMP JUMPDEST PUSH1 0x0 DUP1 PUSH1 0x40 DUP4 DUP6 SUB SLT ISZERO PUSH2 0x34F JUMPI PUSH1 0x0 DUP1 REVERT JUMPDEST DUP3 CALLDATALOAD SWAP2 POP PUSH2 0x35F PUSH1 0x20 DUP5 ADD PUSH2 0x114 JUMP JUMPDEST SWAP1 POP SWAP3 POP SWAP3 SWAP1 POP JUMP JUMPDEST PUSH1 0x0 DUP2 MLOAD DUP1 DUP5 MSTORE PUSH1 0x0 JUMPDEST DUP2 DUP2 LT ISZERO PUSH2 0x38E JUMPI PUSH1 0x20 DUP2 DUP6 ADD DUP2 ADD MLOAD DUP7 DUP4 ADD DUP3 ADD MSTORE ADD PUSH2 0x372 JUMP JUMPDEST POP PUSH1 0x0 PUSH1 0x20 DUP3 DUP7 ADD ADD MSTORE PUSH1 0x20 PUSH1 0x1F NOT PUSH1 0x1F DUP4 ADD AND DUP6 ADD ADD SWAP2 POP POP SWAP3 SWAP2 POP POP JUMP JUMPDEST DUP4 DUP2 MSTORE PUSH1 0x0 PUSH1 0x20 PUSH1 0x1 DUP1 PUSH1 0xA0 SHL SUB DUP6 AND DUP2 DUP5 ADD MSTORE PUSH1 0x60 PUSH1 0x40 DUP5 ADD MSTORE PUSH1 0xC0 DUP4 ADD DUP5 MLOAD PUSH1 0x60 DUP6 ADD MSTORE DUP2 DUP6 ADD MLOAD PUSH1 0x60 PUSH1 0x80 DUP7 ADD MSTORE DUP2 DUP2 MLOAD DUP1 DUP5 MSTORE PUSH1 0xE0 DUP8 ADD SWAP2 POP DUP5 DUP4 ADD SWAP4 POP PUSH1 0x0 SWAP3 POP DUP3 JUMPDEST DUP2 DUP2 LT ISZERO PUSH2 0x42E JUMPI DUP5 MLOAD PUSH1 0x7 DUP2 LT PUSH2 0x41C JUMPI PUSH4 0x4E487B71 PUSH1 0xE0 SHL DUP6 MSTORE PUSH1 0x21 PUSH1 0x4 MSTORE PUSH1 0x24 DUP6 REVERT JUMPDEST DUP4 MSTORE SWAP4 DUP6 ADD SWAP4 SWAP2 DUP6 ADD SWAP2 PUSH1 0x1 ADD PUSH2 0x3F6 JUMP JUMPDEST POP POP PUSH1 0x40 DUP8 ADD MLOAD DUP7 DUP3 SUB PUSH1 0x5F NOT ADD PUSH1 0xA0 DUP9 ADD MSTORE SWAP4 POP PUSH2 0x44D DUP2 DUP6 PUSH2 0x368 JUMP JUMPDEST SWAP10 SWAP9 POP POP POP POP POP POP POP POP POP JUMP INVALID LOG2 PUSH5 0x6970667358 0x22 SLT KECCAK256 0xEC 0xC8 0xA8 0xDB 0xC3 0xC3 0x49 0xAB EXTCODESIZE 0xC5 CREATE SWAP15 LOG3 0x2D 0xF8 0xAE CREATE SWAP8 0xAB PUSH28 0x78A0C5DAC8073D96D7753F9264736F6C634300081400330000000000 ",
          "linkReferences": {}
        },
        "methodIdentifiers": {
          "HelloSphinx(uint256,address)": "9f8c0da5",
          "HelloSphinx(uint256,address,(bytes32,uint8[],string))": "0dbd987b"
        },
        "gasEstimates": {
          "creation": {
            "codeDepositCost": "233600",
            "executionCost": "infinite",
            "totalCost": "infinite"
          },
          "external": {
            "HelloSphinx(uint256,address)": "1761",
            "HelloSphinx(uint256,address,(bytes32,uint8[],string))": "infinite"
          },
          "internal": {}
        }
      }
    }
  }
}