{
  "abi": [
    {
      "inputs": [
        {
          "internalType": "address[]",
          "name": "_owners",
          "type": "address[]"
        },
        {
          "internalType": "uint256",
          "name": "_threshold",
          "type": "uint256"
        }
      ],
      "stateMutability": "nonpayable",
      "type": "constructor"
    },
    {
      "anonymous": false,
      "inputs": [
        {
          "indexed": false,
          "internalType": "uint256",
          "name": "_myNumber",
          "type": "uint256"
        },
        {
          "indexed": false,
          "internalType": "address",
          "name": "_myAddress",
          "type": "address"
        },
        {
          "components": [
            {
              "internalType": "bytes32",
              "name": "salt",
              "type": "bytes32"
            },
            {
              "internalType": "enum Network[]",
              "name": "networks",
              "type": "uint8[]"
            },
            {
              "internalType": "string",
              "name": "referenceName",
              "type": "string"
            }
          ],
          "indexed": false,
          "internalType": "struct DeployOptions",
          "name": "options",
          "type": "tuple"
        }
      ],
      "name": "DeployedHelloSphinx",
      "type": "event"
    },
    {
      "anonymous": false,
      "inputs": [
        {
          "indexed": false,
          "internalType": "uint256",
          "name": "_myNumber",
          "type": "uint256"
        },
        {
          "indexed": false,
          "internalType": "address",
          "name": "_myAddress",
          "type": "address"
        }
      ],
      "name": "DeployedHelloSphinx",
      "type": "event"
    },
    {
      "inputs": [
        {
          "internalType": "uint256",
          "name": "_myNumber",
          "type": "uint256"
        },
        {
          "internalType": "address",
          "name": "_myAddress",
          "type": "address"
        },
        {
          "components": [
            {
              "internalType": "bytes32",
              "name": "salt",
              "type": "bytes32"
            },
            {
              "internalType": "enum Network[]",
              "name": "networks",
              "type": "uint8[]"
            },
            {
              "internalType": "string",
              "name": "referenceName",
              "type": "string"
            }
          ],
          "internalType": "struct DeployOptions",
          "name": "options",
          "type": "tuple"
        }
      ],
      "name": "DeployHelloSphinx",
      "outputs": [
        {
          "internalType": "contract HelloSphinx",
          "name": "",
          "type": "address"
        }
      ],
      "stateMutability": "nonpayable",
      "type": "function"
    },
    {
      "inputs": [
        {
          "internalType": "uint256",
          "name": "_myNumber",
          "type": "uint256"
        },
        {
          "internalType": "address",
          "name": "_myAddress",
          "type": "address"
        }
      ],
      "name": "DeployHelloSphinx",
      "outputs": [
        {
          "internalType": "contract HelloSphinx",
          "name": "",
          "type": "address"
        }
      ],
      "stateMutability": "nonpayable",
      "type": "function"
    }
  ],
  "bytecode": {
    "object": "0x608060405234801561001057600080fd5b5060405161066338038061066383398101604081905261002f916100f8565b815161004290600090602085019061004c565b50600155506101c4565b8280548282559060005260206000209081019282156100a1579160200282015b828111156100a157825182546001600160a01b0319166001600160a01b0390911617825560209092019160019091019061006c565b506100ad9291506100b1565b5090565b5b808211156100ad57600081556001016100b2565b634e487b7160e01b600052604160045260246000fd5b80516001600160a01b03811681146100f357600080fd5b919050565b6000806040838503121561010b57600080fd5b82516001600160401b038082111561012257600080fd5b818501915085601f83011261013657600080fd5b815160208282111561014a5761014a6100c6565b8160051b604051601f19603f8301168101818110868211171561016f5761016f6100c6565b60405292835281830193508481018201928984111561018d57600080fd5b948201945b838610156101b2576101a3866100dc565b85529482019493820193610192565b97909101519698969750505050505050565b610490806101d36000396000f3fe608060405234801561001057600080fd5b50600436106100365760003560e01c8063111bac181461003b57806353a62da31461006a575b600080fd5b61004e610049366004610210565b61007d565b6040516001600160a01b03909116815260200160405180910390f35b61004e61007836600461033c565b6100c7565b600080600090507f6ecc76f2bfa119090aba7a488f4911b5291c241ac20ab428572372b6aac988008585856040516100b7939291906103ae565b60405180910390a1949350505050565b604080518381526001600160a01b038316602082015260009182917fb392f5c368ea53467e5fcaccadb981abb7a39637bb32e3ed2b447703f4ac6dc7910160405180910390a19392505050565b80356001600160a01b038116811461012b57600080fd5b919050565b634e487b7160e01b600052604160045260246000fd5b6040516060810167ffffffffffffffff8111828210171561016957610169610130565b60405290565b604051601f8201601f1916810167ffffffffffffffff8111828210171561019857610198610130565b604052919050565b600082601f8301126101b157600080fd5b813567ffffffffffffffff8111156101cb576101cb610130565b6101de601f8201601f191660200161016f565b8181528460208386010111156101f357600080fd5b816020850160208301376000918101602001919091529392505050565b60008060006060848603121561022557600080fd5b833592506020610236818601610114565b9250604085013567ffffffffffffffff8082111561025357600080fd5b908601906060828903121561026757600080fd5b61026f610146565b82358152838301358281111561028457600080fd5b8301601f81018a1361029557600080fd5b8035838111156102a7576102a7610130565b8060051b6102b687820161016f565b918252828101870191878101908d8411156102d057600080fd5b938801935b838510156102ff5784359250600783106102ef5760008081fd5b82825293880193908801906102d5565b80898701525050505050604083013593508184111561031d57600080fd5b610329898585016101a0565b6040820152809450505050509250925092565b6000806040838503121561034f57600080fd5b8235915061035f60208401610114565b90509250929050565b6000815180845260005b8181101561038e57602081850181015186830182015201610372565b506000602082860101526020601f19601f83011685010191505092915050565b8381526000602060018060a01b038516818401526060604084015260c0830184516060850152818501516060608086015281815180845260e087019150848301935060009250825b8181101561042e5784516007811061041c57634e487b7160e01b85526021600452602485fd5b835293850193918501916001016103f6565b50506040870151868203605f190160a0880152935061044d8185610368565b999850505050505050505056fea2646970667358221220baa9a5883e0929028988a1ff9dbc7522b3ab3e0fd1354de31e0b714cbf8b5b4b64736f6c63430008140033",
    "linkReferences": {}
  },
  "methodIdentifiers": {
    "DeployHelloSphinx(uint256,address)": "53a62da3",
    "DeployHelloSphinx(uint256,address,(bytes32,uint8[],string))": "111bac18"
  },
  "gasEstimates": {
    "creation": {
      "codeDepositCost": "233600",
      "executionCost": "infinite",
      "totalCost": "infinite"
    },
    "external": {
      "DeployHelloSphinx(uint256,address)": "1761",
      "DeployHelloSphinx(uint256,address,(bytes32,uint8[],string))": "infinite"
    },
    "internal": {}
  },
  "storageLayout": {
    "storage": [
      {
        "astId": 92,
        "contract": "src/client/SphinxClient.sol:SphinxClient",
        "label": "owners",
        "offset": 0,
        "slot": "0",
        "type": "t_array(t_address)dyn_storage"
      },
      {
        "astId": 94,
        "contract": "src/client/SphinxClient.sol:SphinxClient",
        "label": "threshold",
        "offset": 0,
        "slot": "1",
        "type": "t_uint256"
      }
    ],
    "types": {
      "t_address": {
        "encoding": "inplace",
        "label": "address",
        "numberOfBytes": "20"
      },
      "t_array(t_address)dyn_storage": {
        "encoding": "dynamic_array",
        "label": "address[]",
        "numberOfBytes": "32",
        "base": "t_address"
      },
      "t_uint256": {
        "encoding": "inplace",
        "label": "uint256",
        "numberOfBytes": "32"
      }
    }
  },
  "id": 1
}