{
  "abi": [
    {
      "inputs": [
        {
          "internalType": "uint8",
          "name": "_myNumber",
          "type": "uint8"
        },
        {
          "internalType": "address",
          "name": "_myAddress",
          "type": "address"
        }
      ],
      "stateMutability": "nonpayable",
      "type": "constructor"
    },
    {
      "inputs": [],
      "name": "increment",
      "outputs": [],
      "stateMutability": "nonpayable",
      "type": "function"
    },
    {
      "inputs": [],
      "name": "myAddress",
      "outputs": [
        {
          "internalType": "address",
          "name": "",
          "type": "address"
        }
      ],
      "stateMutability": "view",
      "type": "function"
    },
    {
      "inputs": [],
      "name": "myNumber",
      "outputs": [
        {
          "internalType": "uint8",
          "name": "",
          "type": "uint8"
        }
      ],
      "stateMutability": "view",
      "type": "function"
    }
  ],
  "bytecode": {
    "object": "0x608060405234801561001057600080fd5b506040516101e63803806101e683398101604081905261002f9161005f565b600080546001600160a01b03909216610100026001600160a81b031990921660ff909316929092171790556100ab565b6000806040838503121561007257600080fd5b825160ff8116811461008357600080fd5b60208401519092506001600160a01b03811681146100a057600080fd5b809150509250929050565b61012c806100ba6000396000f3fe6080604052348015600f57600080fd5b5060043610603c5760003560e01c806323fd0e4014604157806326b85ee1146064578063d09de08a146092575b600080fd5b600054604d9060ff1681565b60405160ff90911681526020015b60405180910390f35b600054607b9061010090046001600160a01b031681565b6040516001600160a01b039091168152602001605b565b6098609a565b005b6000805460019190819060b090849060ff1660ca565b92506101000a81548160ff021916908360ff160217905550565b60ff818116838216019081111560f057634e487b7160e01b600052601160045260246000fd5b9291505056fea2646970667358221220ea96cafaa67be1b595521e7f92097ff6a0cc568444e46cb16f9a6e1fa060747d64736f6c63430008140033",
    "linkReferences": {}
  },
  "methodIdentifiers": {
    "increment()": "d09de08a",
    "myAddress()": "26b85ee1",
    "myNumber()": "23fd0e40"
  },
  "gasEstimates": {
    "creation": {
      "codeDepositCost": "60000",
      "executionCost": "infinite",
      "totalCost": "infinite"
    },
    "external": {
      "increment()": "26649",
      "myAddress()": "2348",
      "myNumber()": "2280"
    },
    "internal": {}
  },
  "storageLayout": {
    "storage": [
      {
        "astId": 47216,
        "contract": "src/HelloSphinx.sol:HelloSphinx",
        "label": "myNumber",
        "offset": 0,
        "slot": "0",
        "type": "t_uint8"
      },
      {
        "astId": 47218,
        "contract": "src/HelloSphinx.sol:HelloSphinx",
        "label": "myAddress",
        "offset": 1,
        "slot": "0",
        "type": "t_address"
      }
    ],
    "types": {
      "t_address": {
        "encoding": "inplace",
        "label": "address",
        "numberOfBytes": "20"
      },
      "t_uint8": {
        "encoding": "inplace",
        "label": "uint8",
        "numberOfBytes": "1"
      }
    }
  },
  "id": 33
}