{
  "abi": [
    {
      "inputs": [],
      "stateMutability": "nonpayable",
      "type": "constructor"
    },
    {
      "anonymous": false,
      "inputs": [
        {
          "indexed": false,
          "internalType": "string",
          "name": "name",
          "type": "string"
        },
        {
          "components": [
            {
              "internalType": "enum Network[]",
              "name": "networks",
              "type": "uint8[]"
            }
          ],
          "indexed": false,
          "internalType": "struct ActionOptions",
          "name": "options",
          "type": "tuple"
        }
      ],
      "name": "CallIncrement",
      "type": "event"
    },
    {
      "anonymous": false,
      "inputs": [
        {
          "indexed": false,
          "internalType": "string",
          "name": "name",
          "type": "string"
        }
      ],
      "name": "CallIncrement",
      "type": "event"
    },
    {
      "anonymous": false,
      "inputs": [
        {
          "indexed": false,
          "internalType": "string",
          "name": "name",
          "type": "string"
        },
        {
          "indexed": false,
          "internalType": "uint8",
          "name": "_myNumber",
          "type": "uint8"
        },
        {
          "components": [
            {
              "internalType": "enum Network[]",
              "name": "networks",
              "type": "uint8[]"
            }
          ],
          "indexed": false,
          "internalType": "struct ActionOptions",
          "name": "options",
          "type": "tuple"
        }
      ],
      "name": "CallSetNumber",
      "type": "event"
    },
    {
      "anonymous": false,
      "inputs": [
        {
          "indexed": false,
          "internalType": "string",
          "name": "name",
          "type": "string"
        },
        {
          "indexed": false,
          "internalType": "uint8",
          "name": "_myNumber",
          "type": "uint8"
        }
      ],
      "name": "CallSetNumber",
      "type": "event"
    },
    {
      "inputs": [
        {
          "components": [
            {
              "internalType": "enum Network[]",
              "name": "networks",
              "type": "uint8[]"
            }
          ],
          "internalType": "struct ActionOptions",
          "name": "options",
          "type": "tuple"
        }
      ],
      "name": "increment",
      "outputs": [],
      "stateMutability": "nonpayable",
      "type": "function"
    },
    {
      "inputs": [],
      "name": "increment",
      "outputs": [],
      "stateMutability": "nonpayable",
      "type": "function"
    },
    {
      "inputs": [
        {
          "internalType": "uint8",
          "name": "_myNumber",
          "type": "uint8"
        }
      ],
      "name": "setNumber",
      "outputs": [],
      "stateMutability": "nonpayable",
      "type": "function"
    },
    {
      "inputs": [
        {
          "internalType": "uint8",
          "name": "_myNumber",
          "type": "uint8"
        },
        {
          "components": [
            {
              "internalType": "enum Network[]",
              "name": "networks",
              "type": "uint8[]"
            }
          ],
          "internalType": "struct ActionOptions",
          "name": "options",
          "type": "tuple"
        }
      ],
      "name": "setNumber",
      "outputs": [],
      "stateMutability": "nonpayable",
      "type": "function"
    }
  ],
  "bytecode": {
    "object": "0x608060405234801561001057600080fd5b506104f1806100206000396000f3fe608060405234801561001057600080fd5b506004361061004c5760003560e01c80630211b7511461005157806318559e1914610066578063cabd6b4914610079578063d09de08a1461008c575b600080fd5b61006461005f3660046102a4565b610094565b005b6100646100743660046102f7565b6100ce565b610064610087366004610319565b6100fd565b61006461013a565b7f55de2b0da4d4607e109153f9f13502c64c4a952b4958f96aee88246b7cc1b97f816040516100c391906103ca565b60405180910390a150565b7f44a60f05f6595d9544469c5767b3b9579edec9f561003ab9720ea4af8570b0f2816040516100c39190610405565b7fd758524d282197c27e963e090682ef7365ec0cac066355b213c90053ae1978b4828260405161012e92919061043f565b60405180910390a15050565b7f5efb2b1bc9ab38b99c0d1890686c22199e1733ff69509df47751d6e759c350156040516101679061048c565b60405180910390a1565b634e487b7160e01b600052604160045260246000fd5b6040516020810167ffffffffffffffff811182821017156101aa576101aa610171565b60405290565b604051601f8201601f1916810167ffffffffffffffff811182821017156101d9576101d9610171565b604052919050565b600060208083850312156101f457600080fd5b6101fc610187565b9150823567ffffffffffffffff8082111561021657600080fd5b818501915085601f83011261022a57600080fd5b81358181111561023c5761023c610171565b8060051b915061024d8483016101b0565b818152918301840191848101908884111561026757600080fd5b938501935b838510156102965784359250600783106102865760008081fd5b828252938501939085019061026c565b865250939695505050505050565b6000602082840312156102b657600080fd5b813567ffffffffffffffff8111156102cd57600080fd5b6102d9848285016101e1565b949350505050565b803560ff811681146102f257600080fd5b919050565b60006020828403121561030957600080fd5b610312826102e1565b9392505050565b6000806040838503121561032c57600080fd5b610335836102e1565b9150602083013567ffffffffffffffff81111561035157600080fd5b61035d858286016101e1565b9150509250929050565b80516020808452815184820181905260009282019083906040870190825b818110156103bd578451600781106103ab57634e487b7160e01b85526021600452602485fd5b83529385019391850191600101610385565b5090979650505050505050565b6040815260006103f36040830160098152681a5b98dc995b595b9d60ba1b602082015260400190565b82810360208401526102d98185610367565b60408152600061042e60408301600981526839b2ba273ab6b132b960b91b602082015260400190565b905060ff8316602083015292915050565b60608152600061046860608301600981526839b2ba273ab6b132b960b91b602082015260400190565b60ff8516602084015282810360408401526104838185610367565b95945050505050565b6020815260006104b56020830160098152681a5b98dc995b595b9d60ba1b602082015260400190565b9291505056fea26469706673582212206b0a260d6852b89bc40f40ede691d9a549af4090463933ee17a5d307cd01abea64736f6c63430008140033",
    "linkReferences": {}
  },
  "methodIdentifiers": {
    "increment((uint8[]))": "0211b751",
    "increment()": "d09de08a",
    "setNumber(uint8)": "18559e19",
    "setNumber(uint8,(uint8[]))": "cabd6b49"
  },
  "gasEstimates": {
    "creation": {
      "codeDepositCost": "253000",
      "executionCost": "294",
      "totalCost": "253294"
    },
    "external": {
      "increment((uint8[]))": "infinite",
      "increment()": "1854",
      "setNumber(uint8)": "2249",
      "setNumber(uint8,(uint8[]))": "infinite"
    },
    "internal": {}
  },
  "storageLayout": {
    "storage": [],
    "types": {}
  },
  "id": 0
}